:020000040800F2
:10000000D02B0020B9020008D15A0008D35A0008AA
:10001000D75A0008DB5A0008DF5A00080000000029
:10002000000000000000000000000000E35A00088B
:10003000E55A000800000000E75A0008E95A0008E5
:10004000D3020008D3020008D3020008D30200083C
:10005000D3020008D3020008AB820008D3020008D4
:10006000D3020008D3020008D3020008D30200081C
:10007000D3020008D3020008D3020008D30200080C
:10008000D3020008155C0008D3020008D302000860
:10009000EDDF0008D3020008D3020008D3020008F5
:1000A000D3020008D3020008D3020008D3020008DC
:1000B000D3020008D3020008395C0008D30200080C
:1000C000D3020008D3020008D3020008D3020008BC
:1000D000D3020008EB5A00084D5B0008AF5B000834
:1000E000D3020008D3020008E1DF0008D3020008B1
:1000F000D3020008D3020008D3020008D30200088C
:10010000D3020008D3020008D3020008D30200087B
:10011000D3020008D3020008D3020008D30200086B
:10012000D3020008D3020008D3020008D30200085B
:1001300000F002F800F0B0F80AA090E8000C824449
:100140008344AAF10107DA4501D100F0A5F8AFF226
:10015000090EBAE80F0013F0010F18BFFB1A43F0A5
:1001600001031847A8400100C84001000A444FF0AD
:10017000000C10F8013B13F0070408BF10F8014B06
:100180001D1108BF10F8015B641E05D010F8016B4B
:10019000641E01F8016BF9D113F0080F1EBF10F8AF
:1001A000014BAD1C0C1B09D16D1E58BF01F801CBD2
:1001B000FAD505E014F8016B01F8016B6D1EF9D555
:1001C0009142D6D37047000000230024002500266A
:1001D000103A28BF78C1FBD8520728BF30C148BFAA
:1001E0000B6070476E290FF0E587702910F02E81A3
:1001F000662913F02481652913F02181672913F002
:100200001E816129AFF3008003681B0A28BF41F0FB
:10021000800169290FF0928764290FF08F87752973
:100220000FF08C876F2910F0B980782910F0FA80D0
:10023000E92910F05180E42910F04E80F52910F0E2
:100240004B80EF2910F0B680F82910F0F980036890
:10025000DB0928BF41F08001632910F088847329ED
:1002600010F08D84E32910F09884F32910F09D8418
:10027000002070471FB510F0EFFC040000200021A3
:1002800011F004FF401C60600020002111F0E8FE26
:10029000E0601FBD10B510BD10F0B0FC1146FFF7B7
:1002A000E9FF04F07EFC10F08DFD03B4FFF7F2FFD0
:1002B00003BC10F0CDFD0000094880470948004705
:1002C000FEE7FEE7FEE7FEE7FEE7FEE7FEE7FEE706
:1002D000FEE7FEE704480549054A064B7047000063
:1002E000C103000831010008D0250020D02B0020D8
:1002F000D0270020D027002000210020674A126864
:1003000042F48032654B1A6000BF644A126802F4FE
:100310000030491C10B9B1F5A06FF6D15F4A1268E0
:1003200012F4003F01D0012000E00020012842D15A
:100330005B4A126842F01002594B1A601A46126862
:1003400022F003021A601A46126842F002021A6092
:10035000524A5268514B5A601A4652685A601A46BD
:10036000526842F480625A601A46526822F47C1243
:100370005A601A46526842F4E8125A601A461268E5
:1003800042F080721A6000BF444A126812F0007F87
:10039000FAD0424A526822F00302404B5A601A4691
:1003A000526842F002025A6000BF3C4A526802F0B2
:1003B0000C02082AF9D1704710B5FFF79DFF10BD58
:1003C00010B53648006840F001003449086008461E
:1003D000406834490840314948600846006832495D
:1003E00008402E4908600846006820F48020086014
:1003F0000846406820F4FE0048604FF41F00886003
:10040000FFF7DAFF4FF000602849086010BD10B513
:10041000002100200022214B5B6803F00C0121B178
:10042000042906D0082928D107E0214B214C23605C
:1004300027E01F4B1F4C236023E0184B5B6803F43D
:100440007010164B5B6803F48032022303EB90407C
:1004500022B9194B4343174C23600DE00F4B5B68E7
:1004600013F4003F04D0144B4343124C236003E0C9
:100470000F4B43430F4C236003E00D4B0D4C2360A7
:1004800000BF00BF054B5B68C3F303130B4CE15C7B
:10049000084B1B68CB40074C236010BD0010024086
:1004A000002002400000FFF8FFFFF6FE08ED00E02C
:1004B00000127A000000002000093D000400002026
:1004C00031490143314A1160704770B50021002362
:1004D0000F22C4780CB32D4C246804F4E064C4F5F6
:1004E000E064210AC1F10403CA40447804FA03F12C
:1004F0008478144021430901254C0678A1550478DD
:1005000004F01F050124AC4005786D114FF0E02682
:1005100006EB8505C5F8004109E0047804F01F05E5
:100520000124AC401B4D0678761145F8264070BD7D
:10053000194A0A400243154B1B1F1A60704739B114
:10054000124A121D12680243104B1B1D1A6006E06E
:100550000E4A121D126882430C4B1B1D1A60704715
:10056000042808D14FF0E021096941F004014FF05F
:10057000E022116107E04FF0E021096921F0040158
:100580004FF0E022116170470000FA050CED00E029
:1005900000E400E080E100E080FFFF1F10B50446AA
:1005A000F948844208D10121401501F0D1F9002118
:1005B000601501F0CDF917E0F448844208D101211B
:1005C000001501F0C5F90021201501F0C1F90BE07B
:1005D000EF48844208D10121C80301F0B9F9002194
:1005E0004FF4004001F0B4F910BD30B502460020D0
:1005F00000235068E74C20400D790C6844EA05243C
:10060000204350609068E44C2040D1E902542C43D0
:100610004D7944EA450420439060D06A20F470008C
:100620000C7C641EE4B2234340EA0350D06230BD28
:1006300000210160017141718160C160012101747B
:10064000704721B1826842F00102826003E0826853
:1006500022F001028260704721B1826842F4807208
:10066000826003E0826822F480728260704710B575
:100670000023CBB21AB144681C43446002E04468D2
:100680009C43446010BD816841F00801816070475F
:10069000014600208A6812F0080F01D0012000E016
:1006A00000207047816841F0040181607047014675
:1006B00000208A6812F0040F01D0012000E0002021
:1006C000704721B1826842F4A002826003E0826830
:1006D00022F4A00282607047014600208A6812F46A
:1006E000800F01D0012000E00020704710B50A46BD
:1006F00000210023416821F46041531E41EA433147
:10070000416010BD21B1426842F40062426003E0E2
:10071000426822F4006242607047F0B504460D461C
:1007200000200021092D11DDE068A5F10A0606EB85
:100730004607072606FA07F18843A5F10A0606EBE5
:10074000460603FA06F10843E0600CE0206905EB79
:100750004507072606FA07F1884305EB450603FA25
:1007600006F108432061072A0FDA606B561E06EB7C
:1007700086071F2606FA07F18843561E06EB8606F3
:1007800005FA06F10843606322E00D2A0FDA206BB8
:10079000D61F06EB86071F2606FA07F18843D61FE9
:1007A00006EB860605FA06F10843206310E0E06ACE
:1007B000A2F10D0606EB86071F2606FA07F188430D
:1007C000A2F10D0606EB860605FA06F10843E06283
:1007D000F0BD21B1826842F48012826003E0826839
:1007E00022F48012826070470146C86C80B2704764
:1007F00065484C300068704721B1426842F480621D
:10080000426003E0426822F480624260704721B196
:10081000426842F48052426003E0426822F480520F
:10082000426070470A460021816821F4E04111438B
:100830008160704721B1826842F40042826003E027
:10084000826822F400428260704721B1826842F4DB
:100850000212826003E0826822F402128260704712
:10086000014600208A6812F4001F01D0012000E038
:1008700000207047F0B504461546002000220026EF
:10088000092911DDE068A1F10A0707EB470C0727EA
:1008900007FA0CF29043A1F10A0707EB470703FAA6
:1008A00007F21043E0600CE0206901EB410C0727E0
:1008B00007FA0CF2904301EB410703FA07F21043E9
:1008C0002061A06BC0F30156EF1C06F1010CA7EBF1
:1008D0000C0707EB870C1F2707FA0CF29043EF1C5D
:1008E00006F1010CA7EB0C0707EB870701FA07F2EB
:1008F0001043A063F0BD10B50A4600210023816BB0
:1009000021F44011531E41EA0351816310BD10B51B
:10091000002303460B441A6010BD02460023134611
:1009200001F128000344186880B270470A4600218C
:1009300041681A4B1940114341607047416282621D
:1009400070470A460021416821F01F0111434160B0
:10095000704740B10C490831096841F400010A4A66
:100960000832116007E008490831096821F40001E4
:10097000054A0832116070470246002013680B4296
:100980000ED001200DE000000024014000280140AD
:10099000003C0140FFFEF0FFFDF7F1FFFFFD3FFFD0
:1009A00000207047CA430260704770B502460020BD
:1009B000002300240B125568CEB205EA0604156820
:1009C0001D4202D00CB1012000E0002070BD0022C9
:1009D0000A12D3430360704701684FF6FE7211405C
:1009E00001600021016041608160C1608C498842E2
:1009F00008D18B490839496841F00F01884A083A03
:100A000051608AE086491431884208D18449083906
:100A1000496841F0F001824A083A51607DE080491E
:100A20002831884208D17E490839496841F470610B
:100A30007B4A083A516070E079493C31884208D1DC
:100A400077490839496841F47041754A083A51605C
:100A500063E073495031884208D1714908394968C7
:100A600041F470216E4A083A516056E06C49643195
:100A7000884208D16A490839496841F47001684AD6
:100A8000083A516049E066497831884208D16449A2
:100A90000839496841F07061614A083A51603CE0A8
:100AA0006049884206D1011F096841F00F01021F09
:100AB000116032E05B491431884208D15949091F5D
:100AC000096841F0F001574A121F116025E05549AD
:100AD0002831884208D15349091F096841F47061DF
:100AE000504A121F116018E04E493C31884208D12B
:100AF0004C49091F096841F470414A4A121F1160AC
:100B00000BE048495031884207D14649091F09681E
:100B100041F47021434A121F1160704710B5002242
:100B2000026847F6F0739A430C6A8B6823430C699A
:100B300023434C6923438C692343CC6923434C6A88
:100B400023438C6A23431A430260CB6843600B68DB
:100B500083604B68C36010BD00210160416081600B
:100B6000C160016141618161C16101624162816273
:100B7000704721B1026842F00102026004E002689D
:100B80004FF6FE731A40026070471AB103680B43B8
:100B9000036002E003688B43036070474160704765
:100BA0000146486880B2704701460020002211F0DB
:100BB000805F03D01B4B083B1A6802E0184B083BD0
:100BC0001A680A4201D0012000E00020704710F0AE
:100BD000805F03D01349091F086002E010490839FB
:100BE0004860704701460020002211F0805F03D06A
:100BF0000C4B083B1A6802E0094B083B1A680A4292
:100C000001D0012000E00020704710F0805F03D089
:100C10000449091F086002E001490839486070472B
:100C20000800024008040240002044490860091DF1
:100C30000860091D0860091D086041483F491431DA
:100C40000860704700213D498279002A3AD00A465F
:100C5000126803689A430B461A600A1D12680368FB
:100C60009A430B1D1A60027911440A6803681A43FB
:100C70000A60324A0832126803689A432F4B0833DD
:100C80001A601A1D126803689A432C4B0C331A60C1
:100C90004279102A0ED11A1F126803681A43274B93
:100CA00008331A601A1D126803681A43234B0C3369
:100CB0001A600DE02149427911440A6803681A4319
:100CC0000A6005E0027911440A6803689A430A60E1
:100CD00070470021016001710C2141710021817177
:100CE00070471649103109680143144A10321160E7
:100CF000704701460020114A143212680A4201D09E
:100D0000012000E0002070470C4914310860704752
:100D1000014600200022094B1B6803EA0102074B31
:100D200014331B680B4202D00AB1012000E00020FE
:100D30007047024914310860704700000004014008
:100D4000FFFF0F0001460020FE4A106800F0380047
:100D5000084310607047FB49096821F00801F94A0F
:100D6000116011460968014311607047F54909682F
:100D700021F01001F34A1160114609680143116026
:100D80007047F148EF494860F04848607047EE48C6
:100D9000EC494860ED4848607047EA48006940F017
:100DA0008000E84908617047E648006940F080002B
:100DB000E449086170470420E249C96811F0010F55
:100DC00001D001200EE0DF49C96811F0040F01D005
:100DD000022007E0DB49C96811F0100F01D00320A1
:100DE00000E00420704700B502460423FFF7E3FF4C
:100DF000034603E0FFF7DFFF0346521E012B01D13C
:100E0000002AF7D102B90523184600BD30B50446C3
:100E100004254FF43020FFF7E6FF0546042D17D1D7
:100E2000C848006940F00200C649086108464461AC
:100E3000006940F0400008614FF43020FFF7D3FF15
:100E40000546C048006941F6FD710840BD4908618A
:100E5000284630BD10B504244FF43020FFF7C3FFFF
:100E60000446042C16D1B748006940F00400B54987
:100E700008610846006940F0400008614FF43020E6
:100E8000FFF7B1FF0446AF48006941F6FB71084027
:100E9000AC490861204610BD00B502460423FFF7A7
:100EA0008AFF034603E0FFF786FF0346521E012B2D
:100EB00001D1002AF7D102B90523184600BD10B5AB
:100EC00004244FF43020FFF7E7FF0446042C16D12A
:100ED0009C48006940F004009A490861084600698E
:100EE00040F0400008614FF43020FFF7D5FF044682
:100EF0009448006941F6FB71084092490861204618
:100F000010BD00208F49C96911F0020F01D00120E6
:100F100000E00020704730B5A5250424FFF7F1FF5D
:100F200000B100254FF43020FFF75DFF0446042C8C
:100F30003AD18548834988608448886008460069BA
:100F400040F0200008610846006940F04000086158
:100F50004FF43020FFF747FF0446042C1BD179489B
:100F6000006941F6DF71084076490861084600696A
:100F700040F01000086176480580E002FFF733FF7B
:100F80000446052C10D06F48006941F6EF71084007
:100F90006C49086108E0052C06D06A48006941F6F2
:100FA000EF71084067490861204630BDF0B504463E
:100FB0000D4604260027F002FFF715FF0646042E13
:100FC00022D16048006940F001005E490861258037
:100FD000F002FFF708FF0646042E0ED1A71C280CCE
:100FE0003880F002FFF7FFFE06465648006941F6DA
:100FF000FE7108405349086106E05248006941F615
:10100000FE7108404F4908613046F0BD70B5044696
:101010000D460426F002FFF7E6FE0646042E11D127
:101020004848006940F00100464908612580F00207
:10103000FFF7D9FE06464348006941F6FE710840B5
:1010400040490861304670BD70B505460E4604241F
:10105000E002FFF7C8FE0446042C17D13A4839498C
:1010600088603A4888600846006940F010000861CE
:101070002E80E002FFF7B7FE0446052C06D031486B
:10108000006941F6EF7108402E490861204670BDA5
:101090002DE9F04304464FF6FF763746B046B14699
:1010A0000425E443E6B2C4F30727C4F307484FEA34
:1010B0001469E802FFF797FE0546042D40D1224847
:1010C00020498860214888600846006940F0100087
:1010D0000861FF2E06D01E4808300680E802FFF7A0
:1010E00082FE0546042D08D1FF2F06D018480A308D
:1010F0000780E802FFF777FE0546042D0AD1B8F114
:10110000FF0F07D012480C30A0F80080E802FFF76C
:101110006AFE0546042D0AD1B9F1FF0F07D00C482D
:101120000E30A0F80090E802FFF75DFE0546052DA1
:1011300006D00448006941F6EF7108400149086192
:10114000284607E00020024023016745AB89EFCD28
:1011500000F8FF1FBDE8F08330B5054604244FF4C6
:101160003020FFF740FE0446042C41D15E485F4921
:1011700088605F4888600846006940F02000086188
:101180000846006940F0400008614FF43020FFF746
:101190002AFE0446042C22D15448006941F6DF712E
:1011A0000840524908610846006940F01000086193
:1011B0001DB100204F49088002E0A5204D4908805C
:1011C0004FF43020FFF70FFE0446052C10D047489F
:1011D000006941F6EF7108404449086108E0052CB8
:1011E00006D04248006941F6DF7108403F49086176
:1011F000204630BDF0B505460E46174604243A4851
:101200003A4988603A488860E002FFF7ECFD0446FE
:10121000042C19D13548006940F0100033490861A9
:1012200047F0F800304328433249891C0880E00227
:10123000FFF7D9FD0446052C06D02C48006941F67D
:10124000EF710840294908612046F0BD2748C06970
:10125000800870472548006A7047002023490968C4
:1012600011F0200F01D0012000E00020704729B1CB
:101270001E4A126902431D4B1A6104E01B4A12699F
:1012800082431A4B1A61704701460020012908D198
:10129000164AD26912F0010F01D0012008E00020A7
:1012A00006E0124AD2680A4201D0012000E0002084
:1012B00070470E49C860704704200C49C96811F096
:1012C000010F01D001200EE00849C96811F0040F98
:1012D00001D0022007E00549C96811F0100F01D0C4
:1012E000032000E0042070472301674500200240EE
:1012F000AB89EFCD00F8FF1F10B50446CA48844201
:1013000008D10121042000F023FB0021042000F07B
:101310001FFB46E0C548844208D10121082000F0A7
:1013200017FB0021082000F013FB3AE0C04884427C
:1013300008D10121102000F00BFB0021102000F04B
:1013400007FB2EE0BB48844208D10121202000F099
:10135000FFFA0021202000F0FBFA22E0B648844288
:1013600008D10121402000F0F3FA0021402000F0D4
:10137000EFFA16E0B148844208D10121802000F044
:10138000E7FA0021802000F0E3FA0AE0AC4884424A
:1013900007D10121801500F0DBFA0021A01500F033
:1013A000D7FA10BD10B50121084600F0D1FA00218E
:1013B000012000F0CDFA10BD2DE9F04102460025D4
:1013C0000026002000230024002791F803C00CF021
:1013D0000F0591F803C01CF0100F03D091F802C064
:1013E0004CEA050591F800C0BCF1000F31D014683B
:1013F00000202BE04FF0010C0CFA00F3B1F800C014
:101400000CEA03069E4220D183004FF00F0C0CFA29
:1014100003F7BC4305FA03FC4CEA040491F803C04B
:10142000BCF1280F06D14FF0010C0CFA00FCC2F8F9
:1014300014C00AE091F803C0BCF1480F05D14FF089
:10144000010C0CFA00FCC2F810C0401C0828D1D3D3
:101450001460B1F800C0BCF1FF0F34DD5468002007
:101460002EE000F1080C4FF0010808FA0CF3B1F877
:1014700000C00CEA03069E4221D183004FF00F0CFE
:101480000CFA03F7BC4305FA03FC4CEA040491F898
:1014900003C0BCF1280F05D100F1080C08FA0CF8C4
:1014A000C2F8148091F803C0BCF1480F07D100F1D5
:1014B000080C4FF0010808FA0CF8C2F81080401C24
:1014C0000828CED35460BDE8F0814FF6FF7101804B
:1014D000022181700421C170704702460020936888
:1014E0000B4201D0012000E00020704701468868CF
:1014F00080B2704702460020D3680B4201D0012021
:1015000000E0002070470146C86880B27047016162
:101510007047416170470AB1016100E04161704765
:10152000C16070474FF480320A43826181618261F9
:1015300082698269704702460020424B18684FF664
:101540008073184040EA021008433E4B1860704711
:101550003D49C8617047F0B50A46002300240021C8
:10156000002500F00046B6F1004F02D1354EF1697A
:1015700001E0344E7168C0F3034583B200F44016B5
:10158000B6F5401F08D121F070612E4E766826F026
:1015900070662C4F7E6012E000F48016B6F5801F56
:1015A00006D1032606FA05F4A14341F0706106E076
:1015B000460D360103FA06F6B14341F0706122B1DF
:1015C000460D360103FA06F6314300F00046B6F147
:1015D000004F02D11B4EF16101E01A4E7160F0BD67
:1015E00030B500228B071C0F0F2303FA04F2154BB2
:1015F00008338C1053F824309343124C08348D1068
:1016000044F8253023468C1053F824308C07240FDF
:1016100000FA04F423430B4C08348D1044F82530B1
:1016200030BD0A490860704700080140000C0140C5
:10163000001001400014014000180140001C01404E
:10164000002001400000014000002042DC00204258
:10165000DB48006840F00100D9490860084640684E
:10166000D8490840D649486008460068D64908402D
:10167000D34908600846006820F4802008600846C6
:10168000406820F4FE0048604FF41F0088607047F7
:10169000CB49096821F48031C94A116011460968B3
:1016A00021F480211160B0F5803F03D0B0F5802F88
:1016B0000ED106E0C249096841F48031C04A116088
:1016C00007E0BF49096841F4A021BD4A116000E06C
:1016D00000BF00BF704710B5014600220023002064
:1016E0004A11012A02D1B64C236806E0022A02D12F
:1016F000B34C236A01E0B24C636A01F01F0201247B
:1017000094401C4201D0012000E0002010BD70B5C3
:1017100000240025002600BF3120FFF7DCFF06462D
:10172000641CB4F5A06F01D0002EF5D03120FFF776
:10173000D2FF08B1012500E00025284670BD014612
:1017400000209F4A106820F0F80040EAC1001060B5
:1017500070479E490860704702460020984B5868C1
:1017600020F47C1042EA01031843954B58607047FF
:1017700096490866704701460020914A506820F05B
:1017800003000843506070478D48406800F00C002B
:101790007047014600208A4A506820F0F000084354
:1017A0005060704701460020854A506820F4E06090
:1017B00008435060704701460020814A506820F479
:1017C000605040EAC1005060704729B17C4A527AAB
:1017D00002437B4B5A7204E0794A527A8243784B37
:1017E0005A7270477A490860704701460020744A6F
:1017F000506820F440400843506070470021754A0B
:1018000011706F4A82F82010012802D0042808D1F4
:1018100003E001216F4A117004E005216D4A117047
:1018200000E000BF00BF70476B4908607047644923
:10183000096A0143624A1162704767494439086086
:10184000704730B500210022002400235C4D6D68F4
:1018500005F00C0121B1042905D0082923D105E0A8
:101860005E4D056022E05D4D05601FE0544D6D68E2
:1018700005F47012524D6D6805F48034022505EBB5
:1018800092421CB9564D554305600BE04C4D6D68B6
:1018900015F4003F03D0524D5543056002E04F4D13
:1018A0005543056002E04D4D056000BF00BF444D4B
:1018B0006D6805F0F00109094A4D6B5C0568DD4073
:1018C00045603F4D6D6805F4E061090A454D6B5C6C
:1018D0004568DD4085603A4D6D6805F46051C90A80
:1018E000404D6B5C4568DD40C560354D6D6805F465
:1018F0004041890B3C4D6B5CC568B5FBF3F5056158
:1019000030BD29B12E4A526902432D4B5A6104E081
:101910002B4A526982432A4B5A61704729B1284A9F
:1019200092690243264B9A6104E0254A92698243F8
:10193000234B9A61704729B1214AD2690243204B57
:10194000DA6104E01E4AD26982431D4BDA617047B6
:1019500029B11B4AD2680243194BDA6004E0184AE5
:10196000D2688243164BDA60704729B1144A126973
:101970000243134B1A6104E0114A12698243104B6F
:101980001A61704714494039086070470F49C864AC
:1019900070470B49C87170470948406A40F0807031
:1019A00007494862704701460020054A92680A428A
:1019B00001D0012000E00020704701498872704783
:1019C000001002400000FFF8FFFFF6FE0000424258
:1019D000D8004242201002408004424200127A00A5
:1019E00000093D00140000202400002010B504462A
:1019F000BE48844208D101218014FFF7A9FF0021CD
:101A0000A014FFF7A5FF16E0B948844208D10121D0
:101A10000014FFF7AAFF00212014FFF7A6FF0AE039
:101A2000B448844207D10121C013FFF79EFF002173
:101A3000E013FFF79AFF10BD10B50022028802F4F0
:101A400041520B884C8823438C882343CC88234302
:101A50000C8923434C8923438C892343CC8923431A
:101A60001A430280838B4FF2FF74234083830B8AD7
:101A7000038210BD2DE9F04F85B005460C464FF0AE
:101A8000000902274FF000084FF0010B0026B24674
:101A9000A88B4FF240010840A88302202884B5F8A3
:101AA0001C90A068022801D100BF38E0A08810B9BE
:101AB0004FF0010B01E04FF0020B8D48854200D141
:101AC00000E000BF6846FFF7BCFEDDF800A0E0883C
:101AD000B0F5007F0AD14FEA1A2000EB80004000E9
:101AE000A168B0FBF1F0401D86B20BE04FEA4B104D
:101AF000BAFBF0F000EB80004000A168B0FBF1F011
:101B0000401D86B20A20B6FBF0F606F00108A6EBEF
:101B10000800C0F34F074FF6FF7000EA0828022FB5
:101B200001DBFF2F02DD02274FF00008E08840EACA
:101B3000080038432884A088A189084361880843A5
:101B40002188084340F4006040EA0909A5F81C9088
:101B500005B0BDE8F08F0021018041808180C18007
:101B6000018141818181C18107210182704700216A
:101B7000018041808180C1800221816000218181BA
:101B8000704721B1028842F04002028004E00288DE
:101B90004FF6BF731A400280704721B1828B42F426
:101BA0008062828304E0828B4FF6FF331A40828387
:101BB000704730B5002400230C110125A540ABB2BD
:101BC0001AB185881D43858002E085889D43858004
:101BD00030BD1AB183880B43838002E083888B4336
:101BE0008380704781817047014688897047A1F5DD
:101BF0007E42FF3A04D0028842F48072028004E000
:101C000002884FF6FF631A400280704721B1828834
:101C100042F00402828004E082884FF6FB731A408F
:101C20008280704702884FF2FF731A400280028858
:101C30000A4302807047018841F480510180704757
:101C400021B1028842F40052028004E002884DF67D
:101C5000FF731A400280704702460020012901D01C
:101C6000108B00E0908A70470146088A7047B1F5F2
:101C7000804F04D1028842F48042028004E002884E
:101C80004BF6FF731A40028070470246002013890A
:101C90000B4201D0012000E000207047CA430281BE
:101CA0007047F0B50246002000240023002501F013
:101CB0000F070126BE40B4B20B1101269E40B3B2FD
:101CC000968806EA03051689264202D00DB1012046
:101CD00000E00020F0BD10B5002201F00F04012348
:101CE000A3409AB2D343038110BD000000300140ED
:101CF00000380040003C004010B50446FE488442D5
:101D000008D10121C014FFF723FE0021E014FFF7E2
:101D10001FFEC4E0B4F1804F08D101210846FFF74F
:101D200024FE00210120FFF720FEB8E0F3488442A2
:101D300008D101210220FFF718FE00210220FFF741
:101D400014FEACE0EE48844208D101210420FFF7E4
:101D50000CFE00210420FFF708FEA0E0E9488442C1
:101D600008D101210820FFF700FE00210820FFF71D
:101D7000FCFD94E0E448844208D101211020FFF7E3
:101D8000F4FD00211020FFF7F0FD88E0DF488442D9
:101D900008D101212020FFF7E8FD00212020FFF7D6
:101DA000E4FD7CE0DA48844208D101214014FFF7C9
:101DB000CFFD00216014FFF7CBFD70E0D5488442D1
:101DC00009D10121C804FFF7C3FD00214FF4002011
:101DD000FFF7BEFD63E0D048844209D10121080528
:101DE000FFF7B6FD00214FF48010FFF7B1FD56E07C
:101DF000CA48844209D101214805FFF7A9FD002105
:101E00004FF40010FFF7A4FD49E0C548844208D113
:101E100001214020FFF7A9FD00214020FFF7A5FD8B
:101E20003DE0C048844208D101218020FFF79DFD9C
:101E300000218020FFF799FD31E0BB48844208D1A2
:101E400001218015FFF791FD0021A015FFF78DFD01
:101E500025E0B648844209D101210804FFF778FD46
:101E600000214FF48030FFF773FD18E0B048844242
:101E700009D101214804FFF76BFD00214FF4003028
:101E8000FFF766FD0BE0AB48844208D101218804CE
:101E9000FFF75EFD00214FF48020FFF759FD10BDD4
:101EA00000220288944B98420ED0994B98420BD056
:101EB000B0F1804F08D0914B984205D0904B98429A
:101EC00002D0904B984204D14FF68F731A404B8842
:101ED0001A438D4B984207D08C4B984204D04FF652
:101EE000FF431A40CB881A4302808B8883850B8876
:101EF0000385814B98420BD0854B984208D08B4B81
:101F0000984205D08A4B984202D08A4B984201D120
:101F10000B7A038601238382704770B50024002268
:101F20000023058C4FF6FE7635400584028C8388AD
:101F3000048B4FF68F752C40B51E2C400D882C431A
:101F4000751E2A400D892A434D882A436A4DA842AE
:101F50000BD06F4DA84208D0744DA84205D0744DE7
:101F6000A84202D0734DA84213D14FF6F7752A400C
:101F70004D892A434FF6FB752A408D882A434FF638
:101F8000FF652B404FF6FF552B408D892B43CD89A4
:101F90002B4383800483CD888586028470BD70B511
:101FA000002400220023058C4FF6EF76354005848F
:101FB000028C8388048B48F6FF752C404FF6FF4552
:101FC0002C400D884FF6FF7606EA05252C434FF688
:101FD000DF752A400D8906EA05152A434D8806EA71
:101FE00005152A43444DA84202D0494DA8421DD1AF
:101FF0004FF67F752A404D894FF6FF7606EA0515A4
:102000002A434FF6BF752A408D8806EA05152A43F4
:102010004FF6FF352B404FF2FF752B408D8906EAB6
:1020200085052B43CD8906EA85052B4383800483F0
:10203000CD880587028470BD70B50024002200237E
:10204000058C4FF6FF6635400584028C8388848BAF
:102050004FF68F752C404FF6FC752C400D882C43A5
:102060004FF6FF552A400D894FF6FF7606EA052503
:102070002A434D8806EA05252A431F4DA84202D06F
:10208000234DA8421DD14FF2FF752A404D894FF6CE
:10209000FF7606EA05252A434FF6FF352A408D884C
:1020A00006EA05252A434EF6FF752B404DF6FF75CF
:1020B0002B408D8906EA05152B43CD8906EA0515C7
:1020C0002B4383808483CD888587028470BD70B55F
:1020D000002200230024058C4EF6FF76354005844F
:1020E000038C8488828B48F6FF752A404FF6FF45A3
:1020F0002A400D8820E00000002C01400004004030
:1021000000080040000C0040001000400014004097
:1021100000340140004C0140005001400054014097
:1021200000180040001C004000200040004001401A
:1021300000440140004801404FF6FF7606EA0525BD
:102140002A434DF6FF752B400D8906EA05352B43D2
:102150004D8806EA05352B43FA4DA84202D0FA4DC8
:10216000A84208D14BF6FF752C408D894FF6FF76BB
:1021700006EA85152C4384808283CD88A0F84050E0
:10218000038470BD828B4FF2FF331A408283828BAF
:102190004FF6FF7303EA01231A4382837047F0B5B9
:1021A0000C461546002200210026078C4EF6FF7CC7
:1021B00007EA0C070784828B018C4FF6FF7707EA4A
:1021C000043640F6FF473A404FF6FF7707EA052707
:1021D0003A434FF6FF7707EA03373A43D94FB842FD
:1021E0000ED0D94FB8420BD0B0F1804F08D0D74FA6
:1021F000B84205D0D64FB84202D0D64FB84206D129
:102200004DF6FF77394046F48057394305E047F6ED
:10221000FF57394044F48057394382830184F0BD2D
:10222000828B4FF6F3731A408283828B0A43828338
:102230007047F0B50C461546002200210026078C99
:102240004FF6FF6C07EA0C070784828B018C4FF670
:10225000FF7707EA04264FF60C773A404FF6FF77F0
:1022600007EA03172F433A43B64FB8420ED0B64F92
:10227000B8420BD0B0F1804F08D0B44FB84205D06F
:10228000B34FB84202D0B34FB84206D14FF6FF5712
:10229000394046F48077394305E04FF2FF57394023
:1022A00044F48077394382830184F0BD028B4FF27E
:1022B000FF331A400283028B4FF6FF7303EA0123B8
:1022C0001A4302837047F0B50C46154600220021E0
:1022D0000026078C4FF6EF7C07EA0C070784028B79
:1022E000018C4FF6FF7707EA041640F6FF473A40A5
:1022F0004FF6FF7707EA03373A434FF6FF7707EACF
:1023000005273A438F4FB8420ED08F4FB8420BD0BB
:10231000B0F1804F08D08D4FB84205D08C4FB842F5
:1023200002D08C4FB84206D14FF6DF77394046F0E5
:102330001007394305E04FF65F77394044F0100746
:10234000394302830184F0BD028B4FF6F3731A40C8
:102350000283028B0A4302837047F0B50C46154690
:1023600000220021068C4FF6FE773E400684028B49
:10237000018C4FF60C7632407E1C06EA03162E4383
:102380003243704EB0420ED06F4EB0420BD0B0F11F
:10239000804F08D06D4EB04205D06D4EB04202D095
:1023A0006C4EB04206D14FF6FD76314044F0010646
:1023B000314305E04FF6F576314044F001063143F4
:1023C00002830184F0BD70B505460C465D48854228
:1023D0000ED05D4885420BD0B5F1804F08D05B48E8
:1023E000854205D05A48854202D05A48854200D1DC
:1023F00000E000BF208850B92389A2886188284660
:10240000FFF7ABFFE1882846FFF79EFF25E0208815
:1024100004280AD12389A28861882846FFF753FF40
:10242000E1882846FFF742FF17E0208808280AD1F4
:102430002389A28861882846FFF7FBFEE1882846A9
:10244000FFF7EEFE09E02389A28861882846FFF79E
:10245000A6FEE1882846FFF795FE70BD2DE9F04104
:1024600005460C4600260127608808B9022600E0D0
:102470000026A088012801D1022700E0012720883A
:10248000A0B92389A28861882846FFF766FFE18802
:102490002846FFF759FF23893A4631462846FFF779
:1024A00012FFE1882846FFF701FF13E02389A28885
:1024B00061882846FFF707FFE1882846FFF7F6FE08
:1024C00023893A4631462846FFF747FFE1882846E8
:1024D000FFF73AFFBDE8F0810A884B881A438B88E2
:1024E0001A43CB881A430B891A434B891A438B89A9
:1024F0001A43A0F8442070474FF6FF7181800021F5
:102500000180C180418001727047002101804180BB
:102510008180C180018141818181C1817047002119
:1025200001804180012181800021C18001817047AB
:102530000021018041808180C180018141818181B0
:1025400070470000002C01400034014000040040AE
:1025500000080040000C004021B1028842F0010256
:10256000028004E002884FF6FE731A400280704732
:1025700031B1B0F8442042F40042A0F8442005E014
:10258000B0F84420C2F30E02A0F8442070471AB1FC
:1025900083890B43838102E083898B438381704766
:1025A0008182704741EA0203A0F8483070471AB1AF
:1025B00083890B43838102E083898B438381704746
:1025C00001894FF6F8721140018170470A460021D7
:1025D00001894FF68F73194011430181704730B55F
:1025E00004460D4629462046FFF7F0FF208940F0BB
:1025F0000700208130BD2DE9F04104460D46164606
:102600001F46602D06D13B46012231462046FFF78A
:102610005AFE05E03B46012231462046FFF79DFE6B
:1026200029462046FFF7D2FF208940F0070020818D
:10263000BDE8F08130B50C4600210189C9B24FF6E2
:10264000FF7505EA0325154325432943018130BD64
:102650002DE9F04105460E461746984600244346AC
:102660003A4631462846FFF7E5FF2C894FF6F870C9
:10267000044044F007044FF68F70044044F07004A7
:102680002C81BDE8F081F0B504460D4616461F4684
:102690003B46324629462046FFF7CCFF208940F4CE
:1026A00080402081F0BD0185828270470A4600216A
:1026B00001884FF68F731940114301807047F0B5C0
:1026C0000C4615461E460021002200230189028B7C
:1026D000038C4FF6F877394021434FF6FC473A40D8
:1026E00040F201173A434FF6DD773B404FF6FF7754
:1026F00007EA06172F433B43018102830384F0BDA1
:102700000A460021018B4FF68F7319401143018354
:1027100070470A460021018B48F6FF7319404FF6B7
:10272000FF7303EA02231943018370470A4600211D
:10273000818B4FF68F7319401143818370470A468E
:102740000021818B48F6FF7319404FF6FF7303EAAF
:10275000022319438183704721B1028842F080022D
:10276000028004E002884FF67F731A4002807047AF
:1027700021B1828842F00402828004E082884FF610
:10278000FB731A408280704721B1828842F00802B0
:10279000828004E082884FF6F7731A408280704787
:1027A00021B1828842F00102828004E082884FF6E3
:1027B000FE731A40828070470A460021018B4FF653
:1027C000F77319401143018370470A460021018BBA
:1027D0004FF2FF7319404FF6FF7303EA02231943C8
:1027E000018370470A460021818B4FF6F773194029
:1027F0001143818370470A460021818B4FF2FF739A
:1028000019404FF6FF7303EA02231943818370478F
:102810000A460021018B4FF6FB73194011430183D7
:1028200070470A460021018B4FF6FF3319404FF6DF
:10283000FF7303EA02231943018370470A4600210C
:10284000818B4FF6FB7319401143818370470A4611
:102850000021818B4FF6FF3319404FF6FF7303EAD7
:1028600002231943818370470A460021018B4FF6EA
:102870007F7319401143018370470A460021018B81
:10288000C1F30E014FF6FF7303EA022319430183DC
:1028900070470A460021818B4FF67F731940114320
:1028A000818370470A460021818BC1F30E014FF6E8
:1028B000FF7303EA02231943818370470A4600210C
:1028C000018C4FF6FD7319401143018470470A468D
:1028D0000021018C4FF6F7731940114301847047B2
:1028E0000A460021018C4FF6DF7319404FF6FF7343
:1028F00003EA02131943018470470A460021018C40
:102900004FF67F7319404FF6FF7303EA0213194322
:10291000018470470A460021018C4FF6FF5319408D
:102920004FF6FF7303EA02231943018470470A46F6
:102930000021018C4FF2FF7319404FF6FF7303EA39
:1029400002231943018470470A460021018C4DF689
:10295000FF7319404FF6FF7303EA023319430184F2
:10296000704730B5002301248C40A3B2048C9C43F3
:102970000484048C02FA01F5ADB22C43048430BD0A
:1029800030B5002304248C40A3B2048C9C430484FF
:10299000048C02FA01F5ADB22C43048430BD70B54D
:1029A0000346002000241846183001258D40ACB2A3
:1029B0001D8CA5431D8409B1082909D100EB6100D4
:1029C000056825F0700505600568154305600EE093
:1029D0000D1FC5F34E052844056825F4E045056044
:1029E00005684FF6FF7606EA02263543056070BD9E
:1029F00021B1028842F00202028004E002884FF610
:102A0000FD731A400280704721B1028842F004022F
:102A1000028004E002884FF6FB731A400280704780
:102A200021B1828842F08002828004E082884FF6E1
:102A30007F731A408280704702884FF6F7731A40FE
:102A4000028002880A430280704782884FF68F73A3
:102A50001A40828082880A438280704702894FF63A
:102A6000F8731A40028102890A4302817047028981
:102A70004FF67F731A40028102890A430281704730
:102A800081847047818570478186704701877047D0
:102A900081877047A0F84010704702884FF6FF43C7
:102AA0001A40028002880A43028070470146888EDD
:102AB00070470146088F70470146888F704701466E
:102AC000B1F8400070470146888C70470146088D78
:102AD000704702460020138A0B4201D0012000E01B
:102AE00000207047CA430282704730B5024600207A
:102AF00000230024158A05EA0103958905EA0104EB
:102B000013B10CB1012000E0002030BDCA430282A5
:102B10007047000010B50446FB48844209D10121EA
:102B20008803FEF715FF00214FF48040FEF710FFE9
:102B300032E0F648844209D101214804FEF715FF2E
:102B400000214FF40030FEF710FF25E0F0488442EA
:102B500009D101218804FEF708FF00214FF48020ED
:102B6000FEF703FF18E0EB48844209D10121C804B5
:102B7000FEF7FBFE00214FF40020FEF7F6FE0BE00F
:102B8000E548844208D101210805FEF7EEFE002148
:102B90004FF48010FEF7E9FE10BD2DE9F04786B036
:102BA00005460E460024A24600BFA1460027B08974
:102BB00000B100BF2F462C8A4CF6FF700440F0880D
:102BC00004432C82AC894EF6F3100440B08831895E
:102BD0000843718908430443AC81AC8A4FF6FF4037
:102BE0000440B0890443AC8201A8FEF72AFEC6481F
:102BF000874202D1DDF810A001E0DDF80CA0A88921
:102C000010F4004F08D00AEBCA0000EB0A1031683C
:102C10004900B0FBF1F807E00AEBCA0000EB0A102C
:102C200031688900B0FBF1F86420B8FBF0F00401D2
:102C30002009642101FB1089A88910F4004F08D0F5
:102C4000322000EBC900B0FBF1F000F007000443B4
:102C500008E0322000EB09106421B0FBF1F000F035
:102C60000F0004432C8106B0BDE8F0874FF41651E5
:102C7000016000218180C18001810C2141810021FE
:102C80008181704710B502460020108A4FF2FF0381
:102C900018400B884C8823438C882343CC882343DB
:102CA0001843108210BD0021018041808180C180C5
:102CB000704721B1828942F40052828104E0828906
:102CC0004DF6FF731A4082817047F0B50346002429
:102CD000002600250020A1F510676A3F00D100BF43
:102CE0001846C1F3421401F01F06012707FA06F542
:102CF000012C01D10C3004E0022C01D1103000E095
:102D000014301AB107682F43076002E00768AF4329
:102D10000760F0BD1AB1838A0B43838202E0838A85
:102D20008B4383827047028A4FF6F0731A40028207
:102D3000028A0A430282704782894FF2FF731A4067
:102D4000828182890A438281704721B1828942F05F
:102D50000202828104E082894FF6FD731A4082816B
:102D60007047028A4FF6DF731A400282028A0A43D2
:102D70000282704721B1028A42F48042028204E05A
:102D8000028A4BF6FF731A4002827047C1F30802B1
:102D90008280704701468888C0F3080070478189A7
:102DA00041F0010181817047028BD2B20283028B14
:102DB00042EA012202837047028B02F47F420283BF
:102DC000028B0A430283704721B1828A42F02002BB
:102DD000828204E0828A4FF6DF731A408282704753
:102DE00021B1828A42F01002828204E0828A4FF688
:102DF000EF731A408282704721B1828A42F0080242
:102E0000828204E0828A4FF6F7731A40828270470A
:102E100021B1828942F40042828103E08289C2F3B7
:102E20000E028281704721B1828A42F4006282825E
:102E300004E0828A4FF2FF731A4082827047828ACE
:102E40004FF6FB731A408282828A0A43828270475D
:102E500021B1828A42F00202828204E0828A4FF625
:102E6000FD731A408282704702460020B1F5007F50
:102E700000D100BF13880B4201D0012000E00020E8
:102E8000704701F40072B2F5007F00D100BFCA4361
:102E90000280704770B50246002400230025002000
:102EA000A1F510666A3E00D100BFC1F3421501F0E2
:102EB0001F03012606FA03F3012D02D19689334040
:102EC00006E0022D02D1168A334001E0968A334093
:102ED0000C12012606FA04F41688344013B10CB122
:102EE000012000E0002070BD10B500220023A1F5F4
:102EF00010646A3C00D100BF0A1201249440A3B2BE
:102F0000DC43048010BD0000003801400044004054
:102F100000480040004C0040005000402DE9F04FB8
:102F2000B3B0C82101A80DF070F8002037237B2230
:102F30000121009008460AF0CBF9012037237B22BB
:102F4000014600902A200AF0A1F9FB4890F81A02E5
:102F500040B101202D2378222821009073200AF00F
:102F6000B7F907E001202D23782228210090732053
:102F70000AF08CF9F04890F81C0240B1012021239E
:102F800078222621009073200AF0A2F907E00120A0
:102F9000212378222621009073200AF077F9E64851
:102FA00090F81B0240B101201A2378221F210090C3
:102FB00073200AF08DF907E001201A2378221F21DF
:102FC000009073200AF062F9DC48806900287DD007
:102FD000DA48C0690028FAD0D8498969A1F1780097
:102FE0000FF00DFB82464FF06632D54B0FF06EFBB3
:102FF00080460022D34B0FF091F806460022D24BB8
:103000000FF028FB02D20020CF492AE0CB49896982
:10301000A1F178000FF0F3FA82464FF06632C84B08
:103020000FF054FB80460022C64B0FF077F806469F
:103030000022C64B0FF048FC02D20020C34910E02A
:10304000BE498969A1F178000FF0D9FA80464FF0A6
:103050006632BB4B0FF03AFB06460022B94B0FF02D
:103060005DF804460FF06EFAB9490860B349C969C2
:10307000A1F1A0000FF0C3FA8046B64AB64B0FF09C
:1030800025FB06460022B54B0FF048F88246002289
:10309000B34B0FF0DFFA02D20020B1492AE0A74972
:1030A000C969A1F1A0000FF0AAFA0646A94AAA4BE5
:1030B0000FF00CFB80460022A84B0FF02FF8824641
:1030C0000022A84B0FF000FC04D200E020E000201A
:1030D000A4490FE09949C969A1F1A0000FF08FFA46
:1030E00080469C4A9C4B0FF0F1FA064600229B4B0F
:1030F0000FF014F804460FF025FA9B4908600123ED
:10310000022208460168924800680AF0C3FA07E004
:1031100000230222944801688D4800680AF0BAFA38
:10312000012305221C2150200AF0BCF90AF00EF8F8
:10313000642004F026FF8DA20021032009F04CFB3F
:103140008B49B1F9020001A902F0FEFE01AA00219B
:103150000C2009F041FB87A20121032009F03CFB70
:103160008349B1F9000006A902F0EEFE06AA01218A
:103170000C2009F031FB80A20221032009F02CFB76
:103180007B49B1F904000BA902F0DEFE0BAA022173
:103190000C2009F021FB642004F0F3FE77A2032148
:1031A000084609F019FB7249B1F9060010A902F0AE
:1031B000CBFE10AA03210C2009F00EFB5E4890F80C
:1031C0001902012804D0022813D0032833D121E0AA
:1031D0006BA200212D2009F0FFFA574991F8140243
:1031E00001A902F0B1FE01AA0021462009F0F4FA7B
:1031F00027E065A200212D2009F0EEFA4E4991F852
:10320000140201A902F0A0FE01AA0021462009F043
:10321000E3FA16E05EA200212D2009F0DDFA46490E
:1032200091F8140201A902F08FFE01AA00214620A4
:1032300009F0D2FA05E058A200212D2009F0CCFABD
:1032400000BF00BF642004F09CFE3B4890F82400BF
:1032500028B954A200215A2009F0BEFA04E053A272
:1032600000215A2009F0B8FA642004F08AFE51A225
:103270000421032009F0B0FA2F49D1F8100210A957
:1032800002F062FE10AA0421142009F0A5FA4AA255
:103290000421202009F0A0FA642004F072FE47A265
:1032A0000521032009F098FA4549C8680FF0AEFEE1
:1032B000044615A902F048FE15AA0521142009F0BC
:1032C0008BFA3DA20521202009F086FA642004F043
:1032D00058FE3CA20621032009F07EFA164991F817
:1032E00028001AA902F030FE1AAA0621142009F0BB
:1032F00073FA31A20621202009F06EFA642004F04E
:1033000040FE31A20721032009F066FA0A4890F82E
:103310002500012805D12DA207210C2009F05CFA17
:1033200080E0054890F82500022857D129A20721FE
:103330000C2009F051FA75E06C1A002000180020EA
:103340006666D63F000054400080464000005E4064
:10335000100300201B2FDD240681C53F00003C40E8
:103360000000104000004A4014030020503A0000C2
:10337000581A0020523A0000543A0000593A00000E
:103380004F70743A000000005152203A00000000D3
:103390004750533A0000000042616420506F73654B
:1033A000000000002A6C6F636B2A00002A666C79AB
:1033B000212A000053523A002500000042523A00F0
:1033C0005015002042463A004D3A00004D756E6C93
:1033D00020000000416C742042000000FE4890F87C
:1033E0002500042805D1FDA207210C2009F0F4F9DD
:1033F00018E0F94890F82500032804D0F64890F822
:103400002500052805D1F7A207210C2009F0E4F9D1
:1034100008E0F6480078022804D1F5A207210C2024
:1034200009F0DAF9AFF2BC0201212D2009F0D4F93C
:10343000E94948680FF0EAFD04461FA902F084FD3F
:103440001FAA0121362009F0C7F9AFF2D8020121E5
:10345000452009F0C1F9E04908680FF0D7FD04469E
:1034600024A902F071FD24AA01214E2009F0B4F92B
:10347000AFF2F80201215D2009F0AEF9D649886863
:103480000FF0C4FD044629A902F05EFD29AA01211E
:10349000662009F0A1F9D8A207212D2009F09CF996
:1034A000CD4988690FF0B2FD04461FA902F04CFD1A
:1034B0001FAA0721362009F08FF9AFF24012072129
:1034C000452009F089F9C449C8690FF09FFD0446F9
:1034D0001FA902F039FD1FAA07214E2009F07CF92F
:1034E000C6A207215D2009F077F9BB49086A0FF0F1
:1034F0008DFD04461FA902F027FD1FAA07216620A3
:1035000009F06AF9BE4908680FF080FD04461FA95A
:1035100002F01AFD1FAA06212D2009F05DF9B9A2BB
:103520000621392009F058F9B54948680FF06EFDB9
:1035300004461FA902F008FD1FAA06213F2009F03A
:103540004BF933B0BDE8F08F70B50546AE49096858
:1035500001EB411148000FF095FD0646AB4841686C
:1035600030460FF0EFFB04460FF050FDA84908600D
:10357000A54948680FF086FD0646A448C168304654
:103580000FF0E0FB04460FF041FDA24908609E48A1
:10359000806838B10A4611789D4A10789EA209F0D9
:1035A0001BF906E09B4A1178994A10789BA209F012
:1035B00013F970BD10B5E4B004464FF4C871684605
:1035C0000CF023FD002008F050FF95A200210720F9
:1035D00009F002F98049D1F81C01694602F0B4FCF7
:1035E0006A460021242009F0F7F88FA20121072064
:1035F00009F0F2F87849D1F820010AA902F0A4FCF8
:103600000AAA0121242009F0E7F889A20221072053
:1036100009F0E2F87049D1F8240114A902F094FCF1
:1036200014AA0221242009F0D7F883A2042107203C
:1036300009F0D2F86849D1F82801694602F084FC03
:103640006A460421242009F0C7F87DA2052107203D
:1036500009F0C2F86049D1F82C010AA902F074FC03
:103660000AAA0521242009F0B7F877A2062107202D
:1036700009F0B2F85849D1F8300114A902F064FCFD
:1036800014AA0621242009F0A7F871A200214920DC
:1036900009F0A2F85049D1F83401694602F054FC0F
:1036A0006A460021662009F097F86BA201214920A3
:1036B00009F092F84849D1F838010AA902F044FC0F
:1036C0000AAA0121662009F087F865A20221492093
:1036D00009F082F84049D1F83C0114A902F034FC09
:1036E00014AA0221662009F077F85FA2042149207C
:1036F00009F072F83849D1F84001694602F024FC1B
:103700006A460421662009F067F859A2052149207C
:1037100009F062F83049D1F844010AA902F014FC1A
:103720000AAA0521662009F057F853A2062149206C
:1037300009F052F82849D1F8480114A902F004FC14
:1037400014AA0621662009F047F864B010BD30B510
:10375000E5B0054600244FF4C87101A80CF055FCF3
:10376000002008F082FE042445A20021072009F071
:1037700033F804EB4402444951F8220001A902F055
:10378000E3FB01AA0021242009F026F83FA2012131
:10379000072009F021F804EB44023B4901EB8201C8
:1037A00048680BA902F0D0FB0BAA0121242009F0E4
:1037B00013F838A20221072009F00EF804EB4402A6
:1037C000314901EB8201886815A902F0BDFB15AAF9
:1037D0000221242062E000006C1A0020416C742059
:1037E00053000000506F73202000000019090020D2
:1037F000536D617274000000583A00005A3A00009C
:10380000F40200203A00000098120020A4120020C8
:10381000180300201C0300202A0000002D000000D7
:103820005030313A000000004930313A00000000C9
:103830004430313A000000005030323A00000000BD
:103840004930323A000000004430323A00000000B3
:103850005030333A000000004930333A0000000095
:103860004430333A000000005030343A0000000089
:103870004930343A000000004430343A000000007F
:103880005030353A00000000881B00204930353A9E
:10389000000000004430353A0000000008F09CFFB2
:1038A0000524FEA20421072008F096FF04EB440241
:1038B000FC4951F8220001A902F046FB01AA0421AB
:1038C000242008F089FFF8A20521072008F084FFD2
:1038D00004EB4402F34901EB820148680BA902F0B2
:1038E00033FB0BAA0521242008F076FFF0A2062165
:1038F000072008F071FF04EB4402EA4901EB820162
:10390000886815A902F020FB15AA0621242008F0DA
:1039100063FF0624E8A20021492008F05DFF04EBC4
:103920004402E04951F8220001A902F00DFB01AA6E
:103930000021662008F050FFE1A20121492008F093
:103940004BFF04EB4402D74901EB820148680BA905
:1039500002F0FAFA0BAA0121662008F03DFFDAA274
:103960000221492008F038FF04EB4402CD4901EB65
:103970008201886815A902F0E7FA15AA02216620DB
:1039800008F02AFF0724D2A20421492008F024FFCE
:1039900004EB4402C34951F8220001A902F0D4FA11
:1039A00001AA0421662008F017FFCBA205214920B7
:1039B00008F012FF04EB4402BA4901EB82014868A7
:1039C0000BA902F0C1FA0BAA0521662008F004FF3A
:1039D000C3A20621492008F0FFFE04EB4402B149CE
:1039E00001EB8201886815A902F0AEFA15AA06213A
:1039F000662008F0F1FE65B030BD30B5E5B0054693
:103A000000244FF4C87101A80CF0FFFA002008F060
:103A10002CFD0824B4A20021072008F0DDFE04EBF1
:103A20004402A04951F8220001A902F08DFA01AA2E
:103A30000021242008F0D0FEADA20121072008F0CB
:103A4000CBFE04EB4402974901EB820148680BA9C5
:103A500002F07AFA0BAA0121242008F0BDFEA6A2EA
:103A60000221072008F0B8FE04EB44028D4901EB67
:103A70008201886815A902F067FA15AA022124209C
:103A800008F0AAFE09249EA20421072008F0A4FE43
:103A900004EB4402834951F8220001A902F054FAD0
:103AA00001AA0421242008F097FE97A205210720EF
:103AB00008F092FE04EB44027A4901EB8201486867
:103AC0000BA902F041FA0BAA0521242008F084FE7C
:103AD0008FA20621072008F07FFE04EB4402714903
:103AE00001EB8201886815A902F02EFA15AA0621B9
:103AF000242008F071FE0A2487A20021492008F042
:103B00006BFE04EB4402674951F8220001A902F060
:103B10001BFA01AA0021662008F05EFE80A20121A6
:103B2000492008F059FE04EB44025E4901EB820192
:103B300048680BA902F008FA0BAA0121662008F0D8
:103B40004BFE79A20221492008F046FE04EB440214
:103B5000544901EB8201886815A902F0F5F915AA0C
:103B60000221662008F038FE0B2471A204214920AE
:103B700008F032FE04EB44024A4951F8220001A940
:103B800002F0E2F901AA0421662008F025FE6AA2EB
:103B90000521492008F020FE04EB4402414901EBD5
:103BA000820148680BA902F0CFF90BAA0521662013
:103BB00008F012FE62A20621492008F00DFE04EB77
:103BC0004402384901EB8201886815A902F0BCF96A
:103BD00015AA0621662008F0FFFD65B030BD30B59E
:103BE000E5B0054600244FF4C87101A80CF00DFAA9
:103BF000002008F03AFC0C2453A20021072008F012
:103C0000EBFD04EB4402274951F8220001A902F020
:103C10009BF901AA0021242008F0DEFD4CA201211D
:103C2000072008F0D9FD04EB44021E4901EB820194
:103C300048680BA902F088F90BAA0121242008F09A
:103C4000CBFD45A20221072008F0C6FD04EB44028B
:103C5000144901EB8201886815A902F075F915AACB
:103C60000221242008F0B8FD0D243DA204210720E4
:103C700008F0B2FD04EB44020A4951F8220001A900
:103C800002F062F901AA0421242008F0A5FD36A261
:103C90000521072008F0A0FD6AE000005030363A08
:103CA00000000000881B00204930363A0000000068
:103CB0004430363A000000005030373A000000002F
:103CC0004930373A000000004430373A0000000025
:103CD0005030383A000000004930383A0000000007
:103CE0004430383A000000005030393A00000000FB
:103CF0004930393A000000004430393A00000000F1
:103D00005031303A000000004931303A00000000E4
:103D10004431303A000000005031313A00000000D8
:103D20004931313A000000004431313A00000000CE
:103D30005031323A000000004931323A00000000B0
:103D40004431323A000000005031333A00000000A4
:103D50004931333A000000004431333A000000009A
:103D60005031343A000000004931343A000000007C
:103D700004EB4402F84901EB820148680BA902F008
:103D8000E3F80BAA0521242008F026FDF3A2062162
:103D9000072008F021FD04EB4402EF4901EB82010A
:103DA000886815A902F0D0F815AA0621242008F089
:103DB00013FD0E24EBA20021492008F00DFD04EBB9
:103DC0004402E54951F8220001A902F0BDF801AA18
:103DD0000021662008F000FDE4A20121492008F03E
:103DE000FBFC04EB4402DC4901EB820148680BA9AF
:103DF00002F0AAF80BAA0121662008F0EDFCDDA272
:103E00000221492008F0E8FC04EB4402D24901EB0E
:103E10008201886815A902F097F815AA0221662088
:103E200008F0DAFC0F24D5A20421492008F0D4FCC4
:103E300004EB4402C84951F8220001A902F084F8B9
:103E400001AA0421662008F0C7FCCEA20521492062
:103E500008F0C2FC04EB4402BF4901EB8201486850
:103E60000BA902F071F80BAA0521662008F0B4FC3A
:103E7000C6A20621492008F0AFFC04EB4402B64973
:103E800001EB8201886815A902F05EF815AA0621E7
:103E9000662008F0A1FC65B030BD30B5E5B0054640
:103EA00000244FF4C87101A80CF0AFF8002008F00E
:103EB000DCFA1024B7A20021072008F08DFC04EBE7
:103EC0004402A54951F8220001A902F03DF801AAD7
:103ED0000021242008F080FCB0A20121072008F076
:103EE0007BFC04EB44029C4901EB820148680BA96E
:103EF00002F02AF80BAA0121242008F06DFCA9A2E7
:103F00000221072008F068FC04EB4402924901EB0F
:103F10008201886815A902F017F815AA0221242049
:103F200008F05AFC1124A1A20421072008F054FC37
:103F300004EB4402884951F8220001A902F004F878
:103F400001AA0421242008F047FC9AA20521072099
:103F500008F042FC04EB44027F4901EB820148680F
:103F60000BA901F0F1FF0BAA0521242008F034FC75
:103F700092A20621072008F02FFC04EB44027649A8
:103F800001EB8201886815A901F0DEFF15AA062160
:103F9000242008F021FC13248AA20621482008F0DE
:103FA0001BFC04EB44026C4901EB8201886815A9F3
:103FB00001F0CAFF15AA0621662008F00DFC65B0C5
:103FC00030BD00B5ADF5017D4FF4C87119A80CF0F6
:103FD0001CF87E4890F84A12642091FBF0F07C496E
:103FE00008707A4890F84A020A2190FBF1F078496B
:103FF000097801EBC10202EB0111A0EB81007449C9
:104000004870724890F84A02097801EBC10202EB4D
:104010000111A0EB81006E49497801EB8101A0EB11
:1040200041006B498870002037237B2201210090DA
:10403000084609F04DF901202E2314220321009097
:10404000084609F023F901202E237B22032100904A
:10405000162009F01BF95D4890F81A0240B10120C2
:104060002D23782228210090732009F031F907E0F0
:1040700001202D23782228210090732009F006F9D1
:10408000524890F81C0240B10120212378222621B9
:104090000090732009F01CF907E001202123782209
:1040A00026210090732009F0F1F8484890F81B028F
:1040B00040B101201A2378221F210090732009F0BB
:1040C00007F907E001201A2378221F2100907320AE
:1040D00009F0DCF83E48407801287FD13B48D0F811
:1040E00024023C4906900EF0F9FF01D239480EE057
:1040F0003648D0F824024FF07E5106900FF0EEF8CB
:1041000002D24FF07E5002E03048D0F824024FF047
:104110007E5107900EF084FE2F4908900FF012F8A0
:104120004FF0804109900EF07BFE15902748D0F8A3
:104130002802284906900EF0D1FF01D2254851E00F
:104140002248D0F828024FF07E5106900FF0C6F8B2
:1041500045D24FF07E5045E0881B00204431343A70
:10416000000000005031353A000000004931353A76
:10417000000000004431353A000000005031363A6A
:10418000000000004931363A000000004431363A60
:10419000000000005031373A000000004931373A42
:1041A000000000004431373A000000005031383A36
:1041B000000000004931383A000000004431383A2C
:1041C000000000004348203A000000006C1A002064
:1041D00054030020000080BF0000CA423CE0FE48BB
:1041E000D0F828024FF07E5107900EF019FEFB49DF
:1041F00008900EF0A7FF4FF0804109900EF010FEDE
:104200001690012303221921462009F04BF9169834
:1042100001460790F2480EF095FD08900EF012FF4F
:10422000099001200090482219214420099B09F09F
:104230004FF8159801460790EA480EF083FD089064
:104240000EF000FF09900120172300901B2146204B
:10425000099A09F03DF8BCE1DF4880690990DE4821
:10426000D0F83002089009990FF074F80A90DA48F3
:10427000C0690990D848D0F83402089009990FF025
:1042800069F80B900020189084E00AA9189851F85A
:104290002000002108900FF021F804D20AA91898F4
:1042A00051F8200005E00AA9189851F8200080F084
:1042B0000040CD4909900EF011FF05D2CA490FAA5E
:1042C000189842F8201061E00AA9189851F82000C7
:1042D000002108900FF002F804D20AA9189851F8AA
:1042E000200005E00AA9189851F8200080F000404D
:1042F000BE4909900EF0F2FE05D2BC490FAA1898EB
:1043000042F8201042E00AA9189851F82000002134
:1043100008900EF0E3FF04D20AA9189851F8200083
:1043200005E00AA9189851F8200080F00040B04933
:1043300009900EF0D3FE05D2AD490FAA189842F8A5
:10434000201023E00AA9189851F8200000210890B5
:104350000EF0C4FF04D20AA9189851F8200005E015
:104360000AA9189851F8200080F00040A14909904E
:104370000EF0B4FE05D29F490FAA189842F82010FB
:1043800004E09C490FAA189842F820101898401C85
:10439000C0B2189018980228FFF677AF8E48806850
:1043A00003900EF0A3FC944A944BCDE904010EF067
:1043B0008DF9CDE906010DF07DFDCDE908010DF087
:1043C0007BFE0E908448806803900EF08FFC8A4A32
:1043D0008A4BCDE904010EF079F9CDE906010DF023
:1043E000BFFDCDE908010DF067FE0D900B98079019
:1043F0000D990EF0A7FE09900A9807900E990EF0FD
:10440000A1FE089009990EF0A5FF12900B98079055
:104410000E990EF097FE09900A9807900D990EF0EC
:1044200091FE089009990EF08DFC13900F9880F082
:10443000004006900A980146059006980EF04EFF3F
:1044400003D20F9880F000400AE00F9806900A9877
:10445000059006990EF042FF01D20F9800E00A98ED
:1044600007900F980146069007980EF0D9FC644912
:1044700008900EF067FE4FF0804109900EF0D0FCDE
:104480001590109880F0004006900B98014605901A
:1044900006980EF023FF03D2109880F000400AE047
:1044A000109806900B98059006990EF017FF01D210
:1044B000109800E00B980790109801460690079816
:1044C0000EF0AEFC454908900EF03CFE4FF08041E6
:1044D00009900EF0A5FC16903F48806801900EF000
:1044E00005FC454A454BCDE902010EF0EFF8CDE958
:1044F00004010DF035FD0022424BCDE906010EF01E
:10450000E5F8CDE908010EF01DF87D90324880688D
:1045100001900EF0EBFB384A384BCDE902010EF06A
:10452000D5F8CDE904010DF0C5FC0022354BCDE9ED
:1045300006010EF0CBF8CDE908010EF003F87E90ED
:10454000012302221921462008F0ACFF012000902F
:104550007E98193009907D984630089002461921BE
:104560004620099B08F0FDFE1698014606901C485F
:104570000EF0E8FB07900EF065FD099015980146D6
:10458000069018480EF0DEFB07900EF05BFD01234D
:1045900002220890099909F07DF8169801460690C4
:1045A0000F480EF0CFFB07900EF04CFD09901598C8
:1045B000014606900B480EF0C5FB07900EF042FD39
:1045C00008900120009019214620DDE9082308F019
:1045D000C8FE0D48807819E06C1A002000002C42BB
:1045E0000000C84100008C420000A04000002041B3
:1045F0000000A041000020426519E25817B7913F22
:104600000000C6420000204054030020022873D15D
:10461000FE48006A0990FD48D0F8380208900999D0
:104620000EF098FE0C900C98002108900EF056FEAB
:1046300001D20C9802E00C9880F000404FF08041CD
:1046400009900EF04BFD03D24FF0804011903AE0FC
:104650000C98002108900EF041FE01D20C9802E067
:104660000C9880F00040EA4909900EF037FD02D224
:10467000E748119027E00C98002108900EF02EFEDC
:1046800001D20C9802E00C9880F00040E1490990BA
:104690000EF024FD02D2DF48119014E00C980021A6
:1046A00008900EF01BFE01D20C9802E00C9880F0EE
:1046B0000040D94909900EF011FD02D2D648119060
:1046C00001E0D5481190119880F0004006900C98B8
:1046D0000146059006980EF001FE03D2119880F075
:1046E00000400BE0119806900C98059006990EF08A
:1046F000F5FD02D2119801E034E00C980790119872
:104700000146069007980EF08BFBC44908900EF006
:1047100019FD4FF0804109900EF082FB17900123A4
:10472000032218210C2008F0BDFE179801460690C0
:10473000BB480EF007FB07900EF084FC0990179819
:1047400001460690B6480EF0FDFA07900EF07AFC8E
:1047500008900120009014220320DDE9081308F0DE
:1047600000FE43E0AF48807801283FD1A748D0F849
:104770002C02AD4906900EF0B1FC01D2AA480EE021
:10478000A248D0F82C024FF07E5106900EF0A6FD04
:1047900002D24FF07E5002E09C48D0F82C024FF03D
:1047A0007E5107900EF03CFB9C4908900EF0CAFC2D
:1047B0004FF0804109900EF033FB17900123032244
:1047C00018210C2008F06EFE1798014607909448B7
:1047D0000EF0B8FA08900EF035FC09900120009018
:1047E000142218210320099B08F072FD01202223C6
:1047F000052219460090032008F0B3FD01200E2386
:10480000052219460090032008F0ABFD0120222369
:10481000142219460090122008F0A3FD01200E2357
:10482000142219460090122008F09BFD08F08EFC1F
:104830007C488078022812D1119808900EF0E6FB8F
:1048400019A9099001F080FB19AA0321192007F08A
:10485000C3FF76A20321252007F0BEFF1BE07148AD
:104860008078012817D16948D0F82C027049079048
:104870000EF068FC08900EF0C9FB19A9099001F030
:1048800063FB19AA0321192007F0A6FF69A20321DF
:10489000252007F0A1FF63488078012830D15B48CC
:1048A000D0F82402624907900EF04CFC08900EF0FC
:1048B000ADFB19A9099001F047FB19AA0421642056
:1048C00007F08AFF5BA20421702007F085FF4F48A4
:1048D000D0F82802564907900EF034FC08900EF0EC
:1048E00095FB19A9099001F02FFB19AA03213C207F
:1048F00007F072FF51A20321482007F06DFF4EE040
:104900000F9808900EF082FB19A9099001F01CFB8A
:1049100019AA0421582007F05FFF44A20421642053
:1049200007F05AFF109808900EF070FB19A9099033
:1049300001F00AFB19AA03213C2007F04DFF3BA21E
:104940000321482007F048FF3DA20721522007F02D
:1049500043FF0B980590014604900EF0F3FB07907F
:104960000A980590014604900EF0ECFB069007991A
:104970000EF0E8F9089006F07BF909900EF046FB7E
:104980007F9019A97F9801F0DFFA19AA07216A2000
:1049900007F022FF25A20721762007F01DFF2AA29B
:1049A0000021032007F018FF184890F8480278B15A
:1049B000162807D0422811D125A20021242007F073
:1049C0000BFF18E024A20021242007F005FF12E0CD
:1049D00023A20021242007F0FFFE0CE00B4890F8F2
:1049E000480219A9099001F0AFFA19AA0021242060
:1049F00007F0F2FE00BF00BF1BA20121032007F059
:104A0000EBFE024890F8490219A931E06C1A002027
:104A10000000C040000040410000F04100002C4276
:104A20000000C04154030020000080BF6D00000062
:104A300000002041636D2F7300000000636D0000D3
:104A40004469733A000000004D61696E3A0000004D
:104A50004D6973730000000053616665000000003B
:104A600049646C6500000000537562533A00000011
:104A7000099001F069FA19AA0121242007F0ACFE7F
:104A8000FEA20021472007F0A7FEFD48007801287C
:104A900004D1FCA20021602007F09EFEF848407877
:104AA000022805D1F8A20021662007F095FE08E053
:104AB000F3484078012804D1F4A20021662007F0D1
:104AC0008BFEEF488078022805D1F1A200216C20EE
:104AD00007F082FE08E0EA488078012804D1EDA2C0
:104AE00000216C2007F078FEEB4890F828004BA9D5
:104AF000099001F029FA4BAA00216A2007F06CFE08
:104B0000E6A20021762007F067FEE5A201214720FA
:104B100007F062FEE04890F84B0223A9099001F0EB
:104B200013FA23AA0121702007F056FEDE48006820
:104B300008900EF06BFA55A9099001F005FA55AAF4
:104B40000721172007F048FEAFF2001207212320AB
:104B500007F042FED448406808900EF057FA55A975
:104B6000099001F0F1F955AA0721292007F034FE38
:104B70000DF5017D00BD10B504462146042009F065
:104B800054F8CA4801780078401CC84A10701429AB
:104B900006DD0020114608700021084608F0F8FEE6
:104BA00010BDCAB0C82115A80BF02FFA482003F099
:104BB00031F903F04AF903F0BEF907F073FC01F094
:104BC000ACF903F04BFD03F0C1FB06F058FBB8480D
:104BD0000178042003F0CDFA03F084FA04F0FDF824
:104BE00003F0EEFF002007F040FCB2A200210320FA
:104BF00007F0F2FDB3A203212B2007F01DFEB448FD
:104C0000007820B1B3A20721032007F0E5FDB048EA
:104C1000407820B1B2A20621032007F0DDFDB3A247
:104C20000521032007F0D8FD15A9A148007801F05F
:104C30008BF915AA0521322007F0CEFD44F620603D
:104C400003F084F9002007F010FC4721002009F050
:104C50002FF8022008F0BFFF09F0E0FA4FF47A7055
:104C600003F074F909F0A2F862B66BE3A248007889
:104C700020B10020A049087007F0F7FB9F4880781A
:104C8000012835D100209D49887003F0FDF810906F
:104C90000EF010FA9A4911900EF0C2F89949086086
:104CA000084600680F900EF021F8974A974BCDE91F
:104CB00010010DF009FE03D29548924908600EE0FC
:104CC000904800680F900EF011F8924A924BCDE98F
:104CD00010010DF0BFFC02D290488A49086003F031
:104CE0005EFE03F0BFFF87480068119004F06AFA87
:104CF0008248407901287DD10020804948710120F7
:104D000003F0C2F810900EF0D5F97D4911900EF025
:104D100087F87C494860084640680F900DF0E6FF30
:104D2000794A7F4BCDE910010DF0CEFD03D27D48CD
:104D3000744948600EE0734840680F900DF0D6FF4C
:104D4000714A794BCDE910010DF084FC02D277480D
:104D50006C4948607648006B09900DF0C7FF4FF032
:104D60006632744BCDE90A010DF094FACDE90C01DD
:104D70000DF0A2F911906E48C06A09900DF0B6FFCF
:104D80004FF066326B4BCDE90A010DF083FACDE9A5
:104D90000C010DF091F910906548806A09900DF0B2
:104DA000A5FF4FF06632634BCDE90A010DF072FAB0
:104DB000CDE90C010DF080F90F90524840685E4932
:104DC0005E4A5F4BCDE90532CDE907105D49119888
:104DD000CDE9010103910491109800905448806935
:104DE0000E90534840690D90514800690C900DA9F0
:104DF0000EC900E0E5E104F091FD5348006801466A
:104E000001904E4800680EF0A5FA0021029005F0CE
:104E1000D9FF80F0004003900DF068FF3A4A5242FB
:104E20004A4BCDE904010DF051FC494A494BCDE90B
:104E300006010DF04BFC0022474BCDE908010DF0B7
:104E400009FC02D200204449B5E03F480068014611
:104E500001903A4800680EF07DFA0021029005F0BA
:104E6000B1FF80F0004003900DF040FF264A52420F
:104E7000364BCDE904010DF029FC6FE052433A00B6
:104E80005403002041000000502000005620000084
:104E900048200000520000006C1A0020250000008D
:104EA0005761793A00000000F40200204803002016
:104EB000F0020020427920476F6C616365642D42E7
:104EC0004954200057656C636F6D65210000000038
:104ED000500300204E7266322E3447204F4B210083
:104EE0004D707539323530204F4B21004368616E6B
:104EF0006E6C653A000000000E0300208521002042
:104F000000247449CC1200207B14AE47E17A743F30
:104F10000AD7A33BFA7E6ABC7493583FA69BC43A57
:104F2000E17A843F0AD7233CE17A643F0AD7233BE6
:104F3000B815002066A64C40D0040020CC04002008
:104F4000C80400200000A041580300201E85F53F42
:104F50005839B4C876BEF33F008046C0FD4AFE4BC8
:104F6000CDE906010DF0B2FB0022FC4BCDE90801B2
:104F70000DF0AAFC02D20020F8491CE0F8480068B5
:104F800001460390F74800680EF0E4F90021049010
:104F900005F018FF80F0004005900DF0A7FEF24AE2
:104FA000F24BCDE906010DF091FBEA4AEA4BCDE95F
:104FB00008010DF08BFB0022E84BCDE90A010DF052
:104FC00069F90022EA4BCDE90C010DF07FFB0022CC
:104FD000E84BCDE90E010DF0A1F8CDE910010DF07F
:104FE000E1FAE5494880DE48406801460390E3481D
:104FF00000680EF0AFF90021049005F0E3FE059083
:105000000DF074FED84AD94BCDE906010DF05EFBD8
:105010000022DB4BCDE908010DF01CFB02D2002081
:10502000D74933E0CE48406801460390D348006832
:105030000EF090F90021049005F0C4FE05900DF0EB
:1050400055FEC94AC94BCDE906010DF03FFB0022D0
:10505000C24BCDE908010DF037FC02D20020BF4958
:1050600014E0BF48406801460590C44800680EF04F
:1050700071F90021069005F0A5FE07900DF036FEAF
:10508000B94ABA4BCDE908010DF020FB0022B34B21
:10509000CDE90A010DF0FEF80022B54BCDE90C0177
:1050A0000DF014FB0022B34BCDE90E010DF036F8E4
:1050B000CDE910010DF076FAAF4908800846408826
:1050C000B0F57A7F02DA4FF47A7009E0AA48408896
:1050D000B0F5FA6F02DD4FF4FA6001E0A6484088AF
:1050E00000B2A8494880A4480088B0F57A7F02DA67
:1050F0004FF47A7009E0A0480088B0F5FA6F02DD3D
:105100004FF4FA6001E09C48008800B29D49088095
:1051100099488088B0F57A7F02DA4FF47A7009E016
:1051200095488088B0F5FA6F02DD4FF4FA6001E02F
:105130009148808800B29349C8808F48C088B0F5F4
:105140007A7F02DA4FF47A7009E08B48C088B0F5B4
:10515000FA6F02DD4FF4FA6001E08748C08800B2C0
:10516000884988808848007938B18848006820B923
:1051700087480088401C86490880854800880DF0D3
:1051800055FA0022834BCDE910010DF09DFB16D29C
:1051900000207F4908808048806808B9012000E02D
:1051A00000207D4988606F4800686D490860734839
:1051B0000068486006F083F8052008F00CFD01F057
:1051C000CDFC7648807A012812D1022002F05CFEE4
:1051D00010900DF06FFF724911900DF021FE714992
:1051E000886006F09DFD07F003F800206B49887287
:1051F0006A48007D01280ED1032002F045FE109080
:105200000DF058FF664911900DF00AFE6549C8601F
:105210000020624908756148407E01280ED10420B3
:1052200002F032FE10900DF045FF5D4911900DF037
:10523000F7FD5C490861002058494876574890F8C6
:10524000320001287ED1052002F01EFE10900DF0E4
:1052500031FF534911900DF0E3FD524948610020A0
:105260004E4981F832005048007858B94F4890F8BC
:10527000240038B14FF07E504D49C860002088604E
:105280004860086048480078012806D1474890F8EF
:10529000240010B900204649C860444890F8240012
:1052A000414908704248C068002111900DF07AFE13
:1052B00012D03F48006910903A4840690F90109909
:1052C0000DF040FF11903A48806801461090119807
:1052D0000DF038FD36498860354880684FF07E51C2
:1052E00011900DF0FBFF13D23148806811903048C7
:1052F0004068109011990DF025FD2D494860084631
:1053000080684FF07E5111900EF024F82849886093
:1053100027484068274911900DF0E0FF10D224483B
:1053200000684FF07E5111900DF00CFD204908608F
:10533000084640681F4911900EF00CF81C4948605F
:10534000104800E0A9E3B0F90600B0F5E16F3EDDDA
:10535000194833E05839B4C876BEF33F0080464060
:1053600058030020CC04002085EB51B81E85F53F82
:1053700000407F400070974050150020C804002076
:10538000008046C0581A0020E003002008030020D7
:105390000C03002000007940981200208521002095
:1053A00000247449CC1200204A0300206C1A00200B
:1053B000F402002000007042F41200200088401C1B
:1053C000FE49088008468088401C888003E0002051
:1053D000FA4908808880FA48B0F90600B0F5966F5F
:1053E00009DAF6484088401CF44948800846C088DD
:1053F000401CC88003E00020F0494880C880F04885
:10540000B0F90400B0F5E16F09DDEC480089401CFB
:10541000EA49088108468089401C888103E0002011
:10542000E64908818881E648B0F90400B0F5966F36
:1054300009DAE2484089401CE04948810846C089B1
:10544000401CC88103E00020DC494881C881DB485A
:1054500040880F900DF0EAF80022DA4BCDE91001F8
:105460000DF032FA08D20020D44988804880D6480E
:105470000068401ED4490860D04800880F900DF0A5
:10548000D5F80022CF4BCDE910010DF01DFA08D25E
:105490000020CA49C8800880CB480068401CCA491F
:1054A0000860C64880880F900DF0C0F800224FF0C9
:1054B0008043CDE910010DF007FA0BD20020BF495F
:1054C00088804880C148806820B9C0480068401E74
:1054D000BE490860B948C0880F900DF0A7F80022B7
:1054E0004FF08043CDE910010DF0EEF90BD2002012
:1054F000B249C8800880B548806820B9B3480068C0
:10550000401CB2490860B248007948B1AB48008AF3
:10551000401CAA4908820846408A401C488203E091
:105520000020A64948820882A448008A0F900DF006
:105530007DF800224FF08043CDE910010DF0C4F951
:105540000AD200209D490882A048806808B901203D
:1055500000E000209D4988609848408A0F900DF037
:1055600065F800229B4BCDE910010DF0ADF934D266
:105570009548006888B3002090494882489020E010
:105580000020479016E0489800EB4001924800EB5D
:105590008101479851F82010489800EB40028E484E
:1055A000F03800EB8202479842F820104798401CE0
:1055B000C0B2479047980328E5DB4898401CC0B22A
:1055C000489048981228DBDB062008F004FB0120F5
:1055D0008249087000207D498860784880890F9052
:1055E0000DF024F800224FF08043CDE910010DF0BA
:1055F0006BF912D200207149888108817348806854
:1056000020B972484068401E704948606F48406841
:10561000032802D102206D4948606848C0890F9074
:105620000DF004F800224FF08043CDE910010DF099
:105630004BF912D200206149C881488163488068D3
:1056400020B962484068401C604948605F48406833
:10565000032802D104205D4948605C4800680128A5
:1056600002DD00205949086058480068002802DA25
:1056700001205649086055484068062802DD002090
:105680005249486051484068002802DA06204F49D4
:1056900048604D480068062802DD00204A4908603D
:1056A00049480068002802DA062047490860474850
:1056B0004068032803DA45480079129004E0434823
:1056C0000079001FC0B212904048006828B93F48D6
:1056D0004068032801DA002013903C48006828B98C
:1056E0003A484068032801DD0120139037480068DC
:1056F000012805D135484068032801DA02201390BB
:1057000032480068012805D130484068032801DD8F
:10571000032013902C480068A0F10100139911EBAD
:10572000800001D500200FE027480068401E139933
:1057300001EB8000142801DD142005E022480068F8
:10574000401E139901EB8000C0B28DF850001298F2
:10575000002801DA002005E01298022801DD02206D
:1057600000E012988DF851001848806828B314485A
:10577000B0F90400A0F2DC5007900DF083FC18494A
:10578000089005F01FFB09900DF0B0FA154A164B72
:10579000CDE90A010CF09AFFCDE90E019DF8500009
:1057A00000EB40010C4800EB81009DF8511050F8CF
:1057B00021000B900CF023FF18E09CE0F412002075
:1057C000581A0020000034400803002098120020DE
:1057D000E003002000003940881B00200809002059
:1057E000000048427B14AE47E17A843FCDE90C01CA
:1057F000DDE90E230CF092FCCDE910010CF0A2FEC5
:105800009DF8501001EB4102A54901EB82019DF882
:10581000512041F82200A348B0F90600A0F2DC5064
:1058200007900DF02FFCA049089005F0CBFA0990E5
:105830000DF05CFA9D4A9E4BCDE90A010CF046FF43
:10584000CDE90E019DF8500000EB4001944800EBBB
:1058500081009DF8511050F821000B900CF0CFFE04
:10586000CDE90C01DDE90E230CF058FCCDE9100167
:105870000CF068FE9DF8501001EB4102884901EBE5
:1058800082019DF8512041F822009DF8500000EB64
:105890004001834800EB81009DF8511050F8210031
:1058A000002801DA00201BE09DF8500000EB4001C9
:1058B0007B4800EB81009DF8511050F8210042F226
:1058C0000F71884201DD08460AE09DF8500000EBA8
:1058D0004001734800EB81009DF8511050F8210001
:1058E0009DF8501001EB41026D4901EB82019DF8DA
:1058F000512041F822006F480068072808D2DFE8ED
:1059000000F0040827466584A3006B48FDF706FBFA
:105910009EE06948FDF74EFE6748FDF715FE6748B3
:10592000006866490968491C644A11600F900CF0D0
:1059300066FE0022624BCDE910010CF0C5FF06D2D5
:1059400000205E49086001205E4981F829007FE05F
:105950005948FDF7FCFE5848FDF7F6FD574800682A
:1059600056490968491C554A11600F900CF047FED2
:105970000022534BCDE910010CF0A6FF06D2002007
:105980004E49086001204F4981F8290060E04A48EB
:10599000FEF733F84848FDF7D7FD48480068474907
:1059A0000968491C454A11600F900CF028FE00223E
:1059B000434BCDE910010CF087FF06D200203F4990
:1059C000086001203F4981F8290041E03A48FEF78C
:1059D00006F93948FDF7B8FD3848006837490968C5
:1059E000491C364A11600F900CF009FE0022344B1E
:1059F000CDE910010CF068FF06D200202F490860A5
:105A00000120304981F8290022E02B48FEF745FAB1
:105A10002948FDF799FD2948006828490968491C6B
:105A2000264A11600F900CF0EAFD0022244BCDE9CC
:105A300010010CF049FF06D2002020490860012027
:105A4000204981F8290003E01B48FEF7BAFA00BF9D
:105A500000BF1D488068012802D100201749086056
:105A60001A48007830B91348006818B10120154968
:105A700081F82900154800780E490968884202D04B
:105A80000020114988600B480078104908700A48C6
:105A9000FFF771F8084803F0B5F8FFF7E7B8000022
:105AA000881B0020581A0020000016439A999999E3
:105AB0009999C93F08030020CDCC4C3D4C030020F0
:105AC000000049406C1A0020981200204903002071
:105AD000704700BFFEE700BFFEE700BFFEE700BF64
