:020000040800F2
:1000000088F201205D2500082D2300082F23000819
:10001000392300083D2300084123000800000000A8
:100020000000000000000000000000004523000860
:100030004723000800000000458300089D250008B4
:100040007725000877250008772500087725000820
:100050007725000877250008772500087725000810
:100060007725000877250008772500087725000800
:1000700077250008772500087725000877250008F0
:1000800077250008772500087725000877250008E0
:1000900077250008772500087725000877250008D0
:1000A00077250008772500087725000877250008C0
:1000B00077250008772500087725000877250008B0
:1000C00077250008772500087725000877250008A0
:1000D0007725000805E800084DE90008CBEA00088C
:1000E0007725000877250008772500087725000880
:1000F0007725000877250008772500087725000870
:10010000772500087725000877250008772500085F
:100110001DEC000861ED0008772500087725000830
:10012000772500087725000877250008772500083F
:10013000772500087725000877250008772500082F
:10014000772500087725000877250008772500081F
:10015000772500087725000877250008772500080F
:1001600077250008772500087725000877250008FF
:1001700077250008772500087725000877250008EF
:10018000772500087725000800F002F800F05CF8F9
:100190000AA090E8000C82448344AAF10107DA45E2
:1001A00001D100F051F8AFF2090EBAE80F0013F0D8
:1001B000010F18BFFB1A43F001031847842D0300F9
:1001C000A42D03000A444FF0000C10F8013B13F07B
:1001D000070408BF10F8014B1D1108BF10F8015BA0
:1001E000641E05D010F8016B641E01F8016BF9D193
:1001F00013F0080F1EBF10F8014BAD1C0C1B09D1EA
:100200006D1E58BF01F801CBFAD505E014F8016B5B
:1002100001F8016B6D1EF9D59142D6D370470000ED
:100220000023002400250026103A28BF78C1FBD8FF
:10023000520728BF30C148BF0B6070471FB532F06E
:10024000A0FB1FBD10B510BD2EF0B4FD1146FFF789
:10025000F5FF01F0A1FF2EF0D2FD03B4FFF7F2FF8E
:1002600003BC2EF0D5FD00002DED088B86B036E2E4
:1002700001200AF09CFAFE4880ED000A0FF0F8FE1B
:10028000FB48D0ED000AB0EE600A10F0A1FDF8487E
:10029000D0ED000AB0EE600A0BF0EAFE002410E098
:1002A00004EB8400F34901EB40008079C4EB0411B6
:1002B00001EB8101F04A02EBC10181F82901601CC8
:1002C000C4B2042CECDBED4908880988491CEB4BCF
:1002D000198031F09FFF41EC180B9FEDE90B53ECB7
:1002E000102B32F0E5F87CD24FF6FA70E349088023
:1002F000E54890ED0C0A10EE101A084632F0D0FADC
:1003000041EC1B0B9FEDE10B53EC102B31F07AFD10
:1003100041EC1A0B31F088FC08EE100ADA4890ED37
:100320000B0A10EE101A084632F0BAFA41EC1B0B19
:100330009FEDD60B53EC102B31F064FD41EC1A0B02
:1003400031F072FC08EE900ACF4890ED0A0A10EEE8
:10035000101A084632F0A4FA41EC1B0B9FEDCB0BB0
:1003600053EC102B31F04EFD41EC1A0B31F05CFCDC
:1003700009EE100AC44890ED0F1AC648807A00EEC4
:10038000900AF8EE600A21EE201ABF4890F87D002E
:1003900000EE900AF8EE600A21EE201ABE480078BE
:1003A00000EE900AF8EE600A61EE200AF0EE604A74
:1003B000B54890ED0E1AB748807A00EE900AF8EE34
:1003C000600A21EE201AB04890F87D0000EE900AF5
:1003D000F8EE600A21EE201AAF48007800EE900A8D
:1003E00000E079E1F8EE600A61EE200AB0EE604AC2
:1003F000A54890ED0D1AA748807A00EE900AF8EE15
:10040000600A21EE201AA04890F87D0000EE900AC4
:10041000F8EE600A21EE201A9F48007800EE900A5C
:10042000F8EE600A61EE200AF0EE603A9648D0EDF0
:10043000060AB0EE603AD0ED050AF0EE602AD0ED83
:10044000040AB0EE602A8A48D0ED000AB0EE600AD5
:10045000924A93499348F0EE481AB0EE681AF0EECB
:10046000490A11F051FD884890ED040A10EE101A67
:10047000084632F015FA41EC190B9FED8B0B53EC4B
:10048000102B31F0BFFC41EC180B31F0CDFB039089
:100490007D4890ED050A10EE101A084632F000FA79
:1004A00041EC190B9FED800B53EC102B31F0AAFCA3
:1004B00041EC180B31F0B8FB0490734890ED060A3C
:1004C00010EE101A084632F0EBF941EC190B9FEDD3
:1004D000760B53EC102B31F095FC41EC180B31F0FE
:1004E000A3FB05909DED040A7148D0ED020A20EEB1
:1004F000200ADDED050A90ED011A00EEC10A8DED2E
:10050000000A9DED050AD0ED000A20EE200ADDED7F
:10051000030A90ED021A00EEC10A8DED010A90ED7A
:10052000020ADDED050A20EE200AD0ED000A9DED5D
:10053000031A00EE810AD0ED010A9DED041A00EEC7
:10054000810AF7EE000A30EE600A8DED020A554886
:1005500090ED000A574880ED7D0A514890ED000A61
:10056000B1EE400A534880ED7E0A4C4890ED000AF7
:10057000504880ED7F0A444890ED0A0A4D4880EDCE
:10058000800A414890ED0B0A4A4880ED810A3E48B6
:1005900090ED0C0A474880ED820A9DED000A10EEAE
:1005A000101A084632F07CF941EC1A0B9FED420B11
:1005B00053EC102B31F07EFE41EC190B31F034FB83
:1005C00008EE100A2A4890ED000AB0EE401A3C48A6
:1005D000D0ED000A3B48B0EE480A20F00BF89DED44
:1005E000010AB1EE400A10EE101A084632F058F92E
:1005F00041EC1A0B9FED300B53EC102B31F05AFEEF
:1006000041EC190B31F010FB08EE100A184890ED80
:10061000000AB0EE401A2A48D0ED000A2948001D11
:10062000B0EE480A1FF0E6FF9DED020A10EE101A28
:10063000084632F035F941EC1A0B9FED1F0B53ECD5
:10064000102B31F037FE41EC190B31F0EDFA08EECA
:10065000100A074890ED000AB0EE401A1848D0ED95
:10066000000A18480830B0EE480A1FF0C3FF2BE01C
:10067000240D00209AA80120E0D1012034000020A0
:10068000000000000000694044B301206666666611
:1006900066A64C4090B10120010000200405002016
:1006A000FC04002000050020000000000000B04015
:1006B00014B8012040DB01209A9999999999234017
:1006C0000400002064DD0120FE48D0ED000AB0EEF9
:1006D000600A13F094FA00BF052001F0B8FFC7E5E7
:1006E0002DED028B59E006200AF061F8F54880ED07
:1006F000060AF54908880988491CF34B198031F02E
:1007000089FD41EC180B1FED220B53EC102B31F03F
:10071000CFFE3FD24FF6FA70EB490880EB480078E5
:10072000C0B3E848D0ED060AB0EE600A1CF028FE1F
:10073000E74890ED090AE74880ED970AE14890ED17
:10074000060AE548D0ED000A30EE200A80ED000AE6
:10075000006832F0A5F841EC180B9FEDE00B53EC6C
:10076000102B31F0A5FE15D2DB4890ED000A1CF0ED
:100770009FFBD74890ED070AD64880ED950AD448EC
:1007800090ED080AD34880ED960A9FEDD60AD2482C
:1007900080ED000A0A2001F05AFFA4E72DED0C8B32
:1007A00000BFFDE300200AF002F8C64880ED040A0D
:1007B00090ED040A10EE101A084632F071F841EC80
:1007C0001B0B9FEDC90B53EC102B31F037FD02D200
:1007D0009FEDC50B1DE0BB4890ED040A10EE101A0A
:1007E000084632F05DF841EC1B0B9FEDC10B53EC5A
:1007F000102B31F05DFE02D29FEDBD0B09E0B14838
:1008000090ED040A10EE101A084632F049F841EC57
:10081000100BB0EE40AAF0EE60AA51EC1A0B31F0CA
:1008200003FA08EE100AB448007820B90120B24952
:10083000087014F074F8A74890F8820460B3AF48C9
:10084000007948B300251DE0AD4A681C02EB80002A
:1008500090ED000A10EE101A084632F021F841EC33
:100860001B0B9FEDA80B53EC102B31F023FD41EC3B
:100870001A0B31F0D9F9014605EB4502A34840F8BF
:1008800022106D1C042DDFDB0120A14948700021DE
:10089000904880F882141FE08E4890F88304012865
:1008A0000AD19648007938B1012099494870002151
:1008B000884880F883140FE0864890F88304022863
:1008C0000AD18E48007938B10120914948700870EA
:1008D0000021804880F883148E48807D00287CD0D9
:1008E0008C48B0F90400B0F57A7F02DA4FF47A70E0
:1008F0000BE08848B0F90400B0F5FA6F02DD4FF460
:10090000FA6002E08348B0F9040083498880814896
:10091000B0F9000000EE900AF8EEE00AB0EE600ACE
:10092000F0EE000A1BF0DFFABDEEC00A10EE100A6E
:1009300000B2794908807748B0F9020000EE900AC9
:10094000F8EEE00AB0EE600AF0EE000A1BF0CBFA17
:10095000BDEEC00A10EE100A00B26F4948806D4823
:10096000B0F9060000EE900AF8EEE00AB0EE600A78
:10097000F0EE000A1BF0B7FABDEEC00A10EE100A46
:1009800000B26549C8806348008908816148408990
:1009900048816048808988815E48C089C8815F48F5
:1009A00090ED000AB1EE400A10EE100A31F078FF27
:1009B00041EC1B0B5848B0F90400A0F2DC5000EEEB
:1009C000900AF8EEE00AB0EE600AF3EE090A1BF0B6
:1009D00043FA5248D0ED000A00E057E220EE200A28
:1009E00010EE104A204631F05BFF41EC1D0B9FEDED
:1009F0004C0B53EC102B31F005FA41EC1C0B53EC73
:100A00001B2B31F01BFC09D2444890ED000AB1EEDB
:100A1000400A10EE100A31F043FF87E03F480068BB
:100A200031F03EFF41EC1B0B3B48B0F90400A0F253
:100A3000DC5000EE900AF8EEE00AB0EE600AF3EE49
:100A4000090A1BF009FA3548D0ED000A20EE200A09
:100A500010EE104A204631F023FF41EC1D0B9FEDB4
:100A6000300B53EC102B31F0CDF941EC1C0B53EC57
:100A70001B2B31F01DFD04D22848006831F010FF17
:100A800054E02548B0F90400A0F2DC5000EE900AD2
:100A9000F8EEE00AB0EE600AF3EE090A1BF0DCF9AA
:100AA0001E48D0ED000A20EE200A10EE104A204623
:100AB00031F0F6FE41EC1B0B9FED190B53EC102BA4
:100AC00032E00000240D00203E0000200000002045
:100AD00078CB012040DB012040000020B81E85EBD0
:100AE00051B89E3F00000000FCA9F1D24D62503F7A
:100AF0009A9999999999A93F4700002090B10120AE
:100B0000C09701204A0C022B8716F13F58DE0120C6
:100B100044B3012018B0012078B20120D80B002086
:100B20000000000000408F4031F06CF941EC1A0BDE
:100B300031F07AF808EE900AFE48B0F90600A0F20B
:100B4000DC5000EE900AF8EEE00AB0EE600AF3EE38
:100B5000090A1BF081F9F848D0ED000A20EE200ABE
:100B6000F0EE409ADFEDF50A1BF076F9F448D0ED8F
:100B7000000AF1EE600AB4EEE00AF1EE10FA04D2D7
:100B800090ED000AB1EE400A3EE0EA48B0F90600F6
:100B9000A0F2DC5000EE900AF8EEE00AB0EE600A37
:100BA000F3EE090A1BF058F9E348D0ED000A20EEF5
:100BB000200AF0EE409ADFEDE10A1BF04DF9E04823
:100BC000D0ED000AB4EEE00AF1EE10FA02DD90ED8D
:100BD000000A19E0D748B0F90600A0F2DC5000EE98
:100BE000900AF8EEE00AB0EE600AF3EE090A1BF094
:100BF00033F9D148D0ED000A20EE200AF0EE409AF9
:100C0000DFEDCE0A1BF028F9B0EE409ACD4880ED1A
:100C1000119AC848B0F90000A0F2DC5000EE900A2A
:100C2000F8EEE00AB0EE600AF3EE090A1BF014F9E0
:100C3000C148D0ED000A20EE200AF0EE409ADFED28
:100C4000BF0A1BF009F9BE48D0ED000AF1EE600AB8
:100C5000B4EEE00AF1EE10FA04D290ED000AB1EE23
:100C6000400A3EE0B348B0F90000A0F2DC5000EECC
:100C7000900AF8EEE00AB0EE600AF3EE090A1BF003
:100C8000EBF8AD48D0ED000A20EE200AF0EE409AD5
:100C9000DFEDAA0A1BF0E0F8A948D0ED000AB4EE97
:100CA000E00AF1EE10FA02DD90ED000A19E0A14829
:100CB000B0F90000A0F2DC5000EE900AF8EEE00A75
:100CC000B0EE600AF3EE090A1BF0C6F89A48D0EDC0
:100CD000000A20EE200AF0EE409ADFED980A1BF0A1
:100CE000BBF8984880ED100AB0EE000A28EE800AA2
:100CF00080ED0F0A90ED100AF0EE000A20EE200AB7
:100D0000D0ED1E0AB8EE081A70EE810AB4EEE00AC1
:100D1000F1EE10FA06D290ED1E0AF8EE080A30EE57
:100D2000200A1FE0874890ED100AF0EE000A20EE3E
:100D3000200AD0ED1E0AB0EE081A70EE810AB4EE59
:100D4000E00AF1EE10FA06DD90ED1E0AF0EE080A58
:100D500030EE200A06E07B4890ED100AF0EE000A23
:100D600020EE200A774880ED180A90ED150AB5EEBE
:100D7000C00AF1EE10FA02DD90ED150A04E07148A8
:100D800090ED150AB1EE400A10EE101A084631F047
:100D900087FD41EC1A0B9FED6C0B53EC102B31F0DF
:100DA00087FB04D2674890ED750A80ED190A654803
:100DB00090ED0F0AB5EEC00AF1EE10FA0AD190EDEF
:100DC000110AB5EEC00AF1EE10FA03D1002180F845
:100DD0007A1403E001215B4880F87A145548B0F991
:100DE000080040F2DC5188424ADA594800688842DB
:100DF00046DD544890ED080AB5EEC00AF1EE10FA4F
:100E00003ED11FEDC80A80ED0F0A80EDE00ABCEE6E
:100E1000C00A10EE100AC0B24A4981F8AE0281F849
:100E2000AF0200242AE0BBEE090AC4EB041000EB79
:100E30008000484901EBC00080ED050A9FED460A9D
:100E4000C4EB041000EB800001EBC00080ED060A4B
:100E5000C4EB041101EB81013E4A02EBC100B0EE8C
:100E6000480A14F00AFF0120C4EB041101EB8101D0
:100E7000384A02EBC10181F82801641C042CD2DB42
:100E80002C48B0F9080032490860BBE23348007BC7
:100E900002284ED1324890ED000AB1EE400A10EE21
:100EA000100A31F0FDFC41EC1B0B2248B0F90400A4
:100EB000A0F2DC5000EE900AF8EEE00AB0EE600A14
:100EC000F3EE090A1AF0C8FF2548D0ED000A20EE1B
:100ED000200A10EE104A204631F0E2FC41EC1D0BD6
:100EE0001FEDF10B53EC102B30F08CFF41EC1C0B81
:100EF00053EC1B2B31F0A2F909D2194890ED000AEE
:100F0000B1EE400A10EE100A31F0CAFC6FE014484E
:100F1000006831F0C5FC41EC1B0B0648B0F9040039
:100F2000A0F2DC5000EE900AF8EEE00AB0EE600AA3
:100F300018E054E278B201200C0000203D0AD73FAF
:100F4000DC0B002040DB01209A9999999999B93FCF
:100F500050000020E0D1012000004D4390B101205D
:100F6000D80B0020F3EE090A1AF076FFFD48D0ED09
:100F7000000A20EE200A10EE104A204631F090FCC4
:100F800041EC1D0B9FEDF80B53EC102B30F03AFFAA
:100F900041EC1C0B53EC1B2B31F08AFA06D200E01B
:100FA00088E2F048006831F07BFC20E0F048B0F9BE
:100FB0000400A0F2DC5000EE900AF8EEE00AB0EE79
:100FC000600AF3EE090A1AF047FFE648D0ED000A7E
:100FD00020EE200A10EE104A204631F061FC41EC70
:100FE0001B0B9FEDE10B53EC102B30F00BFF41EC92
:100FF0001A0B30F019FE08EE900ADD48B0F9060031
:10100000A0F2DC5000EE900AF8EEE00AB0EE600AC2
:10101000F3EE090A1AF020FFD648D0ED000A20EEC0
:10102000200AF0EE409A5FED3B0A1AF015FFD24815
:10103000D0ED000AF1EE600AB4EEE00AF1EE10FA2B
:1010400004D290ED000AB1EE400A3EE0C848B0F983
:101050000600A0F2DC5000EE900AF8EEE00AB0EED6
:10106000600AF3EE090A1AF0F7FEC248D0ED000A52
:1010700020EE200AF0EE409A5FED500A1AF0ECFEE6
:10108000BD48D0ED000AB4EEE00AF1EE10FA02DD40
:1010900090ED000A19E0B648B0F90600A0F2DC5065
:1010A00000EE900AF8EEE00AB0EE600AF3EE090AEC
:1010B0001AF0D2FEAF48D0ED000A20EE200AF0EE82
:1010C000409A5FED620A1AF0C7FEB0EE409AB1EEA8
:1010D000490AAA4880ED110A9FEDA90A80ED100A7D
:1010E00090ED100AF0EE000A20EE200AD0ED1E0A64
:1010F000B8EE081A70EE810AB4EEE00AF1EE10FACA
:1011000006D290ED1E0AF8EE080A30EE200A1FE023
:101110009A4890ED100AF0EE000A20EE200AD0ED79
:101120001E0AB0EE081A70EE810AB4EEE00AF1EE83
:1011300010FA06DD90ED1E0AF0EE080A30EE200AE5
:1011400006E08E4890ED100AF0EE000A20EE200A2C
:101150008A4880ED180A8B484078E0B381480068DF
:1011600031F09EFB41EC1B0B9FED870B53EC102BDA
:1011700031F0A0F841EC1A0B30F056FD09EE900A60
:10118000F0EE690AB0EE680A1AF066FEF3EE040AA1
:1011900060EE200A794890ED0F0A00EE880A80ED93
:1011A0000F0A704890ED000AB1EE400A10EE100AE6
:1011B00031F076FB41EC1D0B9FED750B53EC102BC2
:1011C00031F078F841EC1B0B6C4890ED0F0A10EEF3
:1011D000101A084600E053E031F062FB41EC1C0BB2
:1011E00053EC1B2B31F02AF811D25E4890ED000A27
:1011F000B1EE400A10EE100A31F052FB41EC1B0B2D
:101200009FED630B53EC102B31F054F831E055484F
:10121000006831F045FB41EC1D0B9FED5D0B53EC7D
:10122000102B31F047F841EC1B0B544890ED0F0A9E
:1012300010EE101A084631F033FB41EC1C0B53EC56
:101240001B2B31F035F90CD24648006831F028FBF1
:1012500041EC1B0B9FED4E0B53EC102B31F02AF899
:1012600007E0464890ED0F0A10EE101A084631F0DC
:1012700017FB41EC1A0B30F0D7FC4049C86306E07D
:10128000B0EE000A28EE800A3C4880ED0F0A3B4889
:1012900090ED150AB5EEC00AF1EE10FA02DD90ED00
:1012A000150A04E0354890ED150AB1EE400A10EE3B
:1012B000101A084631F0F4FA41EC1A0B1FEDDE0B60
:1012C00053EC102B31F0F4F804D22C4890ED750A51
:1012D00080ED190A294890ED0F0AB5EEC00AF1EE2B
:1012E00010FA0AD190ED110AB5EEC00AF1EE10FA2B
:1012F00003D1002180F87A1403E001211F4880F80F
:101300007A142048407860B31E48007848B31B48E0
:1013100090ED080AB5EEC00AF1EE10FA72D19FED19
:10132000180A80ED0F0A80EDE00ABCEEC00A10EE4C
:10133000100AC0B2114981F8AE0281F8AF02002450
:101340004AE0BBEE090AC4EB041000EB800012492E
:1013500001EBC00080ED050A9FED100AC4EB0410FC
:101360001EE04FE0D80B00200000000000408F403E
:1013700078B201200C000020DC0B002040DB0120B3
:101380000000000060040020000000000000D03FCA
:10139000666666666666EE3FE0D1012000004D435A
:1013A00000EB800001EBC00080ED060AC4EB0411E5
:1013B00001EB8101FD4A02EBC100B0EE480A14F0D6
:1013C0005CFC0120C4EB041101EB8101F74A02EB44
:1013D000C10181F82801641C042CB2DB12E01FED6E
:1013E000180AF34880ED180A80ED110A80ED100A02
:1013F00080ED0F0ABCEEC00A10EE100AC1B2EC4834
:1014000080F87A14EB480179E94880F87B14B0EE53
:10141000480A19F0A7FDE84890ED000AB5EEC00AA9
:10142000F1EE10FA04D090ED000AE14880ED0F0AC9
:10143000DF4890F8C002012808D10220DC4981F879
:10144000C0024FF4FA7104200AF09EFAD84890F8CE
:10145000AE02002801DA002009E0D54890F8AE027B
:10146000012801DD012002E0D14890F8AE02D34905
:101470000870B0EE480A17F0DDFA022805D0CC4813
:1014800090F8C00208B90AF091FAC94991F8AE0281
:1014900007F0EAFF0020CA490870B0EE480A17F0CA
:1014A000AAFFB0EE480A09F029FD08F095FD0520D5
:1014B00001F0CDF8FFF776B996B0FBE3022009F012
:1014C00076F9C04880ED010ABF4800780B287DD22C
:1014D000DFE800F00653FDFCFBFAF9F8F7F6F5003B
:1014E000BA4800880A2190FBF1F000B21590002064
:1014F000089009900A900B90049005900690079030
:10150000B34890ED030ADFEDB30A20EE200ABDEEEA
:10151000C00A10EE100A00B2AD4991ED020ADFEDEB
:10152000AD0A20EE200ABDEEC00A10EE101A09B274
:10153000A64B9B881BB2159ACDE90032CDE902106B
:10154000A248808C4042C821484300B214909F4872
:10155000408B484300B213909C48008A404264216B
:10156000484300B212909948C088484300B2119095
:1015700012A90EC90DF074FD13E28D48D0F8B00029
:101580000D9031F08DF99FED940B53EC102BCDE9BC
:101590000E019DED0E0B51EC100B30F08BFE1FED8C
:1015A0008E0B53EC102BCDE910019DED100B51EC7F
:1015B000100B30F07FFECDE912019DED120B51ECC6
:1015C000100B30F0B3FD00B2159000E0F8E30020FE
:1015D000089009900A900146024603460B90744811
:1015E00090ED930ADFED7E0A20EE200ABDEEC00AE0
:1015F00010EE100A00B2CDE90532079104906C4854
:1016000090ED0D0ADFED760A20EE200ABDEEC00A4D
:1016100010EE100A01B2654A159892ED300ADFED1E
:10162000700A20EE200ABDEEC00A10EE102A12B297
:101630005E4B93ED180ADFED6A0A20EE200ABDEE3C
:10164000C00A10EE103A1BB2CDE90032CDE902011A
:10165000564890ED260ADFED620A20EE200ABDEE24
:10166000C00A10EE100A00B21490504890EDA00A83
:10167000DFED5B0A20EE200ABDEEC00A10EE100A74
:1016800000B21390494890ED0A0ADFED550A20EEAA
:10169000200ABDEEC00A10EE100A00B212904448B3
:1016A00090ED8F0ADFED4E0A20EE200ABDEEC00A53
:1016B00010EE100A00B2119012A90EC908E0E7E37B
:1016C0007FE3F8E261E2DBE16CE1E2E092E002E07C
:1016D0000DF0C6FC65E14348006831F0E1F89FED8C
:1016E000420B53EC102BCDE90C019DED0C0B51EC92
:1016F000100B30F0DFFDCDE90E019DED0E0B51EC2E
:10170000100B30F013FD00B215903048C08B0A2149
:1017100090FBF1F000B214902C48818A0A2091FBD2
:10172000F0F000B21390294840890A2190FBF1F0B3
:1017300000B212902548008890FBF1F000B21190A1
:101740000020089009900A9003460B9028491598AC
:1017500091ED000AF2EE040A20EE200ABDEEC00A66
:1017600010EE101A09B20022CDE90603CDE90421DA
:10177000DDE91123DDE91310CDE90023CDE90210E5
:101780001248408C00B210901048008B00B20F90AD
:101790000E48C08900B20E900C48808800B20D90AF
:1017A0000EA90EC90DF05CFCE5E30000E0D10120BC
:1017B00040DB01206004002018000020F804002015
:1017C00046000020240D00201C0000209AA80120C3
:1017D000C09701200000C8422D431CEBE2361A3F9F
:1017E00000007A44FC0400200000000000002440B7
:1017F000000500200020089009900A900B900490AA
:10180000059006900790FE4890ED7C0ABDEEC00A58
:1018100010EE100A01B2FA4890ED110ABDEEC00AAE
:1018200010EE100A00B20023F54A92ED750ABDEEE3
:10183000C00A10EE102A12B2CDE90023CDE9020150
:10184000EF4890ED190ABDEEC00A10EE100A00B282
:101850001590EB4890ED930A5FED1F0A20EE200AE9
:10186000BDEEC00A10EE100A00B21490E44890EDEC
:101870000D0A5FED250A20EE200ABDEEC00A10EE2B
:10188000100A00B213900022DDE914130DF0E8FBFA
:1018900071E30020089009900A9001460246034631
:1018A0000B90D74890EDF40A5FED360A20EE200A3F
:1018B000BDEEC00A10EE100A00B2CDE90532079164
:1018C0000490CF4890ED930A5FED3B0A20EE200A8A
:1018D000BDEEC00A10EE100A02B2C94890ED0D0A22
:1018E0005FED410A20EE200ABDEEC00A10EE100A9C
:1018F00001B2C34890ED1B0AF2EE040A20EE200A62
:10190000BDEEC00A10EE100A00B2BD4B93ED810A85
:10191000F2EE040A20EE200ABDEEC00A10EE103AE4
:101920001BB2CDE90030CDE90212B54890ED180A9E
:10193000D0ED1E0A30EE200AF2EE040A20EE200A54
:10194000BDEEC00A10EE100A00B21490AC4890ED43
:101950007B0AF2EE040A20EE200ABDEEC00A10EE69
:10196000100A00B21590A64890ED7E0AF2EE040A25
:1019700020EE200ABDEEC00A10EE100A00B213904D
:101980009F4890ED740AF2EE040A20EE200ABDEEA4
:10199000C00A10EE100A00B2129013A90EC90DF081
:1019A0005FFBE8E20020089009900A900146024699
:1019B00003460B90924890EDF40A5FED7A0A20EE10
:1019C000200ABDEEC00A10EE100A00B2CDE90532C1
:1019D000079104908A4890ED930A5FED7F0A20EE0C
:1019E000200ABDEEC00A10EE100A01B2844890ED44
:1019F0000D0A5FED850A20EE200ABDEEC00A10EE4A
:101A0000100A00B200237F4A92ED220A5FED8F0A8E
:101A100020EE200ABDEEC00A10EE102A12B2CDE967
:101A20000023CDE90201774890ED210A5FED970A86
:101A300020EE200ABDEEC00A10EE100A00B215908A
:101A4000704890ED250A5FED9D0A20EE200ABDEE5C
:101A5000C00A10EE100A00B214906A4890ED240AF1
:101A60005FEDA40A20EE200ABDEEC00A10EE100AB7
:101A700000B213900022DDE914130DF0F1FA7AE2BE
:101A80000020089009900A900146024603460B90F8
:101A90005D4890ED4C0A5FEDB10A20EE200ABDEEE4
:101AA000C00A10EE100A00B2CDE905320791049089
:101AB000564890ED4C0A5FEDB90A20EE200ABDEEC3
:101AC000C00A10EE100A02B2514890EDE20A5FED32
:101AD000BF0A20EE200ABDEEC00A10EE100A01B2C5
:101AE0004B4890ED4C0A5FEDC50A20EE200ABDEE92
:101AF000C00A10EE100A00B2464B93ED000A5FEDEB
:101B0000CB0A20EE200ABDEEC00A10EE103A1BB23E
:101B1000CDE90030CDE902123B4890ED4B0A5FED74
:101B2000D30A20EE200ABDEEC00A10EE100A00B261
:101B30001590364890ED4B0A5FEDDA0A20EE200A48
:101B4000BDEEC00A10EE100A00B21490304890EDBD
:101B5000E10A5FEDE00A20EE200ABDEEC00A10EEB9
:101B6000100A00B213902A4890ED4B0A5FEDE70A85
:101B700020EE200ABDEEC00A10EE100A00B212904C
:101B800013A90EC90DF06CFAF5E100200890099038
:101B90000A900146024603460B901B4890ED4C0A02
:101BA0005FEDF40A20EE200ABDEEC00A10EE100A26
:101BB00000B2CDE9053207910490144890ED4C0A2B
:101BC0005FEDFC0A20EE200ABDEEC00A10EE100AFE
:101BD00002B20F4890EDE20ADFED0F0A20EE200A74
:101BE000BDEEC00A10EE100A00B2094991ED4C0A90
:101BF000DFED090A20EE200ABDEEC00A0EE000006B
:101C000040DB012078CB0120E8D8012090D60120CC
:101C1000E0D10120200000200000C84210EE101A80
:101C200009B2FE4B93ED000A5FED050A20EE200A93
:101C3000BDEEC00A10EE103A1BB2CDE90031CDE97D
:101C40000202F74890ED040A5FED0D0A20EE200A2B
:101C5000BDEEC00A10EE100A00B21590F04890EDEB
:101C6000030A5FED130A20EE200ABDEEC00A10EE53
:101C7000100A00B21490EA4890ED020A5FED1A0AC9
:101C800020EE200ABDEEC00A10EE100A00B213903A
:101C9000E34890ED010A5FED200A20EE200ABDEE38
:101CA000C00A10EE100A00B2129013A90EC90DF06E
:101CB000D7F960E172E10020089009900A9001468E
:101CC000024603460B90D74890ED4C0A5FED2E0A72
:101CD00020EE200ABDEEC00A10EE100A00B2CDE9D7
:101CE000053207910490D04890ED4C0A5FED360A1A
:101CF00020EE200ABDEEC00A10EE100A01B2CB4859
:101D000090EDE20A5FED3C0A20EE200ABDEEC00A2B
:101D100010EE100A00B2C54A92ED4C0A5FED420A7D
:101D200020EE200ABDEEC00A10EE102A12B2BF4B00
:101D300093ED9E0A5FED480A20EE200ABDEEC00A30
:101D400010EE103A1BB2CDE90032CDE90201B748DE
:101D500090ED080A5FED500A20EE200ABDEEC00AA1
:101D600010EE100A00B21590AD4890ED030A5FED39
:101D7000560A20EE200ABDEEC00A10EE100A00B28C
:101D80001490AB4890EDE50ADFEDAA0A20EE200A98
:101D9000BDEEC00A10EE100A00B21390A44890EDF8
:101DA000E40ADFEDA40A20EE200ABDEEC00A10EE20
:101DB000100A00B2129013A90EC90DF051F9DAE021
:101DC000D8E00020089009900A900B9004900590AC
:101DD00006900790984890ED030A5FED710A20EE97
:101DE000200ABDEEC00A10EE100A01B2934890ED31
:101DF000120AF2EE040A20EE200ABDEEC00A10EE2E
:101E0000100A00B28D4A92ED090A5FED7D0A20EEBC
:101E1000200ABDEEC00A10EE102A12B2864B1B88B3
:101E2000854C24891B1B1BB2CDE90032CDE9020190
:101E30008148808800B21590804890ED0C0A5FEDD3
:101E40008A0A20EE200ABDEEC00A10EE100A00B287
:101E50001490774890ED8F0A5FED910A20EE200AEA
:101E6000BDEEC00A10EE100A00B21390704890ED5B
:101E70008B0A5FED970A20EE200ABDEEC00A10EE35
:101E8000100A00B2129013A90EC90DF0E9F872E021
:101E90000020089009900A900146024603460B90E4
:101EA000664890ED1D0ABDEEC00A10EE100A00B2A1
:101EB000CDE905320791049000235D4890ED820A38
:101EC000BDEEC00A10EE100A00B25C4991ED030AA3
:101ED000F2EE040A20EE200ABDEEC00A10EE101A3F
:101EE00009B2564A92ED080A5FEDB50A20EE200AC3
:101EF000BDEEC00A10EE102A12B2CDE90203CDE900
:101F000000214E4890ED070A5FEDBD0A20EE200A41
:101F1000BDEEC00A10EE100A00B21590474890EDD1
:101F20000E0A5FEDC30A20EE200ABDEEC00A10EED5
:101F3000100A00B21490414890ED1C0A5FEDCA0AE5
:101F400020EE200ABDEEC00A10EE100A00B2139077
:101F50003A4890ED0D0A5FEDD00A20EE200ABDEE62
:101F6000C00A10EE100A00B2129013A90EC90DF0AB
:101F700077F800E000BF00BF0DF0B6FC0DF0F7FFF2
:101F80002F4801780078401C2D4A1070002902DD8E
:101F90000020114608700A2000F059FBFFF78EBAA6
:101FA000284A1278052A04D10022274B1A80254B93
:101FB0001A70254A1288254B1B781A44224B1A8026
:101FC000204A1278521C1F4B1A70704770B52DEDC5
:101FD000028B04460D469FED1E0A07F050FB1D497B
:101FE000488B498B491C1B4B598330F013F941EC4A
:101FF000180B9FED190B53EC102B30F059FA02D24D
:102000000020144988770A4890F87F1490F87F04DC
:10201000401CC2B2064880F87F2421E02000002046
:10202000C0970120E8D8012090D60120E0D10120FE
:1020300040DB012000007A442CB8012078CB01203D
:10204000540000205800002030000020A400002090
:10205000CDCC4C3D18B001200000000000004440F1
:102060007D2902DD002180F87E141749B1F8A40013
:10207000B1F8A410491C144BA3F8A41030F0CAF80E
:1020800041EC180B9FED110B53EC102B30F010FAB4
:1020900003D200200C4981F8A3000E49C88BC98BDC
:1020A000491C0C4BD98330F0B5F841EC180B9FED6F
:1020B000070B53EC102B30F0FBF902D2002005493E
:1020C0004877BDEC028B70BD68A9012000000000BC
:1020D00000004E4048A901207FB50446002500BFFE
:1020E000002004F0A6FA794908604FF4807178481E
:1020F00004F09EFC7749086003A9002003F0FEFE6F
:102100007549086003F09AFC03A874A10022754B7E
:10211000CDE90021029002220A21084605F0E9FDDE
:102120007149086003A97048006805F074FF03A8AE
:102130006EA100226F4BCDE9002102900222052101
:102140000A2005F0D6FD6C49086003A96A480068BA
:1021500005F061FF06F0CEF805460223674A00212C
:10216000674805F08DF90323664A0021664805F0AB
:1021700087F90123654A0021654805F081F90423A8
:10218000644A0021644805F07BF9142005F0F8FB4F
:10219000284606F0B3F87FBD10B54FF4A06000F0FC
:1021A00081FAA82000F002FA08F047FB07F069F96D
:1021B00008F070FB322008F0ACF9322008F075F816
:1021C00007F023FA5321002009F07CFB4FF4E130A3
:1021D0000BF0E6FD4FF4E1300BF04FFE4FF4E13031
:1021E0000BF021FF4FF4E1300BF0B0FE4B480BF049
:1021F00087FF40F6B83008F0CEFA07F006FA06F08E
:1022000043FA642008F0C7FA0FF011FA642008F0CE
:10221000C2FA0FF0CDF9642008F0BDFA11F0B5FB59
:1022200008F06EFB3D480BF06BFF642008F0B3FA3A
:1022300009F025FD642008F0AEFA06F08DFB64205D
:1022400008F0A9FA36480178032009F077FC6420E9
:1022500008F0A1FA09F037FC642008F09CFA09F0B4
:10226000B4FF08F04DFB2F48007901280AD12D4812
:10227000007B012806D12B48007A18B1022009F012
:10228000E7F902E0012009F0E3F903F098FA1423DA
:10229000254A0021AFF2BF1005F0F2F803F0B6FBBB
:1022A000002010BD1CB50FE001A8002303221F2150
:1022B00000900948006803F087FF01AB00221F214E
:1022C0000548006804F0C0F8EEE700006000002058
:1022D0006C8001206400002068000020746D723161
:1022E00000000000A11F000824000020746D72325D
:1022F00000000000CD1F0008280000205C6B0120BA
:102300009D0700085C7F0120B91400085C3F002095
:10231000690200085CD50020E1060008A0860100E3
:102320006C00002090B101206880012070470120DE
:102330000549087000BFFEE700BFFEE700BFFEE7EB
:1023400000BFFEE7704770476D0000200CB500200D
:10235000019000907648006840F48030744908602D
:1023600000BF7348006800F4003000900198401CE2
:102370000190009818B90198B0F5A04FF1D16C48C0
:10238000006800F4003010B10120009001E000204E
:1023900000900098012846D165484030006840F020
:1023A00080506349403108606248006840F4404012
:1023B000604908605E48083000685D49083108607F
:1023C0000846006840F4004008600846006840F491
:1023D000A05008605848091F0860081F006840F0B6
:1023E0008070091F086000BF5148006800F000704D
:1023F0000028F9D040F20570504908604C48083078
:10240000006820F003004A49083108600846006867
:1024100040F00200086000BF45480830006800F046
:102420000C000828F8D10CBD10B54548006840F4F0
:102430007000434908603E48006840F001003C4994
:10244000086000203A4908310860394800683D4971
:102450000840374908603C48091D0860081F0068AB
:1024600020F48020091F0860002031490C310860E9
:10247000FFF76CFF4FF0006031498039086010BDF4
:1024800070B500200022022300240221284D0835C7
:102490002D6805F00C0020B1042806D0082834D19E
:1024A00007E02A4D2A4E356033E02A4D284E35602C
:1024B0002FE01F4D2D1D2D68C5F380541C4D2D1D83
:1024C0002D6805F03F0154B1224DB5FBF1F5184ED2
:1024D000361D3668C6F3881605FB06F209E01B4D6B
:1024E000B5FBF1F5124E361D3668C6F3881605FBAE
:1024F00006F20F4D2D1D2D68C5F301456D1C6B00B7
:10250000B2FBF3F5124E356003E0104D104E35600E
:1025100000BF00BF064D08352D68C5F303150E4EEC
:10252000705D0B4D2D68C540094E356070BD0000D3
:10253000003802400070004008544007003C024050
:1025400088ED00E0FFFFF6FE103000240024F400C8
:102550007000002000127A007400002009488047B3
:1025600009480047FEE7FEE7FEE7FEE7FEE7FEE775
:10257000FEE7FEE7FEE7FEE704480549054A064B8D
:1025800070470000292400088901000888EC012018
:1025900088F2012088EE012088EE012010B503F0BA
:1025A00026F903F06AFA03F03DF910BD70B5044650
:1025B0006FF0040000F0C8F8E11704EB5171C1F3AB
:1025C000C701344A1170E11704EB5171CD1041F28B
:1025D000883045430520304908804FF0E0200069ED
:1025E00040F002004FF0E0210861084645610069B3
:1025F00040F00100086170BD2DE9F0470746002654
:102600004FF0E020D0F814902248007807FB00F843
:1026100000BF03F03FF94FF0E020856911E04FF073
:10262000E0208469AC420CD0AC4202D2281B0644A4
:1026300003E0A9EB0400284406442546464500D3A0
:1026400000E0ECE700BF03F06AF9BDE8F08770B581
:10265000044612480078012814D11148007888B93E
:102660000D480088844206DB0B48008894FBF0F597
:10267000284605F04DFA0848008894FBF0F100FB6D
:10268000114084B24FF47A7104FB01F0FFF7B4FFFC
:1026900070BD00008400002086000020BE000020E5
:1026A000B200002032490143324A1160704770B5D0
:1026B000002100230F22C4781CB32E4C246804F49C
:1026C000E064C4F5E064C4F30721C1F10404E3B29B
:1026D0000A4144789C40E1B28478144021430C07BD
:1026E000210E254C05786155047804F01F0501245E
:1026F000AC4005786D11AD0005F1E025C5F800414D
:1027000009E0047804F01F050124AC401B4D067855
:10271000761145F8264070BD194A0A400243154B10
:102720001B1F1A60704739B1124A121D126802430A
:10273000104B1B1D1A6006E00E4A121D12688243E0
:102740000C4B1B1D1A607047042808D14FF0E02184
:10275000096941F004014FF0E022116107E04FF0F8
:10276000E021096921F004014FF0E0221161704776
:102770000000FA050CED00E000E400E080E100E07C
:1027800080FFFF1F10B504469848844208D10121FC
:10279000084600F086FB0021012000F082FB76E075
:1027A0009348844208D10121022000F07AFB0021E5
:1027B000022000F076FB6AE08E48844208D10121B5
:1027C000042000F06EFB0021042000F06AFB5EE0B4
:1027D0008948844208D10121082000F062FB0021D1
:1027E000082000F05EFB52E08448844208D10121B9
:1027F000102000F056FB0021102000F052FB46E0B4
:102800007F48844208D10121202000F04AFB0021AA
:10281000202000F046FB3AE07A48844208D10121AA
:10282000402000F03EFB0021402000F03AFB2EE06B
:102830007548844208D10121802000F032FB00213C
:10284000802000F02EFB22E07048844208D1012154
:10285000801500F026FB0021A01500F022FB16E0F9
:102860006B48844208D10121401500F01AFB002179
:10287000601500F016FB0AE06648844207D101218A
:10288000001500F00EFB0021201500F00AFB10BD22
:10289000F0B50A4600210023002400BF3DE00125D9
:1028A00005FA01F3156805EA03049C4234D1056872
:1028B0004F000326BE40B543056015794E00B54074
:1028C0000668354305601579012D02D01579022D72
:1028D00016D185684F000326BE40B5438560557903
:1028E0004E00B540866835438560456801268E40B8
:1028F000B5434560456896798E40B6B2354345602C
:10290000C5684F000326BE40B543C560D5794E006B
:10291000B540C6683543C560491C1029BFD3F0BD1A
:102920004FF6FF7101600021017141718171C17128
:10293000704708B54FF480320092009A0A43009223
:10294000009AC261C161009AC261C2690092C26903
:10295000009208BD0246002013690B400BB1012014
:1029600000E0002070470146086980B270470246C7
:10297000002053690B400BB1012000E0002070479C
:102980000146486980B270470183704741837047B0
:102990000AB1018300E04183704741617047426999
:1029A0004A4042617047F0B5002300244D07ED0E08
:1029B00002FA05F3CE1000F1200555F826504E0717
:1029C000F70E0F26BE40B543CF1000F1200646F8A3
:1029D0002750CE1000F1200555F8265045EA030493
:1029E000CE1000F1200545F82640F0BD0000024061
:1029F0000004024000080240000C024000100240A7
:102A00000014024000180240001C02400020024056
:102A10000024024000280240F948006840F001000C
:102A2000F74908600020F64908310860F44800685A
:102A3000F4490840F2490860F348091D0860F3486A
:102A4000EF4984310860F0481038091D0860EC48EF
:102A5000006820F48020EA4908600020E8490C3131
:102A60000860E7498C31086070470021E44A921CF5
:102A7000117011460870704710B5014600220023FE
:102A800000204A11012A02D1DD4C236808E0022A05
:102A900003D1DB4C7034236802E0D94C74342368D2
:102AA00001F01F02012494401C400CB1012000E001
:102AB000002010BD38B5002000900024002500BF84
:102AC0003120FFF7D9FF05460098401C0090009880
:102AD000B0F5A04F01D0002DF2D03120FFF7CCFF90
:102AE00008B1012400E00024204638BD0146002042
:102AF000C34A106820F0F80040EAC1001060704737
:102B0000C349086070470021BD4A703211701170CE
:102B1000012802D004280AD104E00121B84A703209
:102B2000117005E00521B64A7032117000E000BF57
:102B300000BF7047B7490860704770B5049C41EA10
:102B400082150126C6EB530645EA0645054345EACC
:102B50000465AB4E361D356070BDAD4908667047E3
:102B6000820142EA0172A64B84331A607047A84979
:102B70008866704710B5830143EA016343EA027334
:102B80009F4C8834236010BDA14908677047A04955
:102B9000C864704702460020994B0833186820F03B
:102BA000EC6042EA01031843954B08331860704704
:102BB00002460020924B0833186820F0784042EA21
:102BC000010318438E4B08331860704701460020FC
:102BD0008B4A0832106820F00300084310607047E9
:102BE00087480830006800F00C007047014600205C
:102BF000834A0832106820F0F000084310607047E4
:102C0000014600207E4A0832106820F4E050084354
:102C10001060704701460020794A0832106820F49D
:102C2000604040EAC10010607047F0B5002100220A
:102C30000024022500260223714F08373F6807F061
:102C40000C0121B1042905D0082937D105E0724FC4
:102C5000076036E0714F076033E0694F3F1D3F6802
:102C6000C7F38056664F3F1D3F6807F03F036EB1C4
:102C70006A4FB7FBF3F7DFF888C10CF1040CDCF8FE
:102C800000C0CCF3881C07FB0CF40CE0624FB7FBD0
:102C9000F3F7DFF86CC10CF1040CDCF800C0CCF3E6
:102CA000881C07FB0CF4564F3F1D3F68C7F30147D4
:102CB0007F1C7D00B4FBF5F7076002E0564F07600C
:102CC00000BF00BF4E4F08373F6807F0F001090909
:102CD000534F7A5C0768D7404760494F08373F68D1
:102CE00007F4E051890A4E4F7A5C4768D740876005
:102CF000434F08373F6807F46041490B484F7A5CFF
:102D00004768D740C760F0BD002100F44072B2F5BB
:102D1000407F0AD13A4A0832116821F4F811414A39
:102D200002401143364A08321160354A7032126847
:102D3000C0F30B031A43324B70331A6070473549A6
:102D40004439086070473349403908607047364954
:102D50000860704701460020294A8C32106820F034
:102D60001F004A1E1043264A8C32106070470146ED
:102D70000020234A8C32106820F4F8504A1E40EAA2
:102D800002201F4A8C3210607047014600201C4A06
:102D90008C32106820F440100843106070470146E0
:102DA0000020174A8C32106820F44000084310605D
:102DB000704701460020124A8C32106820F44030DF
:102DC00008431060704719490860704739B10C4AD0
:102DD0003032126802430A4B30331A6006E0084A68
:102DE000303212688243064B30331A607047F9B1B3
:102DF000034A343212680243014B34331A601CE038
:102E000000380240FFFFF6EA1030002400300020B6
:102E100000004742800E47420024F40000127A006E
:102E200088000020FFFCFF0F5C014742E011474291
:102E30008F4A126882438E4B1A60704739B18C4AB0
:102E4000121D126802438A4B1B1D1A6006E0884A55
:102E5000121D12688243864B1B1D1A60704739B1E0
:102E6000834A0C3212680243814B0C331A6006E02D
:102E70007F4A0C32126882437D4B0C331A607047D4
:102E800039B17B4A103212680243794B10331A6011
:102E900006E0774A103212688243754B10331A608D
:102EA000704739B1724A243A12680243704B243B8E
:102EB0001A6006E06E4A243A126882436C4B243B47
:102EC0001A60704739B16A4A203A12680243684B67
:102ED000203B1A6006E0664A203A12688243644B3F
:102EE000203B1A60704739B1614A1C3A12680243AC
:102EF0005F4B1C3B1A6006E05D4A1C3A1268824335
:102F00005B4B1C3B1A60704739B1594A143A12683E
:102F10000243574B143B1A6006E0554A143A1268B4
:102F20008243534B143B1A60704739B1504A103AF0
:102F3000126802434E4B103B1A6006E04C4A103AAE
:102F4000126882434A4B103B1A60704739B1484AB5
:102F50001C3212680243464B1C331A6006E0444A96
:102F60001C3212688243424B1C331A60704739B1DD
:102F70003F4A2032126802433D4B20331A6006E07C
:102F80003B4A203212688243394B20331A60704723
:102F900039B1374A243212680243354B24331A6060
:102FA00006E0334A243212688243314B24331A60DC
:102FB000704739B12E4A2C32126802432C4B2C3305
:102FC0001A6006E02A4A2C3212688243284B2C33BE
:102FD0001A60704739B1264A303212680243244BD6
:102FE00030331A6006E0224A303212688243204BA6
:102FF00030331A607047012808D11D493C310968F7
:1030000041F008011A4A3C32116007E018493C318E
:10301000096821F00801164A3C321160704739B145
:10302000134A273A12780243114B273B1A7006E0E5
:103030000F4A273A127882430D4B273B1A7070478C
:103040000B484030006840F080700949403108600A
:10305000704701460020064A283A12680A400AB121
:10306000012000E0002070470149263908707047B0
:103070003438024010B50446FA48844208D1012190
:103080001020FFF752FF00211020FFF74EFF57E0FE
:10309000F548844209D101214804FFF735FF00219A
:1030A0004FF40030FFF730FF4AE0F048844209D186
:1030B00001218804FFF728FF00214FF48020FFF74B
:1030C00023FF3DE0EA48844209D10121C804FFF70B
:1030D0001BFF00214FF40020FFF716FF30E0E5480A
:1030E000844209D101210805FFF70EFF00214FF4AA
:1030F0008010FFF709FF23E0DF48844208D1012157
:103100002020FFF712FF00212020FFF70EFF17E01D
:10311000DA48844209D101218807FFF7F5FE002132
:103120004FF08040FFF7F0FE0AE0D548844207D117
:1031300001214005FFF7E8FE00216005FFF7E4FEEE
:1031400010BD2DE9FF4705460E460024A14600BFED
:10315000A046B08900B100BF2C8A24F44054F08806
:1031600004432C82AC8941F20C608443B0883189DD
:103170000843718908430443AC81AC8A24F4407449
:10318000B0890443AC826846FFF74FFDB5488542DD
:1031900002D0B948854202D1DDF80C9001E0DDF89B
:1031A0000890A88900F4004040B109EBC90000EB89
:1031B000091031684900B0FBF1F707E009EBC900DD
:1031C00000EB091031688900B0FBF1F76420B7FB10
:1031D000F0F004012009642101FB1078A88900F4B3
:1031E000004040B1322000EBC800B0FBF1F000F02D
:1031F0000700044308E0322000EB08106421B0FB14
:10320000F1F000F00F0004432C81BDE8FF874FF47C
:103210001651016000218180C18001810C21418112
:1032200000218181704710B502460020108A20F4E9
:1032300070600B884C8823438C882343CC882343BD
:103240001843108210BD0021018041808180C1801F
:10325000704721B1828942F40052828104E0828960
:103260004DF6FF731A4082817047028B02F47F4251
:103270000283028B0A430283704721B1828942F4A0
:103280000042828103E08289C2F30E02828170478C
:1032900021B1828A42F40062828204E0828A4FF283
:1032A000FF731A4082827047C1F308028280704720
:1032B00001468888C0F308007047028A4FF6F07311
:1032C0001A400282028A0A430282704721B182892F
:1032D00042F00202828104E082894FF6FD731A40B7
:1032E0008281704782894FF2FF731A4082818289FE
:1032F0000A4382817047028A4FF6DF731A400282C6
:10330000028A0A430282704721B1028A42F4804253
:10331000028204E0028A4BF6FF731A400282704771
:10332000818941F001018181704721B1828A42F097
:103330000802828204E0828A4FF6F7731A40828282
:103340007047028BD2B20283028B42EA01220283CF
:10335000704721B1828A42F02002828204E0828A90
:103360004FF6DF731A408282704721B1828A42F0A1
:103370001002828204E0828A4FF6EF731A40828242
:103380007047828A4FF6FB731A408282828A0A4310
:103390008282704721B1828A42F00202828204E076
:1033A000828A4FF6FD731A40828270471AB1838A6F
:1033B0000B43838202E0838A8B4383827047F0B59C
:1033C0000346002400260025002040F66A17B94273
:1033D00000D100BF1846C1F3421401F01F060127B7
:1033E00007FA06F5012C01D10C3004E0022C01D1C2
:1033F000103000E014301AB107682F43076002E074
:103400000768AF430760F0BD02460020B1F5007FBA
:1034100000D100BF13880B400BB1012000E0002059
:10342000704701F40072B2F5007F00D100BFCA43BB
:103430000280704770B5024600240023002500205A
:1034400040F66A16B14200D100BFC1F3421501F047
:103450001F03012606FA03F3012D13D19689334089
:1034600017E0000000100140004400400048004008
:10347000004C004000500040001401400078004023
:10348000007C0040022D02D1168A334001E0968A6A
:1034900033400C12012606FA04F41688344013B1A6
:1034A0000CB1012000E0002070BD10B50022002307
:1034B00040F66A14A14200D100BF0A1201249440D0
:1034C000A3B2DC43048010BD10B50446FE4884421C
:1034D00008D101210846FFF728FD00210120FFF750
:1034E00024FD9DE0B4F1804F08D101210846FFF78B
:1034F0000BFD00210120FFF707FD91E0F348844216
:1035000008D101210220FFF7FFFC00210220FFF774
:10351000FBFC85E0EE48844208D101210420FFF73E
:10352000F3FC00210420FFF7EFFC79E0E948844236
:1035300008D101210820FFF7E7FC00210820FFF750
:10354000E3FC6DE0E448844208D101211020FFF73C
:10355000DBFC00211020FFF7D7FC61E0DF4884424C
:1035600008D101212020FFF7CFFC00212020FFF708
:10357000CBFC55E0DA48844208D101210220FFF754
:10358000D4FC00210220FFF7D0FC49E0D54884425A
:1035900009D101210804FFF7C8FC00214FF4803055
:1035A000FFF7C3FC3CE0D048844209D10121480424
:1035B000FFF7BBFC00214FF40030FFF7B6FC2FE013
:1035C000CA48844209D101218804FFF7AEFC0021DA
:1035D0004FF48020FFF7A9FC22E0C548844208D1BF
:1035E00001214020FFF790FC00214020FFF78CFCD8
:1035F00016E0C048844208D101218020FFF784FCF6
:1036000000218020FFF780FC0AE0BB48844207D1FC
:1036100001218015FFF778FC0021A015FFF774FC4D
:1036200010BD00220288A84B98420ED0AC4B9842A5
:103630000BD0B0F1804F08D0A44B984205D0A44BDA
:10364000984202D0A34B984204D14FF68F731A4090
:103650004B881A43A04B984207D0A04B984204D005
:103660004FF6FF431A400B891A4302804B68C3622E
:103670000B880385944B984202D0994B984201D114
:103680008B7A03860123838270474FF0FF314160BC
:103690000021018001814180817270470185828211
:1036A00070470A46002101884FF68F731940114375
:1036B0000180704741627047C16270470146486AA5
:1036C00070470146088D704721B1028842F002021E
:1036D000028004E002884FF6FD731A4002807047B2
:1036E00021B1028842F00402028004E002884FF611
:1036F000FB731A400280704721B1028842F08002B9
:10370000028004E002884FF67F731A4002807047FF
:1037100002884FF6F7731A40028002880A4302803B
:10372000704702884FF6FF431A40028002880A431E
:103730000280704721B1028842F00102028004E059
:1037400002884FF6FE731A400280704770B500245D
:1037500000220023058C4FF6FE7635400584028C4E
:103760008388048B4FF68F752C40B51E2C400D8836
:103770002C43751E2A408D892A434D882A43524D79
:10378000A84202D0564DA84213D14FF6F7752A40F1
:10379000CD892A434FF6FB752A408D882A434FF680
:1037A000FF652B404FF6FF552B400D8A2B434D8A6A
:1037B0002B43838004838D684563028470BD70B59C
:1037C000002400220023058C4FF6EF763540058457
:1037D000028C8388048B48F6FF752C404FF6FF451A
:1037E0002C400D884FF6FF7606EA05252C434FF650
:1037F000DF752A408D8906EA05152A434D8806EAB9
:1038000005152A43304DA84202D0354DA8421DD19E
:103810004FF67F752A40CD894FF6FF7606EA0515EB
:103820002A434FF6BF752A408D8806EA05152A43BC
:103830004FF6FF352B404FF2FF752B400D8A06EAFD
:1038400085052B434D8A06EA85052B438380048337
:103850008D688563028470BD70B50024002200234A
:10386000058C4FF6FF6635400584028C8388848B77
:103870004FF68F752C404FF6FC752C400D882C436D
:103880004FF6FF552A408D894FF6FF7606EA05254B
:103890002A434D8806EA05252A430B4DA84202D04B
:1038A0000F4DA84238D14FF2FF752A40CD894FF60F
:1038B000FF7606EA05252A434FF6FF352A408D8814
:1038C00006EA05252A4319E00000014000040040F3
:1038D00000080040000C00400010004000140040B0
:1038E0000004014000400140004401400048014004
:1038F00000180040001C0040002000404EF6FF75FC
:103900002B404DF6FF752B400D8A06EA05152B431B
:103910004D8A06EA05152B43838084838D68C56331
:10392000028470BD70B5002200230024058C4EF681
:10393000FF7635400584038C8488828B48F6FF75BA
:103940002A404FF6FF452A400D884FF6FF7606EADB
:1039500005252A434DF6FF752B408D8906EA05356E
:103960002B434D8806EA05352B43FE4DA84202D075
:10397000FD4DA84208D14BF6FF752C400D8A4FF63D
:10398000FF7606EA85152C43848082838D68056462
:10399000038470BD0021018041808180816081812C
:1039A000C18101824182704770B503460020002426
:1039B0001846183001258D40ACB21D8CA5431D84DE
:1039C00009B108290AD100EB610005684FF68F762E
:1039D000354005600568154305600FE00D1FC5F310
:1039E0004E052844056848F6FF76354005600568B1
:1039F0004FF6FF7606EA02263543056070BD416347
:103A0000704781637047C1637047016470470A461D
:103A10000021018B4FF68F731940114301837047CA
:103A20000A460021018B48F6FF7319404FF6FF73D9
:103A300003EA02231943018370470A460021818B60
:103A40004FF68F7319401143818370470A46002156
:103A5000818B48F6FF7319404FF6FF7303EA022388
:103A60001943818370470A460021018B4FF6F77393
:103A700019401143018370470A460021018B4FF220
:103A8000FF7319404FF6FF7303EA022319430183C2
:103A900070470A460021818B4FF6F7731940114396
:103AA000818370470A460021818B4FF2FF731940D2
:103AB0004FF6FF7303EA02231943818370470A46D6
:103AC0000021018B4FF6FB731940114301837047AE
:103AD0000A460021018B4FF6FF3319404FF6FF7362
:103AE00003EA02231943018370470A460021818BB0
:103AF0004FF6FB7319401143818370470A4600213A
:103B0000818B4FF6FF3319404FF6FF7303EA022310
:103B10001943818370470A460021018B4FF67F735A
:103B200019401143018370470A460021018BC1F3FC
:103B30000E014FF6FF7303EA022319430183704716
:103B40000A460021818B4FF67F7319401143818310
:103B500070470A460021818BC1F30E014FF6FF73B7
:103B600003EA02231943818370470A460021018C2E
:103B70004FF6FD7319401143018470470A46002136
:103B8000018C4FF6F77319401143018470470A46C0
:103B90000021018C4FF6DF7319404FF6FF7303EAE3
:103BA00002131943018470470A460021018C4FF625
:103BB0007F7319404FF6FF7303EA02131943018420
:103BC00070470A460021018C4FF6FF5319404FF60B
:103BD000FF7303EA02231943018470470A46002158
:103BE000018C4FF2FF7319404FF6FF7303EA022373
:103BF0001943018470470A460021018C4DF6FF737A
:103C000019404FF6FF7303EA0233194301847047EA
:103C100030B5002301248C40A3B2048C9C4304845F
:103C2000048C02FA01F5ADB22C43048430BD30B5EA
:103C3000002304248C40A3B2048C9C430484048C91
:103C400002FA01F5ADB22C43048430BD828B4FF2F1
:103C5000FF331A408283828B4FF6FF7303EA0123FE
:103C60001A4382837047F0B50C46154600210022A6
:103C70000026078C4EF6FF7C07EA0C070784818B31
:103C8000028C4FF6FF7707EA043640F6FF473940CB
:103C90004FF6FF7707EA052739434FF6FF7707EA24
:103CA0000337394345F6FF773A4046F480573A43A5
:103CB00081830284F0BD828B4FF6F3731A408283B6
:103CC000828B0A4382837047F0B50C46154600216B
:103CD00000220026078C4FF6FF6C07EA0C070784CA
:103CE000818B028C4FF6FF7707EA04264FF60C779C
:103CF00039404FF6FF7707EA03172F4339434FF256
:103D0000FF573A4046F480773A4381830284F0BDFE
:103D1000028B4FF2FF331A400283028B4FF6FF7380
:103D200003EA01231A4302837047F0B50C46154697
:103D3000002100220026078C4FF6EF7C07EA0C07D3
:103D40000784018B028C4FF6FF7707EA041640F6D2
:103D5000FF4739404FF6FF7707EA033739434FF6FD
:103D6000FF7703E0000001400004014007EA052757
:103D700039434FF65F773A4046F010073A430183E4
:103D80000284F0BD028B4FF6F3731A400283028B5C
:103D90000A4302837047F0B50C4615460021002205
:103DA000068C4FF6FE773E400684018B028C4FF660
:103DB0000C7631407E1C06EA03162E4331434FF643
:103DC000F576324044F00106324301830284F0BDAF
:103DD00070B505460C46208850B92389A2886188B1
:103DE0002846FFF7D8FFE1882846FFF7CBFF25E0FC
:103DF000208804280AD12389A28861882846FFF7F1
:103E000094FFE1882846FFF783FF17E02088082801
:103E10000AD12389A28861882846FFF755FFE188E7
:103E20002846FFF748FF09E02389A28861882846D1
:103E3000FFF719FFE1882846FFF708FF70BD002152
:103E400001804180012181800021C1800181704772
:103E50002DE9F04105460C4600260127608808B987
:103E6000022600E00026A088012801D1022700E0F8
:103E700001272088A0B92389A28861882846FFF7F6
:103E80008AFFE1882846FFF77DFF23893A463146BD
:103E90002846FFF74AFFE1882846FFF739FF13E07D
:103EA0002389A28861882846FFF73FFFE1882846DA
:103EB000FFF72EFF23893A4631462846FFF76BFF6E
:103EC000E1882846FFF75EFFBDE8F0810146486BB8
:103ED00070470146886B70470146C86B70470146C2
:103EE000086C70470A884B881A438B881A43CB8822
:103EF0001A430B891A434B891A438B891A43A0F83A
:103F0000442070470021018041808180C18001816F
:103F100041818181704731B1B0F8442042F40042C0
:103F2000A0F8442005E0B0F84420C2F30E02A0F847
:103F30004420704721B1828842F00402828004E06C
:103F400082884FF6FB731A408280704721B18288C5
:103F500042F00102828004E082884FF6FE731A402C
:103F6000828070471AB183890B43838102E0838981
:103F70008B43838170478182704702460020138AF9
:103F80000B400BB1012000E000207047CA430282C1
:103F9000704730B50246002000230024158A05EA48
:103FA0000103958905EA010413B10CB1012000E079
:103FB000002030BDCA430282704741EA0203A0F8E4
:103FC000483070471AB183890B43838102E08389AB
:103FD0008B438381704721B1828842F0080282803E
:103FE00004E082884FF6F7731A4082807047018997
:103FF0004FF6F8721140018170470A46002101898D
:104000004FF68F73194011430181704730B5044654
:104010000D4629462046FFF7F0FF208940F00700B3
:10402000208130BD2DE9F04104460D4616461F465D
:10403000602D06D13B46012231462046FFF775FE32
:1040400005E03B46012231462046FFF7A4FE294603
:104050002046FFF7D2FF208940F007002081BDE80D
:10406000F08130B50C4600210189C9B24FF6FF75C9
:1040700005EA0325154325432943018130BD2DE978
:10408000F04105460E4617469846002443463A46F8
:1040900031462846FFF7E5FF2C894FF6F8700440BB
:1040A00044F007044FF68F70044044F070042C81F4
:1040B000BDE8F081F0B504460D4616461F463B4666
:1040C000324629462046FFF7CCFF208940F4804045
:1040D0002081F0BD82884FF68F731A4082808288DB
:1040E0000A438280704702894FF6F8731A400281B2
:1040F00002890A430281704702894FF67F731A4092
:10410000028102890A4302817047F0B50C461546C8
:104110001E460021002200230189028B038C4FF6EA
:10412000F877394021434FF6FC473A4040F20117F7
:104130003A434FF6DD773B404FF6FF7707EA061725
:104140002F433B43018102830384F0BD21B1828868
:1041500042F08002828004E082884FF67F731A402A
:1041600082807047A0F8501070470000FE4A10701F
:10417000704730B1FC49096841F48071FA4A116016
:1041800005E0F949096821F48071F74A1160704728
:1041900030B1F549096841F40071F34A116005E056
:1041A000F149096821F40071EF4A1160704730B19C
:1041B000ED49096841F48061EB4A116005E0EA4984
:1041C000096821F48061E84A11607047E648006898
:1041D00040F40060E44908607047E348006840F438
:1041E0008050E14908607047DF481030006800F0F7
:1041F000004028B1DD48DC49091D0860DC48086042
:104200007047D9481030006840F00040D64910315E
:10421000086070470920D4490C31096801F48031E5
:10422000B1F5803F01D1012020E0CF490C31096870
:1042300001F0100109B1062018E0CB490C310968E2
:1042400001F4807109B1022010E0C7490C310968FE
:1042500001F0EF0109B1072008E0C3490C310968FA
:1042600001F0020109B1082000E00920704708B5FB
:1042700009200090FFF7CEFF009002E0FFF7CAFF91
:1042800000909DF800000128F8D09DF8000008BDBE
:1042900070B504460A460026092502B909E0012A3C
:1042A00001D1160205E0022A01D1160201E04FF405
:1042B0004076FFF7DCFF0546092D2DD1AA481030C6
:1042C000006820F44070A849103108600846006872
:1042D000304308600846006820F0F800086008468F
:1042E000006844F0020108439F4910310860084605
:1042F000006840F480300860FFF7B9FF05469A482F
:104300001030006820F0020097491031086008461C
:10431000006820F0F8000860284670BD30B50246FD
:1043200000250924FFF7A3FF044602B909E0012A8A
:1043300001D1150205E0022A01D1150201E04FF476
:104340004075092C20D188481030006820F4407056
:10435000854910310860084600682843086008460F
:10436000006840F0040008600846006840F48030AF
:104370000860FFF77CFF04467B481030006820F09F
:104380000400794910310860204630BD30B502463E
:1043900000250924FFF76BFF044602B909E0012A52
:1043A00001D1150205E0022A01D1150201E04FF406
:1043B0004075092C20D16C481030006820F4407002
:1043C00069491031086008460068284308600846BB
:1043D000006840F0040008600846006840F480303F
:1043E0000860FFF744FF04465F481030006820F083
:1043F00004005D4910310860204630BD30B50246EA
:1044000000250924FFF733FF044602B909E0012A19
:1044100001D1150205E0022A01D1150201E04FF495
:104420004075092C20D150481030006820F44070AD
:104430004D49103108600846006828430860084666
:10444000006840F4004008600846006840F480308E
:104450000860FFF70CFF044643481030006820F462
:104460000040414910310860204630BD70B5064615
:1044700014461D460922FFF7FAFE0246092A1ED1FC
:1044800039481030006820F4407037491031086016
:104490000846006840F4407008600846006840F034
:1044A0000100086034607560FFF7E1FE02462E48A7
:1044B0001030006820F001002B49103108601046D0
:1044C00070BD30B502460C460925FFF7D0FE054603
:1044D000092D1DD124481030006820F44070224975
:1044E000103108600846006840F400700860084613
:1044F000006840F0010008601460FFF7B8FE054650
:1045000019481030006820F0010017491031086088
:10451000284630BD30B502460C460925FFF7A7FEF8
:104520000546092D1DD110481030006820F4407058
:104530000D49103108600846006840F4807008603A
:104540000846006840F0010008601480FFF78FFE05
:10455000054605481030006820F00100024910317E
:104560000860284630BD0000003C0240230167453A
:10457000AB89EFCD30B502460C460925FFF777FE33
:104580000546092D17D19B48006820F440709949D1
:1045900008600846006808600846006840F00100AE
:1045A00008601470FFF763FE05469248006820F02B
:1045B000010090490860284630BD8E48001D006803
:1045C00000F0010028B18C488A49083908608B48FE
:1045D000086070478748001D006840F00100854969
:1045E000091D0860704730B502460C460925FFF7E3
:1045F0003EFE0546092D10D13CB17E48801D008845
:1046000090437C49891D088007E07A48801D008816
:1046100091B208437749891D088030BD30B5024604
:104620000C460925FFF723FE0546092D10D13CB1A4
:1046300070480A30008890436E490A31088007E0CC
:104640006C480A30008891B208436A490A310880F0
:1046500030BDFF21674AD21D127802F07F0140EA87
:104660000102644BDB1D1A70704730B502460C46E0
:104670000925FFF7FCFD0546092D10D144B15D4821
:10468000801D008891B208435A49891D088006E0C0
:104690005848801D008890435649891D088030BDC8
:1046A00030B502460C460925FFF7E1FD0546092D08
:1046B00010D144B14F480A30008891B208434D49A7
:1046C0000A31088006E04B480A3000889043494987
:1046D0000A31088030BD10B502460924FFF7C7FD36
:1046E0000446092C02D14348401D027010BDF0B5AC
:1046F00004460D46FF260927FFF7B9FD0746092F97
:104700000BD13C48001D007800F00F0645EA06007A
:10471000104320433749091D0870F0BD3549091D74
:10472000097821F01001334A121D117011460978E1
:104730000143117070472F49091D097821F00C01C0
:104740002C4A121D117011460978014311707047EF
:1047500000B509222748001D007840F002002549D5
:10476000091D0870FFF783FD0246104600BD214871
:10477000001D0068C0F3471070471E48801D008868
:1047800070471C480A30008870471A48801D00880E
:10479000704718480A300088704700201549491DA5
:1047A0000978AA2901D0012000E0002070471148B3
:1047B000001D007800F00C00704729B10D4A126806
:1047C00002430C4B1A6004E00A4A12688243094B08
:1047D0001A60704701460020064A121F12680A40FC
:1047E0000AB1012000E0002070470249091F08605B
:1047F00070470000103C02403B2A19087F6E5D4C58
:1048000010B50446FB48844208D101218014FEF70C
:104810008CFB0021A014FEF788FB3CE0F6488442A4
:1048200008D101210014FEF76FFB00212014FEF7D0
:104830006BFB30E0F148844208D10121C013FEF740
:1048400063FB0021E013FEF75FFB24E0EC488442A9
:1048500008D101214014FEF768FB00216014FEF727
:1048600064FB18E0E748844209D101210805FEF7FE
:104870005CFB00214FF48010FEF757FB0BE0E24891
:10488000844208D101214805FEF74FFB00214FF477
:104890000010FEF74AFB10BD10B50022028802F49A
:1048A00041520B884C8823438C882343CC88234374
:1048B0000C8923434C8923438C892343CC8923438C
:1048C0001A430280838B4FF2FF74234083830B8A49
:1048D000038210BD2DE9F04F0025022300244FF084
:1048E000010900220026002794469046B0F81CA03B
:1048F0004FF2400B0AEA0B0AA0F81CA04FF0020A84
:10490000A0F820A0858BD1F808A0BAF1020F01D140
:1049100000BF82E0B1F804A0BAF1000F02D14FF05D
:10492000010901E04FF00209DFF8E0A2DAF800A087
:104930000AF4000ABAF1000F09D0DFF8D0A2DAF8C1
:1049400000A02AF4000ADFF8C4B2CBF800A0DFF818
:10495000BCA20AF17C0ADAF800A0CAF3881CDFF8CE
:10496000ACA20AF17C0ADAF800A0CAF30278DFF8F8
:104970009CA2AAF1040ADAF800A00AF03F07DFF8C7
:104980008CA2AAF1040ADAF800A00AF4800ABAF5A7
:10499000800F08D1DFF878A2BAFBF7FA0AFB0CFA0D
:1049A000BAFBF8F607E0DFF86CA2BAFBF7FA0AFBED
:1049B0000CFABAFBF8F6B1F806A0BAF5007F0ED1F2
:1049C0004FEA162A0AEB8A0A4FEA4A0AD1F808B0D7
:1049D000BAFBFBFA0AF1050A1FFA8AF20FE04FEA66
:1049E000491AB6FBFAFA0AEB8A0A4FEA4A0AD1F8E0
:1049F00008B0BAFBFBFA0AF1050A1FFA8AF24FF077
:104A00000A0AB2FBFAF202F00104A2EB040ACAF3AA
:104A10004F034FF6FF7A0AEA0424022B01DBFF2B37
:104A200001DD02230024B1F806A04AEA040A4AEA9A
:104A3000030AA0F820A0B1F804A0B1F80CB04AEA2B
:104A40000B0AB1F802B04AEA0B0AB1F800B04AEA20
:104A50000B0A4AF4006A4AEA05058583BDE8F08F2F
:104A60000021018041808180C1800181418181815B
:104A7000C18107210182704700210180418081802E
:104A8000C1800221816000218181704721B10288AB
:104A900042F04002028004E002884FF6BF731A40E1
:104AA0000280704721B1828B42F48062828304E0ED
:104AB000828B4FF6FF331A408283704702884FF291
:104AC000FF731A40028002880A4302807047B1F5E2
:104AD000804F04D1028842F48042028004E00288C0
:104AE0004BF6FF731A40028070474FF6FF62914207
:104AF00004D0028842F48072028004E002884FF6FB
:104B0000FF631A400280704721B1828842F004029C
:104B1000828004E082884FF6FB731A4082807047DF
:104B200021B1828842F01002828004E082884FF630
:104B3000EF731A408280704730B500220023848BC7
:104B40004FF240052C40848302240484828B0C881D
:104B5000B4F5007F01D00C8814B94FF4807308E0DD
:104B60000C88B4F5407F03D00C88B4F5807F00D169
:104B700000238C888D892C434D882C431C4344F49E
:104B800000642243828330BD014688897047818159
:104B9000704721B1028842F40052028004E002888A
:104BA0004DF6FF731A4002807047018841F480512E
:104BB0000180704702460020012901D0108B00E0DF
:104BC000908A70470146088A70471AB183880B4360
:104BD000838002E083888B438380704730B5002454
:104BE00000230C110125A540ABB2AAB185881D4355
:104BF000858014E00030014000380040003C004057
:104C00000034014000500140005401400838024087
:104C100000127A000024F40085889D43858030BD11
:104C20000246002013890B400BB1012000E0002058
:104C30007047CA4302817047F0B502460020002445
:104C40000023002501F00F070126BE40B4B20B116E
:104C500001269E40B3B2968806EA030516892640CF
:104C600016B10DB1012000E00020F0BD10B500220A
:104C700001F00F040123A3409AB2D343038110BD76
:104C8000016821F001010160002101604160816043
:104C9000C160016121214161DB49884204D13D218C
:104CA000D94A103A91608CE0D7491831884205D131
:104CB0004FF47461D44A103A916082E0D2493031A5
:104CC000884205D14FF47411CF4A103A916078E0D0
:104CD000CD494831884205D14FF07461CA4A103A33
:104CE00091606EE0C8496031884204D1C749C64A24
:104CF000103AD16065E0C4497831884204D1C44992
:104D0000C14A103AD1605CE0BF499031884204D179
:104D1000C049BD4A103AD16053E0BB49A83188422E
:104D200005D14FF03D51B84A103AD16049E0BA4937
:104D3000884204D13D21B84A083A116041E0B649A1
:104D40001831884205D14FF47461B34A083A1160B2
:104D500037E0B1493031884205D14FF47411AE4A81
:104D6000083A11602DE0AC494831884205D14FF036
:104D70007461A94A083A116023E0A749603188426A
:104D800004D1A249A44A121F11601AE0A249783145
:104D9000884204D19E49A04A121F116011E09E4929
:104DA0009031884204D19B499B4A121F116008E050
:104DB0009949A831884204D14FF03D51964A121FBB
:104DC0001160704710B500220268944B1A40CC68FD
:104DD0000B6823434C6923438C692343CC692343E9
:104DE0000C6A23434C6A23438C6A23434C6B234352
:104DF0008C6B23431A430260426922F00702D1E917
:104E00000B3423431A4342610B6943604B68836050
:104E10008B68C36010BD0021016041608160C1608A
:104E2000016141618161C161016241628162C1626E
:104E3000016341638163704721B1026842F001025E
:104E4000026003E0026822F001020260704721B1B3
:104E5000026842F40042026003E0026822F4004269
:104E60000260704721B1026842F02002026003E054
:104E7000026822F0200202607047416070470146DC
:104E8000486880B2704722B1036843F4002303608E
:104E900003E0036823F4002303600161704721B13C
:104EA000026842F48022026003E0026822F4802259
:104EB000026070470AB1016100E0C16070470146BD
:104EC00000200A6802F400220AB1012000E000205C
:104ED0007047014600200A6802F001020AB1012071
:104EE00000E000207047014600204A6902F03800C7
:104EF000704730B503460A4600200024464DAB42B9
:104F000002D24149103901E04349103902F00055FD
:104F10000DB14C6800E00C68414D2C4004EA0205DC
:104F20000DB1012000E0002030BD02463A4B9A420C
:104F300002D23548103801E03748103801F00053EC
:104F40001BB1374B0B40C36002E0354B0B40836015
:104F5000704710B501F080034BB122B1436943F0B3
:104F60008003436103E0436923F0800343618029A8
:104F70000BD02AB1036801F01E042343036004E050
:104F8000036801F01E04A343036010BD70B5024620
:104F9000002000240025204EB24202D21A4B103BC2
:104FA00001E01D4B103B1F4E0E4036B11E2606EA97
:104FB000D124166806EA040502E0566906F0800569
:104FC00001F000560EB15C6800E01C68144E3440DD
:104FD00004EA010616B10DB1012000E0002070BD09
:104FE00002460D4B9A4202D20748103801E00A48A7
:104FF000103801F000531BB1094B0B40C36002E0B5
:10500000074B0B4083607047106002403D0000205A
:10501000400F002000003D20106402403F801CF043
:105020007D0F7D0F3C0F3C0F10B501214020FDF797
:1050300049FF00214020FDF745FF10BD30B1214957
:10504000096841F004011F4A116005E01D49096823
:1050500021F004011B4A116070471A4808300068AB
:10506000704730B11749096841F00801154A1160CD
:1050700005E01449096821F00801124A11607047DF
:10508000014600200F4A121D12680A400AB1012091
:1050900000E0002070476FEA00110A4A121D1160FB
:1050A000704701460020074A121D12680A400AB1E3
:1050B000012000E000207047C143C9B2014A121D1F
:1050C000116070470008065010B501210802FDF775
:1050D0002CFF00214FF48070FDF727FF10BD30B585
:1050E0000246002000235068F84C20400D790C68DF
:1050F00044EA0524204350609068F54C2040D1E9F3
:1051000003542C438D682C434D7944EA45042043D5
:105110009060D06A20F470000C7D641EE4B22343DA
:1051200040EA0350D06230BD00210160017141713D
:105130008160C16001610121017570470021E54A6C
:105140001168E54A1140D0E900231A4383681A43E5
:10515000C3681A431143E14AC2F80413704700219F
:10516000016041608160C160704721B1826842F096
:105170000102826003E0826822F0010282607047CF
:105180000A4600214168D64B1940114341607047DF
:105190004162826270470A460021416821F01F0186
:1051A00011434160704738B1CA49096841F40001B0
:1051B000CA4AC2F8041306E0C649096821F400018E
:1051C000C64AC2F80413704738B1C249096841F4AD
:1051D0008001C24AC2F8041306E0BE49096821F4FE
:1051E0008001BE4AC2F804137047F0B504460D466C
:1051F00000200021092D11DDE068A5F10A0606EB6B
:105200004607072606FA07F18843A5F10A0606EBCA
:10521000460603FA06F10843E0600CE0206905EB5E
:105220004507072606FA07F1884305EB450603FA0A
:1052300006F108432061072A0FDA606B561E06EB61
:1052400086071F2606FA07F18843561E06EB8606D8
:1052500005FA06F10843606322E00D2A0FDA206B9D
:10526000D61F06EB86071F2606FA07F18843D61FCE
:1052700006EB860605FA06F10843206310E0E06AB3
:10528000A2F10D0606EB86071F2606FA07F18843F2
:10529000A2F10D0606EB860605FA06F10843E06268
:1052A000F0BD816841F08041816070470146002077
:1052B0008A6802F080420AB1012000E000207047B5
:1052C00021B1826842F48062826003E0826822F445
:1052D00080628260704721B1826842F0020282607F
:1052E00003E0826822F002028260704710B50A462D
:1052F00000210023416821F46041531E41EA4331FB
:10530000416010BD21B1426842F40062426003E096
:10531000426822F40062426070470146C86C80B265
:1053200070476C48001D0068704721B1826842F4E4
:105330008072826003E0826822F48072826070472B
:1053400021B1826842F40072826003E0826822F434
:1053500000728260704738B15E49096841F40051BB
:105360005E4AC2F8041306E05A49096821F4005164
:105370005A4AC2F804137047F0B504461546002097
:1053800000220026092911DDE068A1F10A0707EBD8
:10539000470C072707FA0CF29043A1F10A0707EB25
:1053A000470703FA07F21043E0600CE0206901EBC5
:1053B000410C072707FA0CF2904301EB410703FA6F
:1053C00007F210432061A06BC0F30156EF1C06F1F9
:1053D000010CA7EB0C0707EB870C1F2707FA0CF251
:1053E0009043EF1C06F1010CA7EB0C0707EB8707B6
:1053F00001FA07F21043A063F0BD10B50A46002180
:105400000023816B21F44011531E41EA0351816353
:1054100010BD08B5002300930090009B0B4400933F
:10542000009B1A6008BD0A460021816821F47021A2
:105430001143816070470A460021816821F44011C0
:10544000114381607047816841F480018160704739
:10545000014600208A6802F480020AB1012000E0BF
:105460000020704721B1426842F48062426003E04C
:10547000426822F480624260704721B1426842F47F
:105480008052426003E0426822F4805242607047DA
:1054900008B5024600200090009201F12800009B10
:1054A000184400900098006880B208BD10B50B4603
:1054B0000021D9B2012404FA01F11AB144680C4365
:1054C000446002E044688C43446010BDFFFEFFFC72
:1054D000FDF7FFC004230140E030FCFF0020014045
:1054E000FFFD3FFF0246002013680B400BB1012077
:1054F00000E000207047CA430260704770B5024662
:105500000020002300240B12556801268E4005EA76
:10551000060415681D4015B10CB1012000E0002003
:1055200070BD00220A12D343036070470E49086021
:1055300070470D49486070470B49886070474AF6CC
:10554000AA200949086070474CF6CC40064908601B
:10555000704701460020044AD2680A400AB101207F
:1055600000E0002070470000003000407CB50025BE
:1055700014E06946284602F0C1F9064666B9F848C3
:1055800050F8254044B1012C06D0D4E9020100EBCB
:10559000810060640198A064681CC5B23F2DE8D901
:1055A0007CBD002400BF02E0282002F0B1FAED48E3
:1055B00000780028F8D0EC4800686421B0FBF1F0D6
:1055C000E94908600846006828B90020E7490870E2
:1055D000FF2002F0D5F900BF02F08CFE0446E4483B
:1055E0000068E44908600020E1490860204602F0B4
:1055F00085FEE0480068DC490968B0FBF1F0C0F1C5
:105600006400DA49087002F0E1FEFFF7AFFF1420F2
:1056100002F07EFAE0E700B587B003200021802287
:10562000D54BCDE90132CDE903104FF6FE703E2394
:10563000D24A0090AFF2950001F079FF06AAD0A1FE
:105640003E2002F0DDF807B000BD002400BF00BF1F
:1056500002F050FE0446C6480068401CC449086079
:10566000204602F04BFE02F0B0FEF1E700B587B035
:10567000032000218022C64BCDE90132CDE9031081
:105680004FF6FF703F23C34A0090AFF2410001F094
:105690004EFF06AAC0A13F2002F0B2F807B000BD3D
:1056A00004E0002200F8012B4A1E91B20029F8D133
:1056B000704770B5C821BC48FFF7F2FF00230FE028
:1056C000581C85B203EB8300B74901EB800405EB5E
:1056D000850001EB8006002020706660581C83B2B4
:1056E000092BEDD303EB8300AF4901EB80040020CD
:1056F000207060600846AD49086070BD70B54FF419
:10570000E761AB48FFF7CCFF4FF480719448FFF797
:10571000C7FF002413E0601CC5B2C4EBC40000EB5B
:105720004000A34901EB8003C5EBC50000EB40003E
:1057300001EB80065E619FA0D864601CC4B2152C8A
:10574000E9D3C4EBC40000EB4000994901EB8003AE
:105750000020586197A0D8640020974908609448B9
:105760009649086070BD0021954A1170002004E040
:105770000021944A1154411CC8B20828F8D30021D2
:10578000914A1170914A1170914A1160914A1160C9
:10579000704700209049086090490870904908704F
:1057A00090490870904908709049086070490860F5
:1057B000704908606C4908606A490870704710B504
:1057C00002F0FCFDFFF7E5FFFFF7CDFFFFF796FFC7
:1057D000FFF76FFF00F0ECFE01F0C9FBFFF746FF9B
:1057E000FFF719FF02F01AFD02F0ECFD10BD7E4834
:1057F0000078012808D179480078FF2804D277483A
:105800000078401C75490870704779496C4A1278D5
:10581000885C6C49095C764A515C01EBC0016B4ABB
:105820001170704710B500246F480078012830D1FE
:1058300002F060FD04466948007820B167480078AE
:10584000401E6649087065480078F8B964480078D9
:10585000E0B9FFF7DAFF42485C49097850F82100C7
:105860005B490860594800785749097888420DD04B
:1058700057480068806B401C5549096888635B483D
:105880000068401C5949086002F054FD204602F0AF
:1058900035FD10BD10B5002453480078012811D102
:1058A00002F028FD04464D48007840B94C48007885
:1058B000FF2804D24A480078401C49490870204615
:1058C00002F01CFD10BD10B5002402F013FD0446CB
:1058D00042480078F8B942480078E0B9FFF795FFF0
:1058E0001F483A49097850F821003949086037487B
:1058F00000783549097888420DD035480068806BBA
:10590000401C33490968886338480068401C37499F
:10591000086002F008FD204602F0F0FC10BD10B552
:1059200000243148007801286FD102F0E3FC0446DE
:105930002B48007880B12A480078401E284908701A
:105940000846007848B92548007838B9204602F062
:10595000D5FCFFF7B8FF58E054E04FE04AE0000004
:1059600084890120B0000020A8000020A4000020AD
:10597000C0000020AC000020848501208087012029
:1059800075432F4F532D4949205374617400000013
:10599000848701208089012075432F4F532D494969
:1059A0002049646C650000006C8401209C0000208C
:1059B000848A01203F000000D0000020C8000020A1
:1059C000B5000020B6000020B3000020B400002085
:1059D000CC000020C4000020DC000020B10000202A
:1059E000B2000020BF000020BE0000209800002070
:1059F000862A0308204602F081FC06E0204602F0D9
:105A00007DFC02E0204602F079FC10BD10B5EB48A9
:105A1000007890B9FFF7F9FEE9480078E949087085
:105A2000E948E749097850F82100E8490860084644
:105A30000068E749086002F064FC10BD10B500245E
:105A4000022002F065F802F055FC04460020E1490E
:105A50000860204602F052FC142002F059F802F0CF
:105A600049FC0446DB480068DB4908600120DB494B
:105A70000870204602F042FC10BD70B5002602F00E
:105A80007DFD02F037FC0646D5480068401CD4492D
:105A90000860304602F032FCC8480078012853D133
:105AA000D048007820B1012804D0022809D103E0B1
:105AB00001250BE0002509E001250120C9490870F6
:105AC00004E001250020C749087000BF00BF05B9E8
:105AD00070BDC548046833E002F00CFC0646E06A7D
