:020000040800F2
:1000000010E501208D2300085D2100085F21000814
:10001000692100086D21000871210008000000001E
:100020000000000000000000000000007521000832
:10003000772100080000000075810008CD2300082A
:10004000A7230008A7230008A7230008A723000868
:10005000A7230008A7230008A7230008A723000858
:10006000A7230008A7230008A7230008A723000848
:10007000A7230008A7230008A7230008A723000838
:10008000A7230008A7230008A7230008A723000828
:10009000A7230008A7230008A7230008A723000818
:1000A000A7230008A7230008A7230008A723000808
:1000B000A7230008A7230008A7230008A7230008F8
:1000C000A7230008A7230008A7230008A7230008E8
:1000D000A723000819E3000861E40008DFE5000831
:1000E000A7230008A7230008A7230008A7230008C8
:1000F000A7230008A7230008A7230008A7230008B8
:10010000A7230008A7230008A7230008A7230008A7
:1001100031E7000875E80008A7230008A7230008B6
:10012000A7230008A7230008A7230008A723000887
:10013000A7230008A7230008A7230008A723000877
:10014000A7230008A7230008A7230008A723000867
:10015000A7230008A7230008A7230008A723000857
:10016000A7230008A7230008A7230008A723000847
:10017000A7230008A7230008A7230008A723000837
:10018000A7230008A723000800F002F800F05CF89D
:100190000AA090E8000C82448344AAF10107DA45E2
:1001A00001D100F051F8AFF2090EBAE80F0013F0D8
:1001B000010F18BFFB1A43F001031847DC6B020064
:1001C000FC6B02000A444FF0000C10F8013B13F0E6
:1001D000070408BF10F8014B1D1108BF10F8015BA0
:1001E000641E05D010F8016B641E01F8016BF9D193
:1001F00013F0080F1EBF10F8014BAD1C0C1B09D1EA
:100200006D1E58BF01F801CBFAD505E014F8016B5B
:1002100001F8016B6D1EF9D59142D6D370470000ED
:100220000023002400250026103A28BF78C1FBD8FF
:10023000520728BF30C148BF0B6070471FB526F07A
:100240000CFB1FBD10B510BD23F0F6FA1146FFF7E9
:10025000F5FF01F0BFFE23F014FB03B4FFF7F2FF3C
:1002600003BC23F017FB00002DED088B86B0C8E11E
:10027000012009F0FEFEFD4880ED000A0FF04CFC65
:10028000FA48D0ED000AB0EE600A0FF050FFF748D0
:10029000D0ED000AB0EE600A0BF074FC002410E010
:1002A00004EB8400F24901EB40008079C4EB0411B7
:1002B00001EB8101EF4A02EBC10181F82901601CC9
:1002C000C4B2042CECDBEC4908880988491CEA4BD1
:1002D000198025F00BFF41EC180B9FEDE80B53EC58
:1002E000102B26F051F87DD24FF6FA70E2490880C3
:1002F000E44890ED0C0A10EE101A084626F03CFA7D
:1003000041EC1B0B9FEDE00B53EC102B25F0E6FCB2
:1003100041EC1A0B25F0F4FB08EE100AD94890EDD9
:100320000B0A10EE101A084626F026FA41EC1B0BB9
:100330009FEDD50B53EC102B25F0D0FC41EC1A0BA4
:1003400025F0DEFB08EE900ACE4890ED0A0A10EE8A
:10035000101A084626F010FA41EC1B0B9FEDCA0B51
:1003600053EC102B25F0BAFC41EC1A0B25F0C8FB1E
:1003700009EE100AC348D0ED060AB0EE603AD0ED9F
:10038000050AF0EE602AD0ED040AB0EE602AB74804
:10039000D0ED000AB0EE600ABD4ABE49BE48DFEDAE
:1003A000BF4A9FEDBE4ADFEDBD3AF0EE481AB0EE0F
:1003B000681AF0EE490A10F070FCB24890ED040A99
:1003C00010EE101A084626F0D7F941EC190B9FEDF4
:1003D000B40B53EC102B25F081FC41EC180B25F0ED
:1003E0008FFB00E00AE10390A64890ED050A10EEAD
:1003F000101A084626F0C0F941EC190B9FEDA80B26
:1004000053EC102B25F06AFC41EC180B25F078FB1F
:1004100004909C4890ED060A10EE101A084626F04B
:10042000ABF941EC190B9FED9E0B53EC102B25F013
:1004300055FC41EC180B25F063FB05909DED040A7B
:100440009948D0ED020A20EE200ADDED050A90ED74
:10045000011A00EEC10A8DED000A9DED050AD0EDEE
:10046000000A20EE200ADDED030A90ED021A00EEEC
:10047000C10A8DED010A90ED020ADDED050A20EEBC
:10048000200AD0ED000A9DED031A00EE810AD0ED9E
:10049000010A9DED041A00EE810AF7EE000A30EE23
:1004A000600A8DED020A7C4890ED000A7F4880EDDD
:1004B0009F0A784890ED000AB1EE400A7B4880ED33
:1004C000A00A734890ED000A784880EDA10A6D48B3
:1004D00090ED0A0A754880EDA20A6A4890ED0B0A71
:1004E000724880EDA30A674890ED0C0A6F4880EDD2
:1004F000A40A9DED000AB1EE400A10EE101A08465B
:1005000026F03AF941EC1A0B9FED690B53EC102BD6
:1005100025F03CFE41EC190B25F0F2FA08EE100A2A
:10052000524890ED000AB0EE401AF0EE040A62481C
:10053000B0EE480A15F007FB9DED010A10EE101A07
:10054000084626F019F941EC1A0B9FED590B53ECB4
:10055000102B25F01BFE41EC190B25F0D1FA08EE0B
:10056000100A424890ED000AB0EE401AF0EE040A7C
:100570005148001DB0EE480A15F0E5FA9DED020A5B
:1005800010EE101A084626F0F7F841EC1A0B9FED12
:10059000480B53EC102B25F0F9FD41EC190B25F01D
:1005A000AFFA08EE100A314890ED000AB0EE401A9A
:1005B000F0EE040A40480830B0EE480A15F0C3FADD
:1005C0002A4890ED000A3D48D0ED000A30EE200A9E
:1005D00080ED000A006826F0CFF841EC180B9FED83
:1005E000380B53EC102B25F0CFFE06D29FED2B0AD3
:1005F000324880ED000A11F084FC00BF052001F0B4
:100600003EFF35E62DED028B2EE0052009F031FD91
:10061000164880ED050A2C4908880988491C2A4B90
:10062000198025F063FD41EC180B9FED140B53EC82
:10063000102B25F0A9FE14D24FF6FA70224908803B
:100640000A48D0ED050AB0EE600A13F0FFFB074838
:1006500090ED050A1D48D0ED000A30EE200A80ED2D
:10066000000A142001F00BFFCFE70000540C00201B
:10067000B6AC0120F0C801203000002000000000CE
:1006800000006940C4B701206666666666A64C40F5
:10069000C4040020BC040020C004002000000000AE
:1006A000000000000000B04040BB012050D20120FB
:1006B0009A99999999992340FCD4012034000020FB
:1006C0007B14AE47E17A943F3A0000203C000020C2
:1006D0002DED0C8B00BFFCE3002009F0CAFCFE48A6
:1006E00080ED040A90ED040A10EE101A084626F078
:1006F00043F841EC1B0B9FEDF90B53EC102B25F04D
:1007000009FD02D29FEDF50B1DE0F34890ED040AC0
:1007100010EE101A084626F02FF841EC1B0B9FED47
:10072000F10B53EC102B25F02FFE02D29FEDED0BB9
:1007300009E0E94890ED040A10EE101A084626F088
:100740001BF841EC100BB0EE40AAF0EE60AA51ECA1
:100750001A0B25F0D5F908EE100AE448007820B904
:100760000120E249087011F0C5FCE14890F8DD0471
:1007700060B3E048007948B300251DE0DE4A681CFC
:1007800002EB800090ED000A10EE101A084625F0EA
:10079000F3FF41EC1B0B9FEDD90B53EC102B25F015
:1007A000F5FC41EC1A0B25F0ABF9014605EB4502CF
:1007B000D44840F822106D1C042DDFDB0120D24903
:1007C00048700021CA4880F8DD141FE0C84890F83E
:1007D000DE0401280AD1C748007938B10120CA498E
:1007E00048700021C24880F8DE140FE0C04890F83D
:1007F000DE0402280AD1BF48007938B10120C2497D
:10080000487008700021BA4880F8DE14BF48807D27
:1008100000287CD0BD48B0F90400B0F57A7F02DA38
:100820004FF47A700BE0B948B0F90400B0F5FA6FF4
:1008300002DD4FF4FA6002E0B448B0F90400B449B4
:100840008880B248B0F9000000EE900AF8EEE00AA5
:10085000B0EE600AF0EE000A13F0E9F9BDEEC00A4E
:1008600010EE100A00B2AA490880A848B0F90200A8
:1008700000EE900AF8EEE00AB0EE600AF0EE000A30
:1008800013F0D5F9BDEEC00A10EE100A00B2A0496F
:1008900048809E48B0F9060000EE900AF8EEE00AA3
:1008A000B0EE600AF0EE000A13F0C1F9BDEEC00A26
:1008B00010EE100A00B29649C88094480089088159
:1008C0009248408948819148808988818F48C089B1
:1008D000C881904890ED000AB1EE400A10EE100A6F
:1008E00025F04AFF41EC1B0B8948B0F90400A0F247
:1008F000DC5000EE900AF8EEE00AB0EE600AF3EE8B
:10090000090A13F04DF98348D0ED000A00E04FE2E8
:1009100020EE200A10EE104A204625F02DFF41EC73
:100920001D0B9FED7D0B53EC102B25F0D7F941ECFF
:100930001C0B53EC1B2B25F0EDFB09D2754890EDF9
:10094000000AB1EE400A10EE100A25F015FF53E040
:100950007048006825F010FF41EC1B0B6C48B0F9A3
:100960000400A0F2DC5000EE900AF8EEE00AB0EECF
:10097000600AF3EE090A13F013F96648D0ED000A95
:1009800020EE200A10EE104A204625F0F5FE41EC3C
:100990001D0B9FED610B53EC102B25F09FF941ECE3
:1009A0001C0B53EC1B2B25F0EFFC04D259480068BC
:1009B00025F0E2FE20E05648B0F90400A0F2DC5039
:1009C00000EE900AF8EEE00AB0EE600AF3EE090AD3
:1009D00013F0E6F84F48D0ED000A20EE200A10EEA2
:1009E000104A204625F0C8FE41EC1B0B9FED4A0B38
:1009F00053EC102B25F072F941EC1A0B25F080F81E
:100A000008EE900A4248B0F90600A0F2DC5000EE71
:100A1000900AF8EEE00AB0EE600AF3EE090A13F06D
:100A2000BFF83F48D0ED000A20EE200AF0EE409AD1
:100A3000DFED3C0A13F0B4F83B48D0ED000AF1EECC
:100A4000600AB4EEE00AF1EE10FA04D290ED000A6A
:100A5000B1EE400A3EE02E48B0F90600A0F2DC50AC
:100A600000EE900AF8EEE00AB0EE600AF3EE090A32
:100A700013F096F82A48D0ED000A20EE200AF0EE96
:100A8000409ADFED280A13F08BF82748D0ED000AD2
:100A9000B4EEE00AF1EE10FA02DD90ED000A19E082
:100AA0001B48B0F90600A0F2DC5000EE900AF8EE08
:100AB000E00AB0EE600AF3EE090A13F071F8184884
:100AC000D0ED000A20EE200AF0EE409ADFED150A84
:100AD00013F066F82AE00000540C0020FCA9F1D2C3
:100AE0004D62503F9A9999999999A93F43000020E6
:100AF00050D20120E4B50120DC9B01204A0C022BDE
:100B00008716F13F04D60120C4B7012034B4012078
:100B1000A0B70120200B00200000000000408F4003
:100B2000080000203D0AD73F240B0020B0EE409A79
:100B3000FE4880ED089AFE48B0F90000A0F2DC50B3
:100B400000EE900AF8EEE00AB0EE600AF3EE090A51
:100B500013F026F8F748D0ED000A20EE200AF0EE58
:100B6000409A5FED100A13F01BF8F348D0ED000A2D
:100B7000F1EE600AB4EEE00AF1EE10FA04D290ED64
:100B8000000AB1EE400A3EE0E948B0F90000A0F2E8
:100B9000DC5000EE900AF8EEE00AB0EE600AF3EEE8
:100BA000090A12F0FDFFE348D0ED000A20EE200A0A
:100BB000F0EE409A5FED250A12F0F2FFDE48D0ED2C
:100BC000000AB4EEE00AF1EE10FA02DD90ED000A40
:100BD00019E0D748B0F90000A0F2DC5000EE900A0E
:100BE000F8EEE00AB0EE600AF3EE090A12F0D8FF60
:100BF000D048D0ED000A20EE200AF0EE409A5FEDDA
:100C0000370A12F0CDFFC94880ED070AB0EE000A9E
:100C100028EE800A80ED060A90ED070AF0EE000A41
:100C200020EE200AD0ED210AB8EE081A70EE810AF3
:100C3000B4EEE00AF1EE10FA06D290ED210AF8EED9
:100C4000080A30EE200A1FE0B84890ED070AF0EEDF
:100C5000000A20EE200AD0ED210AB0EE081A70EE4C
:100C6000810AB4EEE00AF1EE10FA06DD90ED210AF9
:100C7000F0EE080A30EE200A06E0AC4890ED070AD4
:100C8000F0EE000A20EE200AA84880ED1B0A90ED45
:100C9000100AB5EEC00AF1EE10FA02DD90ED100A6E
:100CA00004E0A24890ED100AB1EE400A10EE101ACE
:100CB000084625F061FD41EC1A0B9FEDA00B53ECAB
:100CC000102B25F061FB04D2984890ED970A80ED37
:100CD0001C0A964890ED060AB5EEC00AF1EE10FA2D
:100CE0000AD190ED080AB5EEC00AF1EE10FA03D170
:100CF000002180F8D51403E001218C4880F8D51438
:100D00008B48B0F9080040F2DC5188424ADA8D483D
:100D10000068884246DD854890EDD60AB5EEC00AE7
:100D2000F1EE10FA3ED19FED880A80ED060A80EDC3
:100D30000A0ABCEEC00A10EE100AC0B27B4981F864
:100D4000360381F8370300242AE0BBEE090AC4EB1E
:100D5000041000EB80007D4901EBC00080ED050A26
:100D60009FED7B0AC4EB041000EB800001EBC00098
:100D700080ED060AC4EB041101EB8101734A02EB1A
:100D8000C100B0EE480A17F09FFE0120C4EB041129
:100D900001EB81016D4A02EBC10181F82801641C5D
:100DA000042CD2DB6248B0F9080066490860ABE267
:100DB0006848C07A02286FD1674890ED000AB1EE0A
:100DC000400A10EE100A25F0D7FC41EC1B0B5848E6
:100DD000B0F90400A0F2DC5000EE900AF8EEE00A50
:100DE000B0EE600AF3EE090A12F0DAFE5A48D0EDCE
:100DF000000A20EE200A10EE104A204625F0BCFC26
:100E000041EC1D0B1FEDBC0B53EC102B24F066FFC7
:100E100041EC1C0B53EC1B2B25F07CF909D24E48FE
:100E200090ED000AB1EE400A10EE100A25F0A4FC85
:100E300056E04948006825F09FFC41EC1B0B3C48FC
:100E4000B0F90400A0F2DC5000EE900AF8EEE00ADF
:100E5000B0EE600AF3EE090A12F0A2FE3E48D0EDB1
:100E6000000A20EE200A10EE104A204625F084FCED
:100E700041EC1D0B1FEDD80B53EC102B24F02EFF73
:100E800041EC1C0B53EC1B2B25F07EFA05D23248AB
:100E9000006825F071FC23E023E22548B0F9040046
:100EA000A0F2DC5000EE900AF8EEE00AB0EE600A24
:100EB000F3EE090A12F074FE2748D0ED000A20EE86
:100EC000200A10EE104A204625F056FC41EC1B0B80
:100ED00000E077E21FEDF00B53EC102B24F0FEFE48
:100EE00041EC1A0B24F00CFE08EE900A1048B0F901
:100EF0000600A0F2DC5000EE900AF8EEE00AB0EE38
:100F0000600AF3EE090A12F04BFE0A48D0ED000A1F
:100F100020EE200AF0EE409ADFED100A12F040FEBB
:100F20000548D0ED000AF1EE600A19E050D2012028
:100F3000A0B7012008000020240B00209A9999995D
:100F40009999B93F4C00002000000000F0C8012032
:100F500000004D43E4B50120200B00203D0AD73F9F
:100F6000B4EEE00AF1EE10FA04D290ED000AB1EE10
:100F7000400A3EE0FE48B0F90600A0F2DC5000EE68
:100F8000900AF8EEE00AB0EE600AF3EE090A12F0F9
:100F900007FEF848D0ED000A20EE200AF0EE409A55
:100FA0005FED120A12F0FCFDF348D0ED000AB4EE3A
:100FB000E00AF1EE10FA02DD90ED000A19E0EC48CB
:100FC000B0F90600A0F2DC5000EE900AF8EEE00A5C
:100FD000B0EE600AF3EE090A12F0E2FDE548D0ED4A
:100FE000000A20EE200AF0EE409A5FED240A12F08B
:100FF000D7FDB0EE409AE148007838B1E04880ED86
:10100000079A1FED2F0A80ED080A08E0B1EE490AA1
:10101000DB4880ED080A1FED340A80ED070AD84846
:1010200090ED070AF0EE000A20EE200AD0ED210A2A
:10103000B8EE081A70EE810AB4EEE00AF1EE10FA8A
:1010400006D290ED210AF8EE080A30EE200A1FE0E1
:10105000CB4890ED070AF0EE000A20EE200AD0ED12
:10106000210AB0EE081A70EE810AB4EEE00AF1EE41
:1010700010FA06DD90ED210AF0EE080A30EE200AA3
:1010800006E0BF4890ED070AF0EE000A20EE200AC5
:10109000BB4880ED1B0AB9484078E0B3B948006806
:1010A00025F06AFB41EC1B0B9FEDB70B53EC102BAB
:1010B00025F06CF841EC1A0B24F022FD09EE900AA1
:1010C000F0EE690AB0EE680A12F06AFDF3EE040A67
:1010D00060EE200AAA4890ED060A00EE880A80ED2C
:1010E000060AA84890ED000AB1EE400A10EE100A78
:1010F00025F042FB41EC1D0B9FEDA50B53EC102B93
:1011000025F044F841EC1B0B9D4890ED060A10EECB
:10111000101A084600E053E025F02EFB41EC1C0BB2
:1011200053EC1B2B24F0F6FF11D2964890ED000AE9
:10113000B1EE400A10EE100A25F01EFB41EC1B0B2D
:101140009FED930B53EC102B25F020F831E08D48E8
:10115000006825F011FB41EC1D0B9FED8D0B53EC4E
:10116000102B25F013F841EC1B0B854890ED060A77
:1011700010EE101A084625F0FFFA41EC1C0B53EC58
:101180001B2B25F001F90CD27E48006825F0F4FAFB
:1011900041EC1B0B9FED7E0B53EC102B24F0F6FF64
:1011A00007E0774890ED060A10EE101A084625F081
:1011B000E3FA41EC1A0B24F0A3FC7149886106E0C4
:1011C000B0EE000A28EE800A6D4880ED060A6C48F1
:1011D00090ED100AB5EEC00AF1EE10FA02DD90EDC6
:1011E000100A04E0664890ED100AB1EE400A10EED5
:1011F000101A084625F0C0FA41EC1A0B1FEDB10B8E
:1012000053EC102B25F0C0F804D25D4890ED970AFE
:1012100080ED1C0A5A4890ED060AB5EEC00AF1EEC0
:1012200010FA0AD190ED080AB5EEC00AF1EE10FAF4
:1012300003D1002180F8D51403E00121504880F843
:10124000D5144E484078E8B34C480078D0B34C48A9
:1012500090EDD60AB5EEC00AF1EE10FA54D11FEDAA
:10126000C60A80ED060A80ED0A0ABCEEC00A10EE3E
:10127000100AC0B2424981F8360381F837030024CE
:101280002CE0BBEE090AC4EB041000EB80004249DD
:1012900001EBC00080ED050A1FEDD30AC4EB04107A
:1012A00000EB800001EBC00080ED060AC4EB0411E6
:1012B00001EB8101384A02EBC100B0EE480A17F099
:1012C00003FC00E020E00120C4EB041101EB8101EC
:1012D000314A02EBC10181F82801641C042CD0DBE7
:1012E00012E01FEDE70A264880ED1B0A80ED080A90
:1012F00080ED070A80ED060ABCEEC00A10EE100A67
:10130000C1B21F4880F8D5141C4801791C4880F8E8
:10131000D614B0EE480A11F0F7FC204890ED000A10
:10132000B5EEC00AF1EE10FA04D090ED000A1448B0
:1013300080ED060A124890F85C03012808D10220CB
:101340000F4981F85C034FF4FA71042009F07EFF25
:10135000B0EE480A1EF0D2FE022805D0084890F8E8
:101360005C0308B909F084FF054991F8360317E0DA
:10137000A0B7012008000020240B00206C040020EE
:1013800050D20120200B0020000000000000D03FC0
:10139000666666666666EE3FF0C8012014000020AF
:1013A00007F012FD0020FE490870B0EE480A20F058
:1013B00088FAB0EE480A09F003FA08F06FFA05203F
:1013C00001F05DF8FFF788B996B0FCE3022008F061
:1013D00050FEF44880ED010AF34800780A287DD2D7
:1013E000DFE800F00552FEFCFBFAF9F8F7F6EF48EB
:1013F00000880A2190FBF1F000B2159000200890BF
:1014000009900A900B900490059006900790E84888
:1014100090ED030ADFEDE70A20EE200ABDEEC00AD8
:1014200010EE100A00B2E24991ED020ADFEDE10A86
:1014300020EE200ABDEEC00A10EE101A09B2DB4BF6
:101440009B881BB2159ACDE90032CDE90210D7482E
:10145000808C4042C821484300B21490D348408B4E
:10146000484300B21390D148008A40426421484367
:1014700000B21290CD48C088484300B2119012A922
:101480000EC90DF077FB10E2CB48D0F8BC000D90F0
:1014900025F072F99FEDC90B53EC102BCDE90E012D
:1014A0009DED0E0B51EC100B24F070FE9FEDC50B63
:1014B00053EC102BCDE910019DED100B51EC100BEE
:1014C00024F064FECDE912019DED120B51EC100BDE
:1014D00024F098FD00B21590002000E0FEE3089093
:1014E00009900A900146024603460B90B24890EDDF
:1014F000B50ADFEDB60A20EE200ABDEEC00A10EEF6
:10150000100A00B2CDE9053207910490AA4890ED87
:10151000040ADFEDAE0A20EE200ABDEEC00A10EE8E
:10152000100A00B2AA49159A91ED300ADFEDA70A18
:1015300020EE200ABDEEC00A10EE101A09B2A44B2C
:1015400093ED180ADFEDA10A20EE200ABDEEC00AD5
:1015500010EE103A1BB2CDE90031CDE902209C48D3
:1015600090EDBC0ADFED990A20EE200ABDEEC00A1C
:1015700010EE100A00B21490954890ED260ADFEDA7
:10158000930A20EE200ABDEEC00A10EE100A00B247
:1015900013908F4890ED0A0ADFED8C0A20EE200AA6
:1015A000BDEEC00A10EE100A00B21290824890ED13
:1015B000B10ADFED860A20EE200ABDEEC00A10EE69
:1015C000100A00B2119012A90EC90DF0D3FAF4E37B
:1015D00096E3FCE274E2EEE168E1B9E069E0FFE77E
:1015E0007C48006825F0C8F89FED7B0B53EC102B6E
:1015F000CDE90C019DED0C0B51EC100B24F0C6FD58
:10160000CDE90E019DED0E0B51EC100B24F0FAFC10
:1016100000B215906548C08B0A2190FBF1F000B232
:1016200014906248808A90FBF1F000B213905F48FA
:10163000408990FBF1F000B212905C4801880A20CA
:1016400091FBF0F000B211900020089009900A90F0
:1016500002460B906249159891ED000AF2EE040AD9
:1016600020EE200ABDEEC00A10EE101A09B20023C7
:10167000CDE90431CDE90602DDE91123DDE91310DE
:10168000CDE90023CDE902104848408C00B210900B
:101690004648008B00B20F904448C08900B20E90BB
:1016A0004248808800B20D900EA90EC90DF062FA72
:1016B00083E30020089009900A900B900490059015
:1016C000069007903C4890ED9E0ABDEEC00A10EED1
:1016D000100A01B2384890ED080ABDEEC00A10EEBB
:1016E000100A00B20023344A92ED970ABDEEC00AF8
:1016F00010EE102A12B2CDE90023CDE902012E48E6
:1017000090ED1C0ABDEEC00A10EE100A00B2159052
:10171000294890EDB50ADFED2D0A20EE200ABDEE36
:10172000C00A10EE100A00B21490234890ED040A8B
:10173000DFED260A20EE200ABDEEC00A10EE100AE8
:1017400000B213900022DDE914130DF013FA34E314
:101750000020089009900A900146024603460B902B
:10176000204890ED320ADFED130A20EE200ABDEE8C
:10177000C00A10EE100A00B2CDE9053207910490BC
:101780000D4890EDB50ADFED110A20EE200ABDEEFE
:10179000C00A10EE100A02B2074890ED040A23E0D6
:1017A00042000020540C002018000020B6AC01209C
:1017B000DC9B01200000C84250D201202D431CEBCD
:1017C000E2361A3F0000000000408F4000007A44DB
:1017D000F0C80120BC0400200000000000002440EC
:1017E000C0040020B4D501205FED080A20EE200AD5
:1017F000BDEEC00A10EE100A00B2FE4991ED1E0ABD
:10180000F2EE040A20EE200ABDEEC00A10EE101A15
:1018100009B2F84B93EDA30AF2EE040A20EE200A77
:10182000BDEEC00A10EE103A1BB2CDE90031CDE991
:101830000202F04890ED1B0AD0ED210A30EE200A9A
:10184000F2EE040A20EE200ABDEEC00A10EE100AE5
:1018500000B21490E74890ED9D0AF2EE040A20EEE3
:10186000200ABDEEC00A10EE100A00B21590E14841
:1018700090EDA00AF2EE040A20EE200ABDEEC00AA6
:1018800010EE100A00B21390DA4890ED960AF2EECC
:10189000040A20EE200ABDEEC00A10EE100A00B2C3
:1018A000129013A90EC90DF065F986E20020089088
:1018B00009900A900146024603460B90CE4890EDEF
:1018C000320A5FED440A20EE200ABDEEC00A10EE97
:1018D000100A00B2CDE9053207910490C54890ED99
:1018E000B50A5FED460A20EE200ABDEEC00A10EEF2
:1018F000100A00B2BF4991ED040A5FED4C0A20EED8
:10190000200ABDEEC00A10EE101A09B2B94A92EDD3
:101910001E0AF2EE040A20EE200ABDEEC00A10EE06
:10192000102A12B2B34B93EDA30AF2EE040A20EE92
:10193000200ABDEEC00A10EE103A1BB2CDE900320B
:10194000CDE90210AB4890EDAE0A5FED660A20EEDD
:10195000200ABDEEC00A10EE100A00B21590A5488C
:1019600090EDAD0A5FED6D0A20EE200ABDEEC00AD3
:1019700010EE100A00B214909E4890EDAC0A5FED94
:10198000730A20EE200ABDEEC00A10EE100A00B263
:101990001390984890EDAB0A5FED7A0A20EE200A8A
:1019A000BDEEC00A10EE100A00B2129013A90EC9C3
:1019B0000DF0E0F801E20020089009900A9001463D
:1019C000024603460B908D4890ED4C0A5FED870A66
:1019D00020EE200ABDEEC00A10EE100A00B2CDE9DA
:1019E000053207910490864890ED4C0A5FED8F0A0E
:1019F00020EE200ABDEEC00A10EE100A01B28148A6
:101A000090EDE20A5FED950A20EE200ABDEEC00AD5
:101A100010EE100A00B27B4A92ED4C0A5FED9B0A71
:101A200020EE200ABDEEC00A10EE102A12B2764B4C
:101A300093ED000A5FEDA10A20EE200ABDEEC00A78
:101A400010EE103A1BB2CDE90032CDE902016B482D
:101A500090ED4B0A5FEDA90A20EE200ABDEEC00A08
:101A600010EE100A00B21590654890ED4B0A5FED3C
:101A7000AF0A20EE200ABDEEC00A10EE100A00B236
:101A80001490604890EDE10A5FEDB60A20EE200A5E
:101A9000BDEEC00A10EE100A00B21390594890ED46
:101AA0004B0A5FEDBC0A20EE200ABDEEC00A10EE24
:101AB000100A00B2129013A90EC90DF05BF87CE178
:101AC0000020089009900A900146024603460B90B8
:101AD0004A4890ED4C0A5FEDC90A20EE200ABDEE9F
:101AE000C00A10EE100A00B2CDE905320791049049
:101AF000434890ED4C0A5FEDD10A20EE200ABDEE7E
:101B0000C00A10EE100A01B23E4890EDE20A5FED05
:101B1000D70A20EE200ABDEEC00A10EE100A00B26D
:101B2000384A92ED4C0A5FEDDD0A20EE200ABDEE48
:101B3000C00A10EE102A12B2334B93ED000A5FED8B
:101B4000E30A20EE200ABDEEC00A10EE103A1BB2E6
:101B5000CDE90032CDE902012C4890ED040A5FED99
:101B6000EB0A20EE200ABDEEC00A10EE100A00B209
:101B70001590264890ED030A5FEDF20A20EE200A48
:101B8000BDEEC00A10EE100A00B214901F4890ED8E
:101B9000020A5FEDF80A20EE200ABDEEC00A10EE40
:101BA000100A00B21390194890ED010ADFED180AEF
:101BB00020EE200ABDEEC00A10EE100A00B212900C
:101BC00013A90EC900E00BE10CF0D4FFF5E00020F2
:101BD000089009900A900146024603460B90074878
:101BE00090ED4C0ADFED0A0A20EE200ABDEEC00A95
:101BF00010E0000050D20120B4D50120F8CF012020
:101C0000A0CD0120F0C801201C000020DC9B012099
:101C10000000C84210EE100A00B2CDE9053207916B
:101C20000490A94890ED4C0A5FED070A20EE200AC7
:101C3000BDEEC00A10EE100A01B2A44890EDE20A0F
:101C40005FED0D0A20EE200ABDEEC00A10EE100A6C
:101C500002B29E4890ED4C0A5FED130A20EE200A76
:101C6000BDEEC00A10EE100A00B2984B93ED9E0A2A
:101C70005FED190A20EE200ABDEEC00A10EE103A00
:101C80001BB2CDE90030CDE90221904890ED080A61
:101C90005FED210A20EE200ABDEEC00A10EE100A08
:101CA00000B215908A4890ED030A5FED270A20EEF6
:101CB000200ABDEEC00A10EE100A00B2149085484A
:101CC00090EDFC0ADFED840A20EE200ABDEEC00A8A
:101CD00010EE100A00B213907E4800E06CE090ED28
:101CE000FB0ADFED7D0A20EE200ABDEEC00A10EEF1
:101CF000100A00B2129013A90EC90CF03BFF5CE071
:101D00000020089009900A900B900490059006908E
:101D100003460790714890ED0F0AF2EE040A20EE98
:101D2000200ABDEEC00A10EE100A00B26B4991ED18
:101D3000060A5FED490A20EE200ABDEEC00A10EE49
:101D4000101A09B2664A1288654C2489121B12B215
:101D5000CDE90203CDE900216148808800B21590E9
:101D60005E4890ED090A5FED560A20EE200ABDEEAE
:101D7000C00A10EE100A00B21490564890EDB10A55
:101D80005FED5D0A20EE200ABDEEC00A10EE100ADB
:101D900000B213904F4890EDAD0A5FED630A20EE5C
:101DA000200ABDEEC00A10EE100A00B2129013A96C
:101DB0000EC90CF0DFFE00E000BF00BF0DF01EFBFF
:101DC0000DF02CFE474801780078401C454A107001
:101DD000002902DD0020114608700A2000F04FFBA8
:101DE000FFF7F4BA404A1278052A04D100223F4B8B
:101DF0001A803D4B1A703D4A12883D4B1B781A449D
:101E00003A4B1A80384A1278521C374B1A70704776
:101E100070B52DED028B04460D469FED360A07F096
:101E2000DEF83549488B498B491C334B598324F0E4
:101E30005DF941EC180B9FED310B53EC102B24F0A6
:101E4000A3FA02D200202C498877224890F8DA14AD
:101E500090F8DA04401CC2B21E4880F8DA247D29CA
:101E600002DD002180F8D9142649B1F8A400B1F8A8
:101E7000A410491C234BA3F8A41024F037F941EC1B
:101E8000180B9FED210B53EC102B24F07DFA03D29D
:101E900000201C4981F8A3001D49C88BC98B491C2F
:101EA0001B4BD98324F022F941EC180B9FED160B44
:101EB00053EC102B24F068FA02D200201449487722
:101EC000BDEC028B70BD0000A0CD0120F0C8012048
:101ED000DC9B012050D2012000007A4480C6012002
:101EE00058BB012050000020540000202C0000208E
:101EF000A4000020CDCC4C3D34B4012000000000F3
:101F00000000444084AD01200000000000004E406D
:101F100064AD01207FB50446002500BF002004F019
:101F2000A0FA764908604FF48071754804F098FC77
:101F30007449086003A9002003F0F8FE72490860A4
:101F400003F094FC03A871A10022724BCDE900219B
:101F5000029002220A21084605F0E3FD6E4908605E
:101F600003A96D48006805F06EFF03A86BA100226D
:101F70006C4BCDE900210290022205210A2005F0D8
:101F8000D0FD6949086003A96748006805F05BFF58
:101F900006F0C8F805460223644A0021644805F0AB
:101FA00087F90323634A0021634805F081F901237F
:101FB000624A0021624805F07BF90423614A00214E
:101FC000614805F075F9142005F0F2FB284606F08B
:101FD000ADF87FBD10B54FF4A06000F07BFAA820EB
:101FE00000F0FCF908F08BF806F0FBFE08F0B4F8FE
:101FF000322007F0F0FE322007F0B9FD06F0B5FF01
:102000005321002009F0C0F84FF4E1300BF052FCEE
:102010004FF4E1300BF0BBFC4FF4E1300BF08DFDE1
:102020004FF4E1300BF01CFD48480BF0F3FD40F697
:10203000B83008F012F806F098FF09F07BF9642038
:1020400008F00BF80EF0D6FB642008F006F80FF04D
:102050001EFE08F0B7F83D480BF0DCFD642007F0E9
:10206000FCFF09F09AFB642007F0F7FF06F048FA3E
:10207000642007F0F2FF36480178032009F0ECFAFB
:10208000642007F0EAFF09F0ACFA642007F0E5FFEE
:1020900009F025FE08F096F82E48007901280AD1AB
:1020A0002C48C07A012806D12A48007A18B10220AB
:1020B00008F030FF02E0012008F02CFF03F097FA4F
:1020C0001423254A0021AFF2B31005F0F1F803F014
:1020D000B5FB002010BD1CB50FE001A800230322B2
:1020E0001F2100900848006803F086FF01AB002222
:1020F0001F210548006804F0BFF8EEE75C000020EF
:10210000888401206000002064000020746D72311A
:1021100000000000E51D000820000020746D7232F0
:1021200000000000111E000824000020786F01202C
:10213000D106000878830120C9130008781B00200D
:1021400069020008787F002005060008A0860100CB
:1021500068000020E4B5012084840120704701203C
:102160000549087000BFFEE700BFFEE700BFFEE7BD
:1021700000BFFEE7704770476C0000200CB50020E0
:10218000019000907648006840F4803074490860FF
:1021900000BF7348006800F4003000900198401CB4
:1021A0000190009818B90198B0F5A04FF1D16C4892
:1021B000006800F4003010B10120009001E0002020
:1021C00000900098012846D165484030006840F0F2
:1021D00080506349403108606248006840F44040E4
:1021E000604908605E48083000685D490831086051
:1021F0000846006840F4004008600846006840F463
:10220000A05008605848091F0860081F006840F087
:102210008070091F086000BF5148006800F000701E
:102220000028F9D040F20570504908604C48083049
:10223000006820F003004A49083108600846006839
:1022400040F00200086000BF45480830006800F018
:102250000C000828F8D10CBD10B54548006840F4C2
:102260007000434908603E48006840F001003C4966
:10227000086000203A4908310860394800683D4943
:102280000840374908603C48091D0860081F00687D
:1022900020F48020091F0860002031490C310860BB
:1022A000FFF76CFF4FF0006031498039086010BDC6
:1022B00070B500200022022300240221284D083599
:1022C0002D6805F00C0020B1042806D0082834D170
:1022D00007E02A4D2A4E356033E02A4D284E3560FE
:1022E0002FE01F4D2D1D2D68C5F380541C4D2D1D55
:1022F0002D6805F03F0154B1224DB5FBF1F5184EA4
:10230000361D3668C6F3881605FB06F209E01B4D3C
:10231000B5FBF1F5124E361D3668C6F3881605FB7F
:1023200006F20F4D2D1D2D68C5F301456D1C6B0088
:10233000B2FBF3F5124E356003E0104D104E3560E0
:1023400000BF00BF064D08352D68C5F303150E4EBE
:10235000705D0B4D2D68C540094E356070BD0000A5
:10236000003802400070004008544007003C024022
:1023700088ED00E0FFFFF6FE103000240024F4009A
:102380007000002000127A00740000200948804785
:1023900009480047FEE7FEE7FEE7FEE7FEE7FEE747
:1023A000FEE7FEE7FEE7FEE704480549054A064B5F
:1023B00070470000592200088901000810DF012041
:1023C00010E5012010E1012010E1012010B503F01B
:1023D00026F903F06AFA03F03DF910BD70B5044622
:1023E0006FF0040000F0C8F8E11704EB5171C1F37D
:1023F000C701344A1170E11704EB5171CD1041F25D
:10240000883045430520304908804FF0E0200069BE
:1024100040F002004FF0E021086108464561006984
:1024200040F00100086170BD2DE9F0470746002625
:102430004FF0E020D0F814902248007807FB00F815
:1024400000BF03F03FF94FF0E020856911E04FF045
:10245000E0208469AC420CD0AC4202D2281B064476
:1024600003E0A9EB0400284406442546464500D372
:1024700000E0ECE700BF03F06AF9BDE8F08770B553
:10248000044612480078012814D11148007888B910
:102490000D480088844206DB0B48008894FBF0F569
:1024A000284605F04DFA0848008894FBF0F100FB3F
:1024B000114084B24FF47A7104FB01F0FFF7B4FFCE
:1024C00070BD00008400002086000020BE000020B7
:1024D000B200002032490143324A1160704770B5A2
:1024E000002100230F22C4781CB32E4C246804F46E
:1024F000E064C4F5E064C4F30721C1F10404E3B26D
:102500000A4144789C40E1B28478144021430C078E
:10251000210E254C05786155047804F01F0501242F
:10252000AC4005786D11AD0005F1E025C5F800411E
:1025300009E0047804F01F050124AC401B4D067827
:10254000761145F8264070BD194A0A400243154BE2
:102550001B1F1A60704739B1124A121D12680243DC
:10256000104B1B1D1A6006E00E4A121D12688243B2
:102570000C4B1B1D1A607047042808D14FF0E02156
:10258000096941F004014FF0E022116107E04FF0CA
:10259000E021096921F004014FF0E0221161704748
:1025A0000000FA050CED00E000E400E080E100E04E
:1025B00080FFFF1F10B504469848844208D10121CE
:1025C000084600F086FB0021012000F082FB76E047
:1025D0009348844208D10121022000F07AFB0021B7
:1025E000022000F076FB6AE08E48844208D1012187
:1025F000042000F06EFB0021042000F06AFB5EE086
:102600008948844208D10121082000F062FB0021A2
:10261000082000F05EFB52E08448844208D101218A
:10262000102000F056FB0021102000F052FB46E085
:102630007F48844208D10121202000F04AFB00217C
:10264000202000F046FB3AE07A48844208D101217C
:10265000402000F03EFB0021402000F03AFB2EE03D
:102660007548844208D10121802000F032FB00210E
:10267000802000F02EFB22E07048844208D1012126
:10268000801500F026FB0021A01500F022FB16E0CB
:102690006B48844208D10121401500F01AFB00214B
:1026A000601500F016FB0AE06648844207D101215C
:1026B000001500F00EFB0021201500F00AFB10BDF4
:1026C000F0B50A4600210023002400BF3DE00125AB
:1026D00005FA01F3156805EA03049C4234D1056844
:1026E0004F000326BE40B543056015794E00B54046
:1026F0000668354305601579012D02D01579022D44
:1027000016D185684F000326BE40B54385605579D4
:102710004E00B540866835438560456801268E4089
:10272000B5434560456896798E40B6B235434560FD
:10273000C5684F000326BE40B543C560D5794E003D
:10274000B540C6683543C560491C1029BFD3F0BDEC
:102750004FF6FF7101600021017141718171C171FA
:10276000704708B54FF480320092009A0A430092F5
:10277000009AC261C161009AC261C2690092C269D5
:10278000009208BD0246002013690B400BB10120E6
:1027900000E0002070470146086980B27047024699
:1027A000002053690B400BB1012000E0002070476E
:1027B0000146486980B27047018370474183704782
:1027C0000AB1018300E0418370474161704742696B
:1027D0004A4042617047F0B5002300244D07ED0EDA
:1027E00002FA05F3CE1000F1200555F826504E07E9
:1027F000F70E0F26BE40B543CF1000F1200646F875
:102800002750CE1000F1200555F8265045EA030464
:10281000CE1000F1200545F82640F0BD0000024032
:102820000004024000080240000C02400010024078
:102830000014024000180240001C02400020024028
:102840000024024000280240F948006840F00100DE
:10285000F74908600020F64908310860F44800682C
:10286000F4490840F2490860F348091D0860F3483C
:10287000EF4984310860F0481038091D0860EC48C1
:10288000006820F48020EA4908600020E8490C3103
:102890000860E7498C31086070470021E44A921CC7
:1028A000117011460870704710B5014600220023D0
:1028B00000204A11012A02D1DD4C236808E0022AD7
:1028C00003D1DB4C7034236802E0D94C74342368A4
:1028D00001F01F02012494401C400CB1012000E0D3
:1028E000002010BD38B5002000900024002500BF56
:1028F0003120FFF7D9FF05460098401C0090009852
:10290000B0F5A04F01D0002DF2D03120FFF7CCFF61
:1029100008B1012400E00024204638BD0146002013
:10292000C34A106820F0F80040EAC1001060704708
:10293000C349086070470021BD4A703211701170A0
:10294000012802D004280AD104E00121B84A7032DB
:10295000117005E00521B64A7032117000E000BF29
:1029600000BF7047B7490860704770B5049C41EAE2
:1029700082150126C6EB530645EA0645054345EA9E
:102980000465AB4E361D356070BDAD4908667047B5
:10299000820142EA0172A64B84331A607047A8494B
:1029A0008866704710B5830143EA016343EA027306
:1029B0009F4C8834236010BDA14908677047A04927
:1029C000C864704702460020994B0833186820F00D
:1029D000EC6042EA01031843954B083318607047D6
:1029E00002460020924B0833186820F0784042EAF3
:1029F000010318438E4B08331860704701460020CE
:102A00008B4A0832106820F00300084310607047BA
:102A100087480830006800F00C007047014600202D
:102A2000834A0832106820F0F000084310607047B5
:102A3000014600207E4A0832106820F4E050084326
:102A40001060704701460020794A0832106820F46F
:102A5000604040EAC10010607047F0B500210022DC
:102A60000024022500260223714F08373F6807F033
:102A70000C0121B1042905D0082937D105E0724F96
:102A8000076036E0714F076033E0694F3F1D3F68D4
:102A9000C7F38056664F3F1D3F6807F03F036EB196
:102AA0006A4FB7FBF3F7DFF888C10CF1040CDCF8D0
:102AB00000C0CCF3881C07FB0CF40CE0624FB7FBA2
:102AC000F3F7DFF86CC10CF1040CDCF800C0CCF3B8
:102AD000881C07FB0CF4564F3F1D3F68C7F30147A6
:102AE0007F1C7D00B4FBF5F7076002E0564F0760DE
:102AF00000BF00BF4E4F08373F6807F0F0010909DB
:102B0000534F7A5C0768D7404760494F08373F68A2
:102B100007F4E051890A4E4F7A5C4768D7408760D6
:102B2000434F08373F6807F46041490B484F7A5CD0
:102B30004768D740C760F0BD002100F44072B2F58D
:102B4000407F0AD13A4A0832116821F4F811414A0B
:102B500002401143364A08321160354A7032126819
:102B6000C0F30B031A43324B70331A607047354978
:102B70004439086070473349403908607047364926
:102B80000860704701460020294A8C32106820F006
:102B90001F004A1E1043264A8C32106070470146BF
:102BA0000020234A8C32106820F4F8504A1E40EA74
:102BB00002201F4A8C3210607047014600201C4AD8
:102BC0008C32106820F440100843106070470146B2
:102BD0000020174A8C32106820F44000084310602F
:102BE000704701460020124A8C32106820F44030B1
:102BF00008431060704719490860704739B10C4AA2
:102C00003032126802430A4B30331A6006E0084A39
:102C1000303212688243064B30331A607047F9B184
:102C2000034A343212680243014B34331A601CE009
:102C300000380240FFFFF6EA103000240030002088
:102C400000004742800E47420024F40000127A0040
:102C500088000020FFFCFF0F5C014742E011474263
:102C60008F4A126882438E4B1A60704739B18C4A82
:102C7000121D126802438A4B1B1D1A6006E0884A27
:102C8000121D12688243864B1B1D1A60704739B1B2
:102C9000834A0C3212680243814B0C331A6006E0FF
:102CA0007F4A0C32126882437D4B0C331A607047A6
:102CB00039B17B4A103212680243794B10331A60E3
:102CC00006E0774A103212688243754B10331A605F
:102CD000704739B1724A243A12680243704B243B60
:102CE0001A6006E06E4A243A126882436C4B243B19
:102CF0001A60704739B16A4A203A12680243684B39
:102D0000203B1A6006E0664A203A12688243644B10
:102D1000203B1A60704739B1614A1C3A126802437D
:102D20005F4B1C3B1A6006E05D4A1C3A1268824306
:102D30005B4B1C3B1A60704739B1594A143A126810
:102D40000243574B143B1A6006E0554A143A126886
:102D50008243534B143B1A60704739B1504A103AC2
:102D6000126802434E4B103B1A6006E04C4A103A80
:102D7000126882434A4B103B1A60704739B1484A87
:102D80001C3212680243464B1C331A6006E0444A68
:102D90001C3212688243424B1C331A60704739B1AF
:102DA0003F4A2032126802433D4B20331A6006E04E
:102DB0003B4A203212688243394B20331A607047F5
:102DC00039B1374A243212680243354B24331A6032
:102DD00006E0334A243212688243314B24331A60AE
:102DE000704739B12E4A2C32126802432C4B2C33D7
:102DF0001A6006E02A4A2C3212688243284B2C3390
:102E00001A60704739B1264A303212680243244BA7
:102E100030331A6006E0224A303212688243204B77
:102E200030331A607047012808D11D493C310968C8
:102E300041F008011A4A3C32116007E018493C3160
:102E4000096821F00801164A3C321160704739B117
:102E5000134A273A12780243114B273B1A7006E0B7
:102E60000F4A273A127882430D4B273B1A7070475E
:102E70000B484030006840F08070094940310860DC
:102E8000704701460020064A283A12680A400AB1F3
:102E9000012000E000207047014926390870704782
:102EA0003438024010B50446FA48844208D1012162
:102EB0001020FFF752FF00211020FFF74EFF57E0D0
:102EC000F548844209D101214804FFF735FF00216C
:102ED0004FF40030FFF730FF4AE0F048844209D158
:102EE00001218804FFF728FF00214FF48020FFF71D
:102EF00023FF3DE0EA48844209D10121C804FFF7DD
:102F00001BFF00214FF40020FFF716FF30E0E548DB
:102F1000844209D101210805FFF70EFF00214FF47B
:102F20008010FFF709FF23E0DF48844208D1012128
:102F30002020FFF712FF00212020FFF70EFF17E0EF
:102F4000DA48844209D101218807FFF7F5FE002104
:102F50004FF08040FFF7F0FE0AE0D548844207D1E9
:102F600001214005FFF7E8FE00216005FFF7E4FEC0
:102F700010BD2DE9FF4705460E460024A14600BFBF
:102F8000A046B08900B100BF2C8A24F44054F088D8
:102F900004432C82AC8941F20C608443B0883189AF
:102FA0000843718908430443AC81AC8A24F440741B
:102FB000B0890443AC826846FFF74FFDB5488542AF
:102FC00002D0B948854202D1DDF80C9001E0DDF86D
:102FD0000890A88900F4004040B109EBC90000EB5B
:102FE000091031684900B0FBF1F707E009EBC900AF
:102FF00000EB091031688900B0FBF1F76420B7FBE2
:10300000F0F004012009642101FB1078A88900F484
:10301000004040B1322000EBC800B0FBF1F000F0FE
:103020000700044308E0322000EB08106421B0FBE5
:10303000F1F000F00F0004432C81BDE8FF874FF44E
:103040001651016000218180C18001810C214181E4
:1030500000218181704710B502460020108A20F4BB
:1030600070600B884C8823438C882343CC8823438F
:103070001843108210BD0021018041808180C180F1
:10308000704721B1828942F40052828104E0828932
:103090004DF6FF731A4082817047028B02F47F4223
:1030A0000283028B0A430283704721B1828942F472
:1030B0000042828103E08289C2F30E02828170475E
:1030C00021B1828A42F40062828204E0828A4FF255
:1030D000FF731A4082827047C1F3080282807047F2
:1030E00001468888C0F308007047028A4FF6F073E3
:1030F0001A400282028A0A430282704721B1828901
:1031000042F00202828104E082894FF6FD731A4088
:103110008281704782894FF2FF731A4082818289CF
:103120000A4382817047028A4FF6DF731A40028297
:10313000028A0A430282704721B1028A42F4804225
:10314000028204E0028A4BF6FF731A400282704743
:10315000818941F001018181704721B1828A42F069
:103160000802828204E0828A4FF6F7731A40828254
:103170007047028BD2B20283028B42EA01220283A1
:10318000704721B1828A42F02002828204E0828A62
:103190004FF6DF731A408282704721B1828A42F073
:1031A0001002828204E0828A4FF6EF731A40828214
:1031B0007047828A4FF6FB731A408282828A0A43E2
:1031C0008282704721B1828A42F00202828204E048
:1031D000828A4FF6FD731A40828270471AB1838A41
:1031E0000B43838202E0838A8B4383827047F0B56E
:1031F0000346002400260025002040F66A17B94245
:1032000000D100BF1846C1F3421401F01F06012788
:1032100007FA06F5012C01D10C3004E0022C01D193
:10322000103000E014301AB107682F43076002E045
:103230000768AF430760F0BD02460020B1F5007F8C
:1032400000D100BF13880B400BB1012000E000202B
:10325000704701F40072B2F5007F00D100BFCA438D
:103260000280704770B5024600240023002500202C
:1032700040F66A16B14200D100BFC1F3421501F019
:103280001F03012606FA03F3012D13D1968933405B
:1032900017E00000001001400044004000480040DA
:1032A000004C0040005000400014014000780040F5
:1032B000007C0040022D02D1168A334001E0968A3C
:1032C00033400C12012606FA04F41688344013B178
:1032D0000CB1012000E0002070BD10B500220023D9
:1032E00040F66A14A14200D100BF0A1201249440A2
:1032F000A3B2DC43048010BD10B50446FE488442EE
:1033000008D101210846FFF728FD00210120FFF721
:1033100024FD9DE0B4F1804F08D101210846FFF75C
:103320000BFD00210120FFF707FD91E0F3488442E7
:1033300008D101210220FFF7FFFC00210220FFF746
:10334000FBFC85E0EE48844208D101210420FFF710
:10335000F3FC00210420FFF7EFFC79E0E948844208
:1033600008D101210820FFF7E7FC00210820FFF722
:10337000E3FC6DE0E448844208D101211020FFF70E
:10338000DBFC00211020FFF7D7FC61E0DF4884421E
:1033900008D101212020FFF7CFFC00212020FFF7DA
:1033A000CBFC55E0DA48844208D101210220FFF726
:1033B000D4FC00210220FFF7D0FC49E0D54884422C
:1033C00009D101210804FFF7C8FC00214FF4803027
:1033D000FFF7C3FC3CE0D048844209D101214804F6
:1033E000FFF7BBFC00214FF40030FFF7B6FC2FE0E5
:1033F000CA48844209D101218804FFF7AEFC0021AC
:103400004FF48020FFF7A9FC22E0C548844208D190
:1034100001214020FFF790FC00214020FFF78CFCA9
:1034200016E0C048844208D101218020FFF784FCC7
:1034300000218020FFF780FC0AE0BB48844207D1CE
:1034400001218015FFF778FC0021A015FFF774FC1F
:1034500010BD00220288A84B98420ED0AC4B984277
:103460000BD0B0F1804F08D0A44B984205D0A44BAC
:10347000984202D0A34B984204D14FF68F731A4062
:103480004B881A43A04B984207D0A04B984204D0D7
:103490004FF6FF431A400B891A4302804B68C36200
:1034A0000B880385944B984202D0994B984201D1E6
:1034B0008B7A03860123838270474FF0FF3141608E
:1034C00000210180018141808172704701858282E3
:1034D00070470A46002101884FF68F731940114347
:1034E0000180704741627047C16270470146486A77
:1034F00070470146088D704721B1028842F00202F0
:10350000028004E002884FF6FD731A400280704783
:1035100021B1028842F00402028004E002884FF6E2
:10352000FB731A400280704721B1028842F080028A
:10353000028004E002884FF67F731A4002807047D1
:1035400002884FF6F7731A40028002880A4302800D
:10355000704702884FF6FF431A40028002880A43F0
:103560000280704721B1028842F00102028004E02B
:1035700002884FF6FE731A400280704770B500242F
:1035800000220023058C4FF6FE7635400584028C20
:103590008388048B4FF68F752C40B51E2C400D8808
:1035A0002C43751E2A408D892A434D882A43524D4B
:1035B000A84202D0564DA84213D14FF6F7752A40C3
:1035C000CD892A434FF6FB752A408D882A434FF652
:1035D000FF652B404FF6FF552B400D8A2B434D8A3C
:1035E0002B43838004838D684563028470BD70B56E
:1035F000002400220023058C4FF6EF763540058429
:10360000028C8388048B48F6FF752C404FF6FF45EB
:103610002C400D884FF6FF7606EA05252C434FF621
:10362000DF752A408D8906EA05152A434D8806EA8A
:1036300005152A43304DA84202D0354DA8421DD170
:103640004FF67F752A40CD894FF6FF7606EA0515BD
:103650002A434FF6BF752A408D8806EA05152A438E
:103660004FF6FF352B404FF2FF752B400D8A06EACF
:1036700085052B434D8A06EA85052B438380048309
:103680008D688563028470BD70B50024002200231C
:10369000058C4FF6FF6635400584028C8388848B49
:1036A0004FF68F752C404FF6FC752C400D882C433F
:1036B0004FF6FF552A408D894FF6FF7606EA05251D
:1036C0002A434D8806EA05252A430B4DA84202D01D
:1036D0000F4DA84238D14FF2FF752A40CD894FF6E1
:1036E000FF7606EA05252A434FF6FF352A408D88E6
:1036F00006EA05252A4319E00000014000040040C5
:1037000000080040000C0040001000400014004081
:1037100000040140004001400044014000480140D5
:1037200000180040001C0040002000404EF6FF75CD
:103730002B404DF6FF752B400D8A06EA05152B43ED
:103740004D8A06EA05152B43838084838D68C56303
:10375000028470BD70B5002200230024058C4EF653
:10376000FF7635400584038C8488828B48F6FF758C
:103770002A404FF6FF452A400D884FF6FF7606EAAD
:1037800005252A434DF6FF752B408D8906EA053540
:103790002B434D8806EA05352B43FE4DA84202D047
:1037A000FD4DA84208D14BF6FF752C400D8A4FF60F
:1037B000FF7606EA85152C43848082838D68056434
:1037C000038470BD002101804180818081608181FE
:1037D000C18101824182704770B5034600200024F8
:1037E0001846183001258D40ACB21D8CA5431D84B0
:1037F00009B108290AD100EB610005684FF68F7600
:10380000354005600568154305600FE00D1FC5F3E1
:103810004E052844056848F6FF7635400560056882
:103820004FF6FF7606EA02263543056070BD416318
:10383000704781637047C1637047016470470A46EF
:103840000021018B4FF68F7319401143018370479C
:103850000A460021018B48F6FF7319404FF6FF73AB
:1038600003EA02231943018370470A460021818B32
:103870004FF68F7319401143818370470A46002128
:10388000818B48F6FF7319404FF6FF7303EA02235A
:103890001943818370470A460021018B4FF6F77365
:1038A00019401143018370470A460021018B4FF2F2
:1038B000FF7319404FF6FF7303EA02231943018394
:1038C00070470A460021818B4FF6F7731940114368
:1038D000818370470A460021818B4FF2FF731940A4
:1038E0004FF6FF7303EA02231943818370470A46A8
:1038F0000021018B4FF6FB73194011430183704780
:103900000A460021018B4FF6FF3319404FF6FF7333
:1039100003EA02231943018370470A460021818B81
:103920004FF6FB7319401143818370470A4600210B
:10393000818B4FF6FF3319404FF6FF7303EA0223E2
:103940001943818370470A460021018B4FF67F732C
:1039500019401143018370470A460021018BC1F3CE
:103960000E014FF6FF7303EA0223194301837047E8
:103970000A460021818B4FF67F73194011438183E2
:1039800070470A460021818BC1F30E014FF6FF7389
:1039900003EA02231943818370470A460021018C00
:1039A0004FF6FD7319401143018470470A46002108
:1039B000018C4FF6F77319401143018470470A4692
:1039C0000021018C4FF6DF7319404FF6FF7303EAB5
:1039D00002131943018470470A460021018C4FF6F7
:1039E0007F7319404FF6FF7303EA021319430184F2
:1039F00070470A460021018C4FF6FF5319404FF6DD
:103A0000FF7303EA02231943018470470A46002129
:103A1000018C4FF2FF7319404FF6FF7303EA022344
:103A20001943018470470A460021018C4DF6FF734B
:103A300019404FF6FF7303EA0233194301847047BC
:103A400030B5002301248C40A3B2048C9C43048431
:103A5000048C02FA01F5ADB22C43048430BD30B5BC
:103A6000002304248C40A3B2048C9C430484048C63
:103A700002FA01F5ADB22C43048430BD828B4FF2C3
:103A8000FF331A408283828B4FF6FF7303EA0123D0
:103A90001A4382837047F0B50C4615460021002278
:103AA0000026078C4EF6FF7C07EA0C070784818B03
:103AB000028C4FF6FF7707EA043640F6FF4739409D
:103AC0004FF6FF7707EA052739434FF6FF7707EAF6
:103AD0000337394345F6FF773A4046F480573A4377
:103AE00081830284F0BD828B4FF6F3731A40828388
:103AF000828B0A4382837047F0B50C46154600213D
:103B000000220026078C4FF6FF6C07EA0C0707849B
:103B1000818B028C4FF6FF7707EA04264FF60C776D
:103B200039404FF6FF7707EA03172F4339434FF227
:103B3000FF573A4046F480773A4381830284F0BDD0
:103B4000028B4FF2FF331A400283028B4FF6FF7352
:103B500003EA01231A4302837047F0B50C46154669
:103B6000002100220026078C4FF6EF7C07EA0C07A5
:103B70000784018B028C4FF6FF7707EA041640F6A4
:103B8000FF4739404FF6FF7707EA033739434FF6CF
:103B9000FF7703E0000001400004014007EA052729
:103BA00039434FF65F773A4046F010073A430183B6
:103BB0000284F0BD028B4FF6F3731A400283028B2E
:103BC0000A4302837047F0B50C46154600210022D7
:103BD000068C4FF6FE773E400684018B028C4FF632
:103BE0000C7631407E1C06EA03162E4331434FF615
:103BF000F576324044F00106324301830284F0BD81
:103C000070B505460C46208850B92389A288618882
:103C10002846FFF7D8FFE1882846FFF7CBFF25E0CD
:103C2000208804280AD12389A28861882846FFF7C2
:103C300094FFE1882846FFF783FF17E020880828D3
:103C40000AD12389A28861882846FFF755FFE188B9
:103C50002846FFF748FF09E02389A28861882846A3
:103C6000FFF719FFE1882846FFF708FF70BD002124
:103C700001804180012181800021C1800181704744
:103C80002DE9F04105460C4600260127608808B959
:103C9000022600E00026A088012801D1022700E0CA
:103CA00001272088A0B92389A28861882846FFF7C8
:103CB0008AFFE1882846FFF77DFF23893A4631468F
:103CC0002846FFF74AFFE1882846FFF739FF13E04F
:103CD0002389A28861882846FFF73FFFE1882846AC
:103CE000FFF72EFF23893A4631462846FFF76BFF40
:103CF000E1882846FFF75EFFBDE8F0810146486B8A
:103D000070470146886B70470146C86B7047014693
:103D1000086C70470A884B881A438B881A43CB88F3
:103D20001A430B891A434B891A438B891A43A0F80B
:103D3000442070470021018041808180C180018141
:103D400041818181704731B1B0F8442042F4004292
:103D5000A0F8442005E0B0F84420C2F30E02A0F819
:103D60004420704721B1828842F00402828004E03E
:103D700082884FF6FB731A408280704721B1828897
:103D800042F00102828004E082884FF6FE731A40FE
:103D9000828070471AB183890B43838102E0838953
:103DA0008B43838170478182704702460020138ACB
:103DB0000B400BB1012000E000207047CA43028293
:103DC000704730B50246002000230024158A05EA1A
:103DD0000103958905EA010413B10CB1012000E04B
:103DE000002030BDCA430282704741EA0203A0F8B6
:103DF000483070471AB183890B43838102E083897D
:103E00008B438381704721B1828842F0080282800F
:103E100004E082884FF6F7731A4082807047018968
:103E20004FF6F8721140018170470A46002101895E
:103E30004FF68F73194011430181704730B5044626
:103E40000D4629462046FFF7F0FF208940F0070085
:103E5000208130BD2DE9F04104460D4616461F462F
:103E6000602D06D13B46012231462046FFF775FE04
:103E700005E03B46012231462046FFF7A4FE2946D5
:103E80002046FFF7D2FF208940F007002081BDE8DF
:103E9000F08130B50C4600210189C9B24FF6FF759B
:103EA00005EA0325154325432943018130BD2DE94A
:103EB000F04105460E4617469846002443463A46CA
:103EC00031462846FFF7E5FF2C894FF6F87004408D
:103ED00044F007044FF68F70044044F070042C81C6
:103EE000BDE8F081F0B504460D4616461F463B4638
:103EF000324629462046FFF7CCFF208940F4804017
:103F00002081F0BD82884FF68F731A4082808288AC
:103F10000A438280704702894FF6F8731A40028183
:103F200002890A430281704702894FF67F731A4063
:103F3000028102890A4302817047F0B50C4615469A
:103F40001E460021002200230189028B038C4FF6BC
:103F5000F877394021434FF6FC473A4040F20117C9
:103F60003A434FF6DD773B404FF6FF7707EA0617F7
:103F70002F433B43018102830384F0BD21B182883A
:103F800042F08002828004E082884FF67F731A40FC
:103F900082807047A0F8501070470000FE4A1070F1
:103FA000704730B1FC49096841F48071FA4A1160E8
:103FB00005E0F949096821F48071F74A11607047FA
:103FC00030B1F549096841F40071F34A116005E028
:103FD000F149096821F40071EF4A1160704730B16E
:103FE000ED49096841F48061EB4A116005E0EA4956
:103FF000096821F48061E84A11607047E64800686A
:1040000040F40060E44908607047E348006840F409
:104010008050E14908607047DF481030006800F0C8
:10402000004028B1DD48DC49091D0860DC48086013
:104030007047D9481030006840F00040D649103130
:10404000086070470920D4490C31096801F48031B7
:10405000B1F5803F01D1012020E0CF490C31096842
:1040600001F0100109B1062018E0CB490C310968B4
:1040700001F4807109B1022010E0C7490C310968D0
:1040800001F0EF0109B1072008E0C3490C310968CC
:1040900001F0020109B1082000E00920704708B5CD
:1040A00009200090FFF7CEFF009002E0FFF7CAFF63
:1040B00000909DF800000128F8D09DF8000008BD90
:1040C00070B504460A460026092502B909E0012A0E
:1040D00001D1160205E0022A01D1160201E04FF4D7
:1040E0004076FFF7DCFF0546092D2DD1AA48103098
:1040F000006820F44070A849103108600846006844
:10410000304308600846006820F0F8000860084660
:10411000006844F0020108439F49103108600846D6
:10412000006840F480300860FFF7B9FF05469A4800
:104130001030006820F002009749103108600846EE
:10414000006820F0F8000860284670BD30B50246CF
:1041500000250924FFF7A3FF044602B909E0012A5C
:1041600001D1150205E0022A01D1150201E04FF448
:104170004075092C20D188481030006820F4407028
:1041800085491031086008460068284308600846E1
:10419000006840F0040008600846006840F4803081
:1041A0000860FFF77CFF04467B481030006820F071
:1041B0000400794910310860204630BD30B5024610
:1041C00000250924FFF76BFF044602B909E0012A24
:1041D00001D1150205E0022A01D1150201E04FF4D8
:1041E0004075092C20D16C481030006820F44070D4
:1041F000694910310860084600682843086008468D
:10420000006840F0040008600846006840F4803010
:104210000860FFF744FF04465F481030006820F054
:1042200004005D4910310860204630BD30B50246BB
:1042300000250924FFF733FF044602B909E0012AEB
:1042400001D1150205E0022A01D1150201E04FF467
:104250004075092C20D150481030006820F440707F
:104260004D49103108600846006828430860084638
:10427000006840F4004008600846006840F4803060
:104280000860FFF70CFF044643481030006820F434
:104290000040414910310860204630BD70B50646E7
:1042A00014461D460922FFF7FAFE0246092A1ED1CE
:1042B00039481030006820F44070374910310860E8
:1042C0000846006840F4407008600846006840F006
:1042D0000100086034607560FFF7E1FE02462E4879
:1042E0001030006820F001002B49103108601046A2
:1042F00070BD30B502460C460925FFF7D0FE0546D5
:10430000092D1DD124481030006820F44070224946
:10431000103108600846006840F4007008600846E4
:10432000006840F0010008601460FFF7B8FE054621
:1043300019481030006820F001001749103108605A
:10434000284630BD30B502460C460925FFF7A7FECA
:104350000546092D1DD110481030006820F440702A
:104360000D49103108600846006840F4807008600C
:104370000846006840F0010008601480FFF78FFED7
:10438000054605481030006820F001000249103150
:104390000860284630BD0000003C0240230167450C
:1043A000AB89EFCD30B502460C460925FFF777FE05
:1043B0000546092D17D19B48006820F440709949A3
:1043C00008600846006808600846006840F0010080
:1043D00008601470FFF763FE05469248006820F0FD
:1043E000010090490860284630BD8E48001D0068D5
:1043F00000F0010028B18C488A49083908608B48D0
:10440000086070478748001D006840F0010085493A
:10441000091D0860704730B502460C460925FFF7B4
:104420003EFE0546092D10D13CB17E48801D008816
:1044300090437C49891D088007E07A48801D0088E8
:1044400091B208437749891D088030BD30B50246D6
:104450000C460925FFF723FE0546092D10D13CB176
:1044600070480A30008890436E490A31088007E09E
:104470006C480A30008891B208436A490A310880C2
:1044800030BDFF21674AD21D127802F07F0140EA59
:104490000102644BDB1D1A70704730B502460C46B2
:1044A0000925FFF7FCFD0546092D10D144B15D48F3
:1044B000801D008891B208435A49891D088006E092
:1044C0005848801D008890435649891D088030BD9A
:1044D00030B502460C460925FFF7E1FD0546092DDA
:1044E00010D144B14F480A30008891B208434D4979
:1044F0000A31088006E04B480A3000889043494959
:104500000A31088030BD10B502460924FFF7C7FD07
:104510000446092C02D14348401D027010BDF0B57D
:1045200004460D46FF260927FFF7B9FD0746092F68
:104530000BD13C48001D007800F00F0645EA06004C
:10454000104320433749091D0870F0BD3549091D46
:10455000097821F01001334A121D117011460978B3
:104560000143117070472F49091D097821F00C0192
:104570002C4A121D117011460978014311707047C1
:1045800000B509222748001D007840F002002549A7
:10459000091D0870FFF783FD0246104600BD214843
:1045A000001D0068C0F3471070471E48801D00883A
:1045B00070471C480A30008870471A48801D0088E0
:1045C000704718480A300088704700201549491D77
:1045D0000978AA2901D0012000E000207047114885
:1045E000001D007800F00C00704729B10D4A1268D8
:1045F00002430C4B1A6004E00A4A12688243094BDA
:104600001A60704701460020064A121F12680A40CD
:104610000AB1012000E0002070470249091F08602C
:1046200070470000103C02403B2A19087F6E5D4C29
:1046300010B50446FB48844208D101218014FEF7DE
:104640008CFB0021A014FEF788FB3CE0F648844276
:1046500008D101210014FEF76FFB00212014FEF7A2
:104660006BFB30E0F148844208D10121C013FEF712
:1046700063FB0021E013FEF75FFB24E0EC4884427B
:1046800008D101214014FEF768FB00216014FEF7F9
:1046900064FB18E0E748844209D101210805FEF7D0
:1046A0005CFB00214FF48010FEF757FB0BE0E24863
:1046B000844208D101214805FEF74FFB00214FF449
:1046C0000010FEF74AFB10BD10B50022028802F46C
:1046D00041520B884C8823438C882343CC88234346
:1046E0000C8923434C8923438C892343CC8923435E
:1046F0001A430280838B4FF2FF74234083830B8A1B
:10470000038210BD2DE9F04F0025022300244FF055
:10471000010900220026002794469046B0F81CA00C
:104720004FF2400B0AEA0B0AA0F81CA04FF0020A55
:10473000A0F820A0858BD1F808A0BAF1020F01D112
:1047400000BF82E0B1F804A0BAF1000F02D14FF02F
:10475000010901E04FF00209DFF8E0A2DAF800A059
:104760000AF4000ABAF1000F09D0DFF8D0A2DAF893
:1047700000A02AF4000ADFF8C4B2CBF800A0DFF8EA
:10478000BCA20AF17C0ADAF800A0CAF3881CDFF8A0
:10479000ACA20AF17C0ADAF800A0CAF30278DFF8CA
:1047A0009CA2AAF1040ADAF800A00AF03F07DFF899
:1047B0008CA2AAF1040ADAF800A00AF4800ABAF579
:1047C000800F08D1DFF878A2BAFBF7FA0AFB0CFADF
:1047D000BAFBF8F607E0DFF86CA2BAFBF7FA0AFBBF
:1047E0000CFABAFBF8F6B1F806A0BAF5007F0ED1C4
:1047F0004FEA162A0AEB8A0A4FEA4A0AD1F808B0A9
:10480000BAFBFBFA0AF1050A1FFA8AF20FE04FEA37
:10481000491AB6FBFAFA0AEB8A0A4FEA4A0AD1F8B1
:1048200008B0BAFBFBFA0AF1050A1FFA8AF24FF048
:104830000A0AB2FBFAF202F00104A2EB040ACAF37C
:104840004F034FF6FF7A0AEA0424022B01DBFF2B09
:1048500001DD02230024B1F806A04AEA040A4AEA6C
:10486000030AA0F820A0B1F804A0B1F80CB04AEAFD
:104870000B0AB1F802B04AEA0B0AB1F800B04AEAF2
:104880000B0A4AF4006A4AEA05058583BDE8F08F01
:104890000021018041808180C1800181418181812D
:1048A000C181072101827047002101804180818000
:1048B000C1800221816000218181704721B102887D
:1048C00042F04002028004E002884FF6BF731A40B3
:1048D0000280704721B1828B42F48062828304E0BF
:1048E000828B4FF6FF331A408283704702884FF263
:1048F000FF731A40028002880A4302807047B1F5B4
:10490000804F04D1028842F48042028004E0028891
:104910004BF6FF731A40028070474FF6FF629142D8
:1049200004D0028842F48072028004E002884FF6CC
:10493000FF631A400280704721B1828842F004026E
:10494000828004E082884FF6FB731A4082807047B1
:1049500021B1828842F01002828004E082884FF602
:10496000EF731A408280704730B500220023848B99
:104970004FF240052C40848302240484828B0C88EF
:10498000B4F5007F01D00C8814B94FF4807308E0AF
:104990000C88B4F5407F03D00C88B4F5807F00D13B
:1049A00000238C888D892C434D882C431C4344F470
:1049B00000642243828330BD01468889704781812B
:1049C000704721B1028842F40052028004E002885C
:1049D0004DF6FF731A4002807047018841F4805100
:1049E0000180704702460020012901D0108B00E0B1
:1049F000908A70470146088A70471AB183880B4332
:104A0000838002E083888B438380704730B5002425
:104A100000230C110125A540ABB2AAB185881D4326
:104A2000858014E00030014000380040003C004028
:104A30000034014000500140005401400838024059
:104A400000127A000024F40085889D43858030BDE3
:104A50000246002013890B400BB1012000E000202A
:104A60007047CA4302817047F0B502460020002417
:104A70000023002501F00F070126BE40B4B20B1140
:104A800001269E40B3B2968806EA030516892640A1
:104A900016B10DB1012000E00020F0BD10B50022DC
:104AA00001F00F040123A3409AB2D343038110BD48
:104AB000016821F001010160002101604160816015
:104AC000C160016121214161DB49884204D13D215E
:104AD000D94A103A91608CE0D7491831884205D103
:104AE0004FF47461D44A103A916082E0D249303177
:104AF000884205D14FF47411CF4A103A916078E0A2
:104B0000CD494831884205D14FF07461CA4A103A04
:104B100091606EE0C8496031884204D1C749C64AF5
:104B2000103AD16065E0C4497831884204D1C44963
:104B3000C14A103AD1605CE0BF499031884204D14B
:104B4000C049BD4A103AD16053E0BB49A831884200
:104B500005D14FF03D51B84A103AD16049E0BA4909
:104B6000884204D13D21B84A083A116041E0B64973
:104B70001831884205D14FF47461B34A083A116084
:104B800037E0B1493031884205D14FF47411AE4A53
:104B9000083A11602DE0AC494831884205D14FF008
:104BA0007461A94A083A116023E0A749603188423C
:104BB00004D1A249A44A121F11601AE0A249783117
:104BC000884204D19E49A04A121F116011E09E49FB
:104BD0009031884204D19B499B4A121F116008E022
:104BE0009949A831884204D14FF03D51964A121F8D
:104BF0001160704710B500220268944B1A40CC68CF
:104C00000B6823434C6923438C692343CC692343BA
:104C10000C6A23434C6A23438C6A23434C6B234323
:104C20008C6B23431A430260426922F00702D1E9E8
:104C30000B3423431A4342610B6943604B68836022
:104C40008B68C36010BD0021016041608160C1605C
:104C5000016141618161C161016241628162C16240
:104C6000016341638163704721B1026842F0010230
:104C7000026003E0026822F001020260704721B185
:104C8000026842F40042026003E0026822F400423B
:104C90000260704721B1026842F02002026003E026
:104CA000026822F0200202607047416070470146AE
:104CB000486880B2704722B1036843F40023036060
:104CC00003E0036823F4002303600161704721B10E
:104CD000026842F48022026003E0026822F480222B
:104CE000026070470AB1016100E0C160704701468F
:104CF00000200A6802F400220AB1012000E000202E
:104D00007047014600200A6802F001020AB1012042
:104D100000E000207047014600204A6902F0380098
:104D2000704730B503460A4600200024464DAB428A
:104D300002D24149103901E04349103902F00055CF
:104D40000DB14C6800E00C68414D2C4004EA0205AE
:104D50000DB1012000E0002030BD02463A4B9A42DE
:104D600002D23548103801E03748103801F00053BE
:104D70001BB1374B0B40C36002E0354B0B408360E7
:104D8000704710B501F080034BB122B1436943F085
:104D90008003436103E0436923F08003436180297A
:104DA0000BD02AB1036801F01E042343036004E022
:104DB000036801F01E04A343036010BD70B50246F2
:104DC000002000240025204EB24202D21A4B103B94
:104DD00001E01D4B103B1F4E0E4036B11E2606EA69
:104DE000D124166806EA040502E0566906F080053B
:104DF00001F000560EB15C6800E01C68144E3440AF
:104E000004EA010616B10DB1012000E0002070BDDA
:104E100002460D4B9A4202D20748103801E00A4878
:104E2000103801F000531BB1094B0B40C36002E086
:104E3000074B0B4083607047106002403D0000202C
:104E4000400F002000003D20106402403F801CF015
:104E50007D0F7D0F3C0F3C0F10B501214020FDF769
:104E600049FF00214020FDF745FF10BD30B1214929
:104E7000096841F004011F4A116005E01D490968F5
:104E800021F004011B4A116070471A48083000687D
:104E9000704730B11749096841F00801154A11609F
:104EA00005E01449096821F00801124A11607047B1
:104EB000014600200F4A121D12680A400AB1012063
:104EC00000E0002070476FEA00110A4A121D1160CD
:104ED000704701460020074A121D12680A400AB1B5
:104EE000012000E000207047C143C9B2014A121DF1
:104EF000116070470008065010B501210802FDF747
:104F00002CFF00214FF48070FDF727FF10BD30B556
:104F10000246002000235068F84C20400D790C68B0
:104F200044EA0524204350609068F54C2040D1E9C4
:104F300003542C438D682C434D7944EA45042043A7
:104F40009060D06A20F470000C7D641EE4B22343AC
:104F500040EA0350D06230BD00210160017141710F
:104F60008160C16001610121017570470021E54A3E
:104F70001168E54A1140D0E900231A4383681A43B7
:104F8000C3681A431143E14AC2F804137047002171
:104F9000016041608160C160704721B1826842F068
:104FA0000102826003E0826822F0010282607047A1
:104FB0000A4600214168D64B1940114341607047B1
:104FC0004162826270470A460021416821F01F0158
:104FD00011434160704738B1CA49096841F4000182
:104FE000CA4AC2F8041306E0C649096821F4000160
:104FF000C64AC2F80413704738B1C249096841F47F
:105000008001C24AC2F8041306E0BE49096821F4CF
:105010008001BE4AC2F804137047F0B504460D463D
:1050200000200021092D11DDE068A5F10A0606EB3C
:105030004607072606FA07F18843A5F10A0606EB9C
:10504000460603FA06F10843E0600CE0206905EB30
:105050004507072606FA07F1884305EB450603FADC
:1050600006F108432061072A0FDA606B561E06EB33
:1050700086071F2606FA07F18843561E06EB8606AA
:1050800005FA06F10843606322E00D2A0FDA206B6F
:10509000D61F06EB86071F2606FA07F18843D61FA0
:1050A00006EB860605FA06F10843206310E0E06A85
:1050B000A2F10D0606EB86071F2606FA07F18843C4
:1050C000A2F10D0606EB860605FA06F10843E0623A
:1050D000F0BD816841F08041816070470146002049
:1050E0008A6802F080420AB1012000E00020704787
:1050F00021B1826842F48062826003E0826822F417
:1051000080628260704721B1826842F00202826050
:1051100003E0826822F002028260704710B50A46FE
:1051200000210023416821F46041531E41EA4331CC
:10513000416010BD21B1426842F40062426003E068
:10514000426822F40062426070470146C86C80B237
:1051500070476C48001D0068704721B1826842F4B6
:105160008072826003E0826822F4807282607047FD
:1051700021B1826842F40072826003E0826822F406
:1051800000728260704738B15E49096841F400518D
:105190005E4AC2F8041306E05A49096821F4005136
:1051A0005A4AC2F804137047F0B504461546002069
:1051B00000220026092911DDE068A1F10A0707EBAA
:1051C000470C072707FA0CF29043A1F10A0707EBF7
:1051D000470703FA07F21043E0600CE0206901EB97
:1051E000410C072707FA0CF2904301EB410703FA41
:1051F00007F210432061A06BC0F30156EF1C06F1CB
:10520000010CA7EB0C0707EB870C1F2707FA0CF222
:105210009043EF1C06F1010CA7EB0C0707EB870787
:1052200001FA07F21043A063F0BD10B50A46002151
:105230000023816B21F44011531E41EA0351816325
:1052400010BD08B5002300930090009B0B44009311
:10525000009B1A6008BD0A460021816821F4702174
:105260001143816070470A460021816821F4401192
:10527000114381607047816841F48001816070470B
:10528000014600208A6802F480020AB1012000E091
:105290000020704721B1426842F48062426003E01E
:1052A000426822F480624260704721B1426842F451
:1052B0008052426003E0426822F4805242607047AC
:1052C00008B5024600200090009201F12800009BE2
:1052D000184400900098006880B208BD10B50B46D5
:1052E0000021D9B2012404FA01F11AB144680C4337
:1052F000446002E044688C43446010BDFFFEFFFC44
:10530000FDF7FFC004230140E030FCFF0020014016
:10531000FFFD3FFF0246002013680B400BB1012048
:1053200000E000207047CA430260704770B5024633
:105330000020002300240B12556801268E4005EA48
:10534000060415681D4015B10CB1012000E00020D5
:1053500070BD00220A12D343036070470E490860F3
:1053600070470D49486070470B49886070474AF69E
:10537000AA200949086070474CF6CC4006490860ED
:10538000704701460020044AD2680A400AB1012051
:1053900000E0002070470000003000407CB5002590
:1053A00014E06946284602F0C1F9064666B9F84895
:1053B00050F8254044B1012C06D0D4E9020100EB9D
:1053C000810060640198A064681CC5B23F2DE8D9D3
:1053D0007CBD002400BF02E0282002F0B1FAED48B5
:1053E00000780028F8D0EC4800686421B0FBF1F0A8
:1053F000E94908600846006828B90020E7490870B4
:10540000FF2002F0D5F900BF02F08CFE0446E4480C
:105410000068E44908600020E1490860204602F085
:1054200085FEE0480068DC490968B0FBF1F0C0F196
:105430006400DA49087002F0E1FEFFF7AFFF1420C4
:1054400002F07EFAE0E700B587B003200021802259
:10545000D54BCDE90132CDE903104FF6FE703E2366
:10546000D24A0090AFF2950001F079FF06AAD0A1D0
:105470003E2002F0DDF807B000BD002400BF00BFF1
:1054800002F050FE0446C6480068401CC44908604B
:10549000204602F04BFE02F0B0FEF1E700B587B007
:1054A000032000218022C64BCDE90132CDE9031053
:1054B0004FF6FF703F23C34A0090AFF2410001F066
:1054C0004EFF06AAC0A13F2002F0B2F807B000BD0F
:1054D00004E0002200F8012B4A1E91B20029F8D105
:1054E000704770B5C821BC48FFF7F2FF00230FE0FA
:1054F000581C85B203EB8300B74901EB800405EB30
:10550000850001EB8006002020706660581C83B285
:10551000092BEDD303EB8300AF4901EB800400209E
:10552000207060600846AD49086070BD70B54FF4EA
:10553000E761AB48FFF7CCFF4FF480719448FFF769
:10554000C7FF002413E0601CC5B2C4EBC40000EB2D
:105550004000A34901EB8003C5EBC50000EB400010
:1055600001EB80065E619FA0D864601CC4B2152C5C
:10557000E9D3C4EBC40000EB4000994901EB800380
:105580000020586197A0D86400209749086094488B
:105590009649086070BD0021954A1170002004E012
:1055A0000021944A1154411CC8B20828F8D30021A4
:1055B000914A1170914A1170914A1160914A11609B
:1055C0007047002090490860904908709049087021
:1055D00090490870904908709049086070490860C7
:1055E000704908606C4908606A490870704710B5D6
:1055F00002F0FCFDFFF7E5FFFFF7CDFFFFF796FF99
:10560000FFF76FFF00F0ECFE01F0C9FBFFF746FF6C
:10561000FFF719FF02F01AFD02F0ECFD10BD7E4805
:105620000078012808D179480078FF2804D277480B
:105630000078401C75490870704779496C4A1278A7
:10564000885C6C49095C764A515C01EBC0016B4A8D
:105650001170704710B500246F480078012830D1D0
:1056600002F060FD04466948007820B16748007880
:10567000401E6649087065480078F8B964480078AB
:10568000E0B9FFF7DAFF42485C49097850F8210099
:105690005B490860594800785749097888420DD01D
:1056A00057480068806B401C5549096888635B480F
:1056B0000068401C5949086002F054FD204602F081
:1056C00035FD10BD10B5002453480078012811D1D4
:1056D00002F028FD04464D48007840B94C48007857
:1056E000FF2804D24A480078401C494908702046E7
:1056F00002F01CFD10BD10B5002402F013FD04469D
:1057000042480078F8B942480078E0B9FFF795FFC1
:105710001F483A49097850F821003949086037484C
:1057200000783549097888420DD035480068806B8B
:10573000401C33490968886338480068401C374971
:10574000086002F008FD204602F0F0FC10BD10B524
:1057500000243148007801286FD102F0E3FC0446B0
:105760002B48007880B12A480078401E28490870EC
:105770000846007848B92548007838B9204602F034
:10578000D5FCFFF7B8FF58E054E04FE04AE00000D6
:10579000A08D0120B0000020A8000020A40000205F
:1057A000C0000020AC000020A08901209C8B0120BB
:1057B00075432F4F532D49492053746174000000E5
:1057C000A08B01209C8D012075432F4F532D4949FB
:1057D0002049646C65000000888801209C0000203E
:1057E000A08E01203F000000D0000020C800002053
:1057F000B5000020B6000020B3000020B400002057
:10580000CC000020C4000020DC000020B1000020FB
:10581000B2000020BF000020BE0000209800002041
:105820005E690208204602F081FC06E0204602F094
:105830007DFC02E0204602F079FC10BD10B5EB487B
:10584000007890B9FFF7F9FEE9480078E949087057
:10585000E948E749097850F82100E8490860084616
:105860000068E749086002F064FC10BD10B5002430
:10587000022002F065F802F055FC04460020E149E0
:105880000860204602F052FC142002F059F802F0A1
:1058900049FC0446DB480068DB4908600120DB491D
:1058A0000870204602F042FC10BD70B5002602F0E0
:1058B0007DFD02F037FC0646D5480068401CD449FF
:1058C0000860304602F032FCC8480078012853D105
:1058D000D048007820B1012804D0022809D103E083
:1058E00001250BE0002509E001250120C9490870C8
:1058F00004E001250020C749087000BF00BF05B9BA
:1059000070BDC548046833E002F00CFC0646E06A4E
:1059100050B3E06A401EE062E06A28BB94F83000B1
:1059200000F0370040B114F8300F00F0C8002070CC
:1059300001206070303C02E0002084F8310094F8CF
:10594000300000F0080078B93434A078B349097801
:105950000843B24908702078B149085C617808436F
:1059600014F83419AE4A50546469304602F0DEFB34
:1059700094F832003F28C7D100BFC1E740F223109E
:105980007047704710B590F8342001F10B039B5C11
:1059900090F83540A34301F10B04A35423469B5CCC
:1059A00023B98B7A90F83640A3438B7210BD2DE952
:1059B000F04F05460F4690469946A87A99490E5CE5
:1059C00005F10B00805D11F800B00BEBC60000F094
:1059D000FF0A894850F82A4000202034E060276000
:1059E000207C20EA0800207484F81190207C203C60
:1059F00000F0080068B994F836008849097808432F
:105A0000864908708648805D94F8351008438449BB
:105A1000885529462046FFF7B5FF5046BDE8F08F70
:105A200010B5774A1268D061754A126892F834301E
:105A300000F10B02D25C724B1B6893F835301A43AD
:105A40006F4B1B6893F8344000F10B031A55827AB0
:105A50006B4B1B6893F836301A438272684A12689F
:105A600092F834106E4A525C654B1B6893F83530DF
:105A70009A436B4B5A541A46525C42B9604A1268B8
:105A800092F83630654A12789A43644B1A7010BD0A
:105A9000014600228A72002005E0002301F10B027A
:105AA0001354421CD0B20828F7D3704705E011F810
:105AB000013B00F8013B531E9AB2002AF7D1704710
:105AC0000146002002E0491C421CD0B20A78002A9C
:105AD000F9D170472DE9F84F05460F469046994693
